:020000040800F2
:1000000000000220351700089D150008BF030008F6
:100010009F150008A1150008A315000800000000A6
:10002000000000000000000000000000A51500080E
:10003000A715000800000000070300085D0E000877
:100040008517000885170008851700088517000820
:100050008517000885170008851700088517000810
:100060008517000885170008851700088517000800
:1000700085170008851700088517000885170008F0
:1000800085170008851700088517000885170008E0
:1000900085170008851700088517000885170008D0
:1000A00085170008851700088517000885170008C0
:1000B000890E0008851700088517000885170008B5
:1000C00085170008851700088517000885170008A0
:1000D00085170008451200088517000893130008CB
:1000E0008517000885170008000000008517000824
:1000F0008517000885170008851700088517000870
:10010000851700088517000885170008851700085F
:10011000851700088517000885170008851700084F
:10012000851700088517000885170008851700083F
:10013000851700088517000885170008851700082F
:1001400000000000000000000000000000000000AF
:10015000851700088517000885170008851700080F
:1001600085170008851700088517000885170008FF
:100170008517000885170008851700080000000093
:1001800085170008851700088517000885170008DF
:1001900085170008851700088517000885170008CF
:1001A00085170008851700088517000885170008BF
:1001B00085170008851700088517000885170008AF
:1001C000851700088517000885170008851700089F
:1001D000851700088517000885170008851700088F
:1001E000851700088517000885170008851700087F
:1001F000851700088517000885170008851700086F
:10020000851700088517000885170008851700085E
:10021000851700088517000885170008851700084E
:1002200085170008851700088517000800000000E2
:1002300085170008851700080000000085170008D2
:10024000851700088517000885170008851700081E
:10025000851700088517000885170008851700080E
:1002600085170008851700088517000885170008FE
:100270008517000885170008851700080000000092
:100280008517000800000000851700080000000026
:080290000000000085170008C2
:1002980010B5054C237833B9044B13B10448AFF3B8
:1002A80000800123237010BD5000002000000000D2
:1002B8006063000808B5034B1BB103490348AFF35B
:1002C800008008BD000000005400002060630008A2
:1002D800EFF3108072B6704780F310887047444A75
:1002E8001368012B04D04FF001031360414A1060DA
:1002F800414A116041484FF0805101607047EFF367
:10030800108272B63E48016851B34FF00001016097
:100318003C48016891B1EFF309811EF0100F08BF46
:1003280021ED108B21E9F00F4FF000041EF0100FA3
:1003380008BF012441F8044D00680160324909688A
:10034800096808C9B1E8F00F002B18BFB1EC108B91
:1003580081F309884EF0100E002B18BF2EF0100EF6
:1003680082F310884EF0040E704728490860EFF3B6
:10037800148222F0040282F3148825494FF0000009
:10038800086024494FF00100086023484FF47F01BA
:10039800D0F8002041EA0201016018484FF080516E
:1003A80001601E480068006800BF80F3088861B6D5
:1003B80062B6704700BFEFF308801EF0040F01D04B
:1003C800EFF3098020E9F00F40F804ED40F804ED60
:1003D8001EF0040F02D080F3098801E080F308883A
:1003E80000B503F041FD5DF804EB4EF0040E7047D4
:1003F800701700206C1700206817002004ED00E03B
:10040800701700206C17002068170020681700205C
:100418006C1700207017002020ED00E008ED00E0C8
:1004280053B94AB9002908BF00281CBF4FF0FF3153
:100438004FF0FF3000F074B9ADF1080C6DE904CE4F
:1004480000F006F8DDF804E0DDE9022304B07047A7
:100458002DE9F047089E04468846002B40F0858029
:100468008A42154648D9B2FA82F24AB1C2F1200747
:1004780001FA02F320FA07F7954047EA0308944087
:100488004FEA154E230CB8FBFEF71FFA85FC0EFB4E
:10049800178843EA084307FB0CF1994209D9EB187E
:1004A80007F1FF3080F0E380994240F2E080023F9C
:1004B8002B445B1AA4B2B3FBFEF00EFB103344EAE4
:1004C800034400FB0CFCA44509D92C1900F1FF33A7
:1004D80080F0CB80A44540F2C88002382C4440EA22
:1004E8000740A4EB0C0400271EB1D4400023C6E942
:1004F80000433946BDE8F087002A53D0B2FA82F2A9
:10050800002A40F0B680491B4FEA154E1FFA85F8BD
:100518000127B1FBFEFC230C0EFB1C1143EA01432F
:1005280008FB0CF1994207D9EB180CF1FF3002D205
:10053800994200F2EC808446591AA3B2B1FBFEF04E
:100548000EFB101443EA044408FB00F8A04507D941
:100558002C1900F1FF3302D2A04500F2DC801846C6
:10056800A4EB080440EA0C40BEE78B4208D9002EF1
:1005780078D00027C6E9000138463946BDE8F0873B
:10058800B3FA83F77FB98B4202D3824200F2BD806F
:10059800841A61EB030301209846002EA9D0C6E90E
:1005A8000048A6E7FFDEC7F12005BB4022FA05FC9C
:1005B8004CEA030C01FA07F420FA05F821FA05F3CE
:1005C8004FEA1C4E48EA0404B3FBFEF9210C0EFB6B
:1005D80019331FFA8CF841EA034309FB08FA9A45D4
:1005E80002FA07F200FA07F10BD91CEB030309F131
:1005F800FF3080F088809A4540F28580A9F1020991
:100608006344A3EB0A03A4B2B3FBFEF00EFB103362
:1006180044EA034400FB08F8A04508D91CEB04048D
:1006280000F1FF336BD2A04569D90238644440EA2F
:100638000940A4EB0804A0FB02894C45C6464B467A
:1006480054D351D0002E69D0B1EB0E0264EB0304F1
:1006580004FA05F522FA07F3FC401D43C6E90054E5
:10066800002746E73746304643E7184637E7074648
:100678001FE7C2F1200320FA03F7954001FA02F0C0
:1006880021FA03F34FEA154E3843010CB3FBFEF78A
:100698001FFA85F80EFB173341EA034107FB08F3FD
:1006A8008B4204FA02F407D9691807F1FF3C28D2F3
:1006B8008B4226D9023F2944CB1A81B2B3FBFEF004
:1006C8000EFB103341EA034100FB08F38B4207D9C4
:1006D800691800F1FF3C10D28B420ED90238294428
:1006E800C91A40EA074714E74145ABD2B8EB020EF6
:1006F80069EB0C0201381346A4E76046F0E7184698
:1007080095E76746D8E781467BE7384645E7ACF189
:10071800020C2B4410E702382C4421E73746E8E660
:10072800704700BF70B4840746D04C1E002941D0E2
:10073800D5B2034602E0611EE4B30C4603F8015B40
:100748009907F8D1032C2ED9D5B245EA05250F2CE7
:1007580045EA054519D9264603F11001103E0F2E2A
:1007680041F8105C41F80C5C41F8085C41F8045C05
:1007780001F11001F2D8A4F1100121F00F0104F0E9
:100788000F041031032C0B440DD91E4621460439A1
:10079800032946F8045BFAD8211F21F0030104312C
:1007A8000B4404F003042CB1D2B21C4403F8012B0F
:1007B800A342FBD170BC70470C460346C2E7034610
:1007C80013F8012B002AFBD1181A0138704780B59D
:1007D8006F4600F010F800F086F841F26470C2F23B
:1007E800000040F614710160006841F20001C6F291
:1007F8000001086080BDF0B503AF4DF804BD86B0B8
:1008080044F2E040C5F60200016841F008010160C9
:10081800016801F0080101910199016841F0100196
:100828000160016801F0100101910199016841F02E
:1008380040010160016801F04001019101990168DE
:1008480041F080010160016801F080010191019986
:10085800016841F480710160016801F480710191BF
:10086800019950F80C1C41F4805140F80C1C50F8C8
:100878000C0C00F4805000900C2005900326049680
:1008880001200390022002904CF2B370019000986E
:1008980040F60045C5F6020501AC2846214601F0A0
:1008A8003FF84FF68070019005F58060214601F011
:1008B80037F8019605F54060214601F031F84FF40C
:1008C8007F40019005F58050214601F029F840F25B
:1008D800CF60019005F5A050214601F021F806B03F
:1008E8005DF804BBF0BD80B56F469AB00020199042
:1008F800CDE9170044F20001C5F2002107914FF439
:100908008052CDE90F02CDE90D002022CDE90B027E
:10091800CDE9090001F58271089106900221CDE91F
:10092800041101220392CDE9011105210091CDE9BD
:100938001500CDE91300CDE9110007A869460A465C
:1009480001F06AFF38B146F21040C0F600004FF4DB
:10095800927100F0CDFD1AB080BD002941F264719A
:10096800C2F200010A6814BF104322EA00000860BE
:10097800086841F20001C6F200010860704780B5BE
:100988006F4600F004F8BDE8804000F034B880B548
:100998006F4640F26C00C2F200004FF0000C80F885
:1009A8000CC080F80BC080F80AC040F27C0EC2F27E
:1009B800000E6422022300200EEB00018A6081F8F9
:1009C8000CC00B711030A028F6D103206421062238
:1009D80000F06FF804206421062200F06AF8052070
:1009E8006421062200F065F8062064210622BDE88D
:1009F800804000F05EB8F0B503AF4DF804BD86B096
:100A080044F2E040C5F60200016841F002010160CD
:100A1800016801F0020101910199016841F00401A6
:100A28000160016801F0040101910199016841F038
:100A380040010160016801F04001019101990168DC
:100A480041F080010160016801F080010191019984
:100A5800016841F480710160006800F480700090C2
:100A6800032004900020CDE9020000986FF00705EC
:100A780046F23446C0F6000601AC7019818901912E
:100A88008068214600F04CFF0835382DF5D106B0B6
:100A98005DF804BBF0BD40F26C01C2F20001CA7AF5
:100AA8008854C87A0130C2B2092A88BF0020C872A7
:100AB800704740F27C03C2F2000303EB00100023EE
:100AC8000373C27201817047D0B502AF0024E0B24F
:100AD80000F005F80134E0B20A28F8D3D0BDB0B56B
:100AE80002AF044640F27C00C2F2000000EB04159D
:100AF800204600F058F8294611F8042F28B3042A94
:100B08009EBF05200870B0BD092A9EBF501C087002
:100B1800B0BD284610F80A1F39B90121017004EB4D
:100B280044000130C0B2FFF7B6FF2889D0B3294688
:100B380031F8062F82420DD201320A8091B28142E9
:100B480030D104EB4400033013E0062A16D3052005
:100B5800087024E0E87A28B315F80C1F01312970D1
:100B6800C9B2814238BFB0BD0020287004EB4400F0
:100B78000130C0B2BDE8B040FFF78DBF12B1501EC2
:100B880008700CE0284610F80A1F012907D1002137
:100B9800017004EB44000230C0B2FFF77CFF002074
:100BA8002873E880B0BDF0B503AF4DF8048D8046DA
:100BB800072818D80025FF260024E0B200F034F8F2
:100BC80000281CBF2646012005440134E0B208284D
:100BD800F3D386EA080085F001010843C0B2B0FAF1
:100BE80080F044091CE0B8F1090F0ED0B8F1080FE5
:100BF80015D1002000F018F888B10124012000F078
:100C080013F8002808BF00240AE0012000F00CF8BF
:100C180028B1022000F008F808B1012400E00024FF
:100C280020465DF8048BF0BD46F23441C0F6000161
:100C380001EBC002938851F830000069184018BFD2
:100C480001209179401AB0FA80F04009704780B5C8
:100C58006F46012000F00BF8022000F008F803208E
:100C680000F005F80420BDE8804000F000B8013825
:100C7800C1B2032988BF704740B246F27441C0F63A
:100C8800000151F820000121FFF767BE0138C1B209
:100C9800032988BF704740B246F27441C0F600018C
:100CA80051F820000021FFF758BE80B56F466FF05D
:100CB8000B0040F22011C2F2000100220B181A6149
:100CC8005A615A731A730C302428F7D140F2000085
:100CD800C2F20000006844F6D351C1F26201A0FBE1
:100CE8000101880900F00AF840F25010C2F2000031
:100CF80001210170BDE8804000F013B8B0B502AF23
:100D080001380024B4EB106F18BFB0BD4EF21005C7
:100D1800CEF20005686000F0FFF8AC60072028609C
:100D2800B0BDD0B502AF92B002AC04F11C002421D2
:100D380005F0C8FA44F2E840C5F60200016841F03F
:100D480001010160006800F0010001900020069098
:100D58004FF0FF3105914FF0804202928022CDE999
:100D68000702049040F20000C2F2000000684DF64D
:100D78008362C4F21B32A0FB020201EBD24080B2B4
:100D880003900198204602F091F938B146F2A44048
:100D9800C0F600004FF40E7100F0AAFB1C200021E1
:100DA800022200F0FEFC1C2000F040FD02A802F028
:100DB80035FA12B0D0BDB0B502AF40F25410C2F24D
:100DC8000000016849B101680139016005D140F2AC
:100DD8005810C2F2000001210170002440F22015D1
:100DE800C2F20005281900F024F80C34302CF9D18F
:100DF80040F21C10C2F20000016801310160016874
:100E08006FF00042914204BF0021016000F076FBC0
:100E180040F25110C2F20000017801310170C9B2EC
:100E28000A2938BFB0BD00210170BDE8B04000F00C
:100E380063BB4168002908BF7047416801394160B8
:100E480000D07047012141700178012904BF8168F1
:100E58004160704780B56F4603F045FB02F013FF11
:100E680040F25010C2F200000078002808BF80BD90
:100E7800FFF7A1FF03F0C4F9BDE8804003F042BBCF
:100E8800D0B502AF0C24C4F20004606821680840A1
:100E980080070BD54FF6FD70606021680840206020
:100EA80040F25C10C2F20000006880476068216868
:100EB800084040070BD54FF6FB706060216808407A
:100EC800206040F26010C2F200000068804760684D
:100ED8002168084000070BD54FF6F770606021685D
:100EE8000840206040F26410C2F2000000688047A9
:100EF800606821680840C00658BFD0BD4FF6EF7043
:100F0800606021680840206040F26810C2F200006A
:100F18000068BDE8D04000474EF62350CEF20000EE
:100F2800F0210170704780B56F4600F006F800F0B8
:100F380052F8BDE8804000F00FB9B0B502AF40F2FA
:100F48006C12C2F20002002010825082D0821083FC
:100F58005083908240F29811C2F2000108824882C0
:100F6800C88208834FF0042340F2C45CC2F2000C2C
:100F780040F2C41EC2F2000EC2E90700506282F8B5
:100F8800280044F60004C4F2000404F54845C2E908
:100F9800005EC2E902C3488340F6C452C2F20002AE
:100FA80040F6C415C2F20005C1E90045C1E90223B3
:100FB80081F8280041F24322C0F6000241F23523AD
:100FC800C0F6000341F22725C0F60005C1E9075322
:100FD8004A628882B0BDF0B503AF2DE9000FB5B005
:100FE80000201F904FF00108CDF8048001A800F000
:100FF80063FD44F2E045C5F60205286840F00100AB
:101008002860286800F0010030903098286840F087
:1010180001002860286800F00100309030982869A5
:1010280040F010002861286900F0100000904FF08F
:10103800070ACDF8D0A00320CDE9328002203190F4
:101048004FF400703090009840F20009C5F602098C
:1010580030AC4846214600F063FCCDF8D0A04FF4F0
:10106800806BCDF8C0B04846214600F059FC2520D9
:101078000021012200F095FB252000F0D7FB41F26A
:101088000006C4F2010630464FF4E13100220C2379
:1010980000F0A4F8306A40F040003062308B40F035
:1010A80008003083306840F020003060286840F045
:1010B80002002860286800F0020000900098286864
:1010C80040F002002860286800F0020000900098B4
:1010D800A86840F48020A860A86800F480200090E8
:1010E800CDF8C880CDF8D0A0032033900220CDE9F8
:1010F80030B0009809F580652846214600F010FCBC
:10110800CDF8D0A04FF4006030902846214600F07A
:1011180007FC27200021032200F043FB272000F0D2
:1011280085FB44F60004C4F2000420464FF416512F
:1011380000220C2300F052F8206A40F040002062A0
:10114800208B40F008002083206840F020002060B9
:1011580035B0BDE8000FF0BD80B56F4686B044F2EB
:10116800E040C5F60200016841F002010160006834
:1011780000F002000090032004900020039001205A
:10118800029004200190009840F20040C5F6020049
:1011980001A900F0C5FB06B080BD012282F31088CA
:1011A800438B002282F31088B3B1028B83689A5C68
:1011B8000A70012282F31088028B01320283C389EC
:1011C80092B29A4224BF00220283428B013A4283A0
:1011D800002080F310880A781046704780B56F4663
:1011E800A0B04FF0000CCDE903C28DE80310CDE9A3
:1011F800053CCDE907CCCDE909CCCDE90BCCCDF840
:1012080034C0684602F017F838B146F2F440C0F628
:10121800000040F22A3100F06BF920B080BD40F2A6
:101228001840C5F6020004210180704740F21A40B8
:10123800C5F60200042101807047704780B56F46EB
:1012480003F051F940F26C10C2F2000000F004F80B
:10125800BDE8804003F056B9D0B502AF82B004466D
:101268000268D069D2F800C09368830616D5928CBC
:1012780007F8092C17F8092CE38AA168CA54E18AEF
:101288000131E182E28989B2914224BF0021E182E1
:10129800618B91423EBF618B0131618300EA0C0092
:1012A800010615D5A18A49B3012184F82810618A5D
:1012B800D4E90023595C1185618A01316182A289D0
:1012C80089B2914224BF00216182A18A0139A18299
:1012D80040062BD5A08AE8B1608AD4E90012105CD8
:1012E8000885608A01306082A18980B2884224BF63
:1012F80000206082A08A0138A08217E021680A686D
:1013080022F080020A600A6842F040020A60400641
:10131800E0D40BE02068016821F040010160206AF8
:10132800002818BF8047002084F828002068016A38
:1013380041F001010162016A41F002010162016AA2
:1013480041F004010162016A41F008010162016A89
:1013580041F010010162016A41F040010162016A35
:1013680041F480710162016A41F400710162016A0D
:1013780041F400310162016A41F480110162016A9D
:1013880041F02001016202B0D0BD40F29810C2F2D3
:101398000000FFF761BF40F26C10C2F20000FFF7D7
:1013A800FCBE80B56F4600F012F800F03DF802F080
:1013B80032FC00F041F8FFF7E2FAFFF776FCFFF79E
:1013C800B2FDFFF704FABDE88040FFF740BCD0B596
:1013D80002AF84B000F057FA4FF01050019001208E
:1013E800ADF800000020C0F2011003901220C0F2F6
:1013F800013002906C46204600F062FA4FF0C0407F
:10140800019040F20110ADF800004FF08070039099
:101418000F20C0F200300290204600F051FA04205C
:1014280000F03EFA04B0D0BD80B56F4600F067F812
:10143800BDE8804000F07BB8B0B502AF9CB044F680
:101448001800C5F6020050F80C1C21F0040140F801
:101458000C1C00210191016841F4404101600168C0
:1014680001F440410191019901688904FCD50220E9
:1014780010900E90A0210D9105210C91CDE90A0044
:101488000024089404944FF48030029001200190C5
:10149800129404200F900825119501A801F0F5F980
:1014A80040201B904FF480611A91CDE91800CDE9D6
:1014B8001645032015903F20149014A8042101F02C
:1014C80034FC44F2F440C5F6020050F8F41C41F034
:1014D800800140F8F41C016841F0020101600068D5
:1014E80000F002000090009802F0E0FB1CB0B0BDD4
:1014F800002908BF7047FEE7FFF7E6BA7047BFF359
:101508004F8FBFF36F8F4EF61450CEF200000021BC
:10151800C0F83C12BFF34F8FBFF36F8F016841F4DF
:1015280000310160BFF34F8FBFF36F8F7047F0B585
:1015380003AF4DF804BD4EF61450CEF20000002162
:101548000167BFF34F8FC26EC2F34E31C2F3C902B7
:101558004FEA827E531C43F6E07C0CEA4112744643
:101568001D4644EA0206C0F84C6204F14044013DBD
:10157800F7D14A1E00291146EFD1BFF34F8F0168FA
:1015880041F480310160BFF34F8FBFF36F8F5DF877
:1015980004BBF0BD7047FEE7FEE7FEE77047704703
:1015A80080B56F4600F03CF8FFF7FBFEBDE88040D1
:1015B80002F063BE4EF6885CCEF2000CDCF8001038
:1015C80041F47001CCF8001044F20041C5F6020164
:1015D8000A6842F001020A6000220A610B684EF6AE
:1015E8007F50CEF6F620184008608A61CA610A6208
:1015F8008A62CA620A634A638A63CA630A644A647B
:10160800086820F4802008600A6648F20810C5F2CD
:101618000010012101604FF000604CF8800C704709
:1016280080B56F4644F20040C5F602000169C1F377
:10163800C20240F60011C0F23D01032A0DD0022A71
:101648002BD0002A57D10168C1F3C10149F2000229
:10165800C0F2D03222FA01F14DE0D0F828E0D0F8FB
:1016680028C0C36A03F00103426BC2F3CC025A4399
:101678000EF0030300EE102ACCF30512B8EE400A70
:10168800022B0FD093B90168C1F3C10149F20003DD
:10169800C0F2D03323FA01F108E047F64001C0F266
:1016A8007D1128E047F64001C0F27D11036B6FF30E
:1016B8005F2301EE103A9FED1C2AB1FBF2F1026B99
:1016C800B8EE411AC2F34622B7EE003A04EE101AF9
:1016D80000EE021A511CB8EE440A31EE031A02EE6B
:1016E800101AB8EE422A21EE000A80EE020ABCEE79
:1016F800C00A10EE101A40F20002C2F20002116095
:1017080080694FF4807191FAA1F1B1FA81F100F486
:101718007060C84046F21851C0F60001085C1168B4
:1017280021FA00F0106080BD00000039DFF834D0E5
:10173800002103E00C4B5B584350091D0B480C4B30
:1017480042189A42F6D30B4A02E0002342F8043BBF
:10175800094B9A42F9D3FFF72DFF04F0B9FD02F0C7
:10176800E6FD704700000220746D000800000020AC
:101778005000002050000020C0180020FEE700F0B4
:1017880000B84EF60C51CEF200010A684FF6FF037E
:101798001A4060F30A2242F0806040F0FD70086051
:1017A8007047F0B503AF4DF804BD14460D46064624
:1017B80000F00CF82946224600F021F80146304690
:1017C8005DF804BBBDE8F04000F008B84EF60C50D8
:1017D800CEF200000068C0F30220704700F1604CB0
:1017E80000F00F034EF61452CEF200021A44B0F184
:1017F800FF3FC8BF0CF5644208011070704700F045
:101808000700C31E38BF002380F00700042828BF44
:1018180004204FF0FF3C0CFA00F021EA0000984049
:101828000CFA03F122EA01010843704700F000B8FE
:10183800002848BF704700F01F01012202FA01F199
:1018480040094EF20012CEF2000242F82010704712
:1018580000F000B8B0B502AF01380024B4EB106F47
:101868001EBF01242046B0BD4EF21005CEF2000581
:1018780068604FF0FF300F21FFF7B0FFAC60072022
:1018880028602046B0BDBFF35F8F4EF62450CEF2DD
:101898000000016821F48031016000210167704770
:1018A80040F001004EF62451CEF2000108670868A6
:1018B80040F480300860BFF34F8FBFF36F8F7047DD
:1018C800D0B502AF42784EF69C5ECEF2000E4EF8CE
:1018D800042C0278F2B14368CEF80030037B42EA68
:1018E800037290F808C0437A817AC47A42EA0462A3
:1018F80042EAC141427B41EA8241827B41EA42415C
:10190800C07B41EA004040EA032040EA4C00CEF8A0
:101918000400D0BD0020CEF80000CEF80400D0BDF1
:10192800F0B503AF2DE9000F83B042F20042C5F6CF
:1019380002020A23904208BF0923019300F12642BC
:1019480002F1FF724FEAB222009200224FF0010E1C
:101958004FF000084FF0000A08E0023208F10408CE
:101968000AF1010ABAF1100F00F0A1800EFA0AFB81
:101978000E6816EA0B09F0D04E6846F01006122ED3
:1019880010D108F01C060F2303FA06F46FF00303C6
:1019980003EA5A0303441D6AA5430C6904FA06F6D0
:1019A8002E431E6203239340066826EA03054E6809
:1019B80006F003049440254305606FEA030C122ED9
:1019C80016D80EFA06F313F0061F1FBF836803EA42
:1019D8000C03CC6894401FBF23438360C6F30013F5
:1019E80003FA0AF31FBF446824EA0B042343436045
:1019F800C36803EA0C038D6895402B43C360F3006A
:101A0800ABD544F2F443C5F602031E461B6843F007
:101A180002033360336803F002030293029B2AF047
:101A2800030340F20846C5F60006B3469E5908F07F
:101A38000C050F24AC4026EA040C009E092E019CDC
:101A480038BF344604FA05F545EA0C0643F80B603E
:101A58000423C5F600039C46DB6F43EA09064D687C
:101A6800EC0358BF23EA0906CCF87C60DCF8803028
:101A780043EA0906AC0358BF23EA0906CCF880609C
:101A88004FF0B04BDBF8003043EA0906EC0258BFD0
:101A980023EA0906CBF80060DCF8003043EA0906BF
:101AA800AD0258BF23EA0906CCF8006055E703B039
:101AB800BDE8000FF0BD0000F0B503AF2DE9000749
:101AC8000446C078000744F22C49C5F6020926D519
:101AD800606E4FEA305003280AD8DFE800F0020CA5
:101AE8001118D9F8000040F40030C9F800000EE0E1
:101AF8004FF0010815E0201D022100F05AFC04E017
:101B080004F12400022100F0D4FC804648B9D9F839
:101B18002400616E20F440100843C9F824004FF0F7
:101B280000086078C00701D146462DE0606D0428A2
:101B380007D84646DFE800F007191E0303000EBB6E
:101B480009E001261EE0D9F8000040F40030C9F889
:101B580000004646B6B9D9F82400616D20F00700A8
:101B68000843C9F8240000260EE0201D002100F0DB
:101B780020FC04E004F12400002100F09AFC064651
:101B8800002EE8D048EA0608607880072DD5A06DB9
:101B98004FEAB010042806D8DFE800F007181D0344
:101BA800030006BB08E001261DE0D9F8000040F458
:101BB8000030C9F80000B6B9D9F82400A16D20F4A6
:101BC800E0700843C9F8240000260EE0201D00211B
:101BD80000F0EFFB04E004F12400002100F069FCB0
:101BE8000646002EE8D048EA0608607840072FD558
:101BF800D4F8A4004FEA7050042806D8DFE800F0B3
:101C080007191E0303000EBB08E001261EE0D9F8E1
:101C1800000040F40030C9F80000BEB9D9F82C0023
:101C2800D4F8A41020F460000843C9F82C0000265A
:101C38000EE0201D002100F0BCFB04E004F12400AC
:101C4800002100F036FC0646002EE7D048EA0608D8
:101C5800607800072FD5D4F8A8004FEA3060042830
:101C680006D8DFE800F007191E0303000EBB08E0E2
:101C780001261EE0D9F8000040F40030C9F8000041
:101C8800BEB9D9F82C00D4F8A81020F0E0600843B9
:101C9800C9F82C0000260EE0201D002100F089FB69
:101CA80004E004F12400002100F003FC0646002EA5
:101CB800E7D048EA0608E078800726D5A06C4FEA06
:101CC8003010032805D8DFE800F0020610024EB9EC
:101CD80012E0012606E0D9F8000040F40030C9F807
:101CE80000004EB148EA06080FE0201D022100F06E
:101CF80060FB0646002EF5D1D9F82000A16C20F033
:101D080030000843C9F8200000266078C0062DD5A9
:101D1800E06D4FEA3030042806D8DFE800F00718F5
:101D28001D03030006BB08E001261DE0D9F80000EA
:101D380040F40030C9F80000B6B9D9F82400E16DC4
:101D480020F4E0400843C9F8240000260EE0201DD6
:101D5800002100F02EFB04E004F12400002100F033
:101D6800A8FB0646002EE8D048EA060860788006F8
:101D780025D5206E4FEA3040052806D8DFE800F068
:101D880003070C03030376B910E001260BE0201DBE
:101D9800012100F00EFB04E004F12400012100F011
:101DA80088FB064616B148EA060808E0D9F8240078
:101DB800216E20F4E0200843C9F82400002660784A
:101DC800400627D5D4F8AC004FEA3070052806D86D
:101DD800DFE800F003070C03030376B910E00126DF
:101DE8000BE0201D012100F0E4FA04E004F12400D6
:101DF800012100F05EFB064616B148EA060809E034
:101E0800D9F82C00D4F8AC1020F0E0400843C9F809
:101E18002C0000266078000622D5E06E58B1B0F19B
:101E2800005F0AD0B0F1805F17D1D9F8000040F404
:101E38000030C9F800008EB905E0201D012100F02E
:101E4800B8FA064656B9D9F82400E16E20F0405099
:101E58000843C9F82400002602E0012648EA0608DB
:101E6800E078C00724D0606C032805D8DFE800F0CC
:101E7800020610024EB912E0012606E0D9F8000069
:101E880040F40030C9F800004EB148EA06080FE0F7
:101E9800201D022100F08DFA0646002EF5D1D9F852
:101EA8002000616C20F003000843C9F820000026D8
:101EB800A078400616D5D9F8D40340F48070C9F844
:101EC800D40301F0EDFE0546D9F8D403C00506D4C5
:101ED80001F0E6FE401B6428F6D9032600E086B12F
:101EE80048EA06082078C00753D0A06F4FEAF000F0
:101EF800052834D8DFE800F003353A030303E6BBCE
:101F08003EE0D9F84410D4F8B000414011F4407FC5
:101F180011D0D9F84410D9F8442042F48032C9F8D5
:101F28004420D9F8442022F48032C9F8442021F40E
:101F38004071C9F84410B0F5807F40F01D8201F06F
:101F4800AFFE054641F2883AD9F84400800700F10F
:101F5800108201F0A5FE401B5045F5D9BDE70126CA
:101F68000BE0201D012100F024FA04E004F1240014
:101F7800012100F09EFA064616B148EA060808E074
:101F8800D9F82800A16F20F038000843C9F82800C4
:101F980000262078800723D5606F052806D8DFE85B
:101FA80000F003070C03030376B910E001260BE0E9
:101FB800201D012100F0FDF904E004F124000121B5
:101FC80000F077FA064616B148EA060808E0D9F89C
:101FD8002800616F20F007000843C9F82800002690
:101FE8002078400725D5D4F89000052806D8DFE8E2
:101FF80000F003070C03030376B910E001260BE099
:10200800201D012100F0D5F904E004F1240001218C
:1020180000F04FFA064616B148EA060809E0D9F872
:102028002C00D4F8901020F007000843C9F82C00C1
:1020380000262078800627D5D4F88C004FEA307027
:10204800052806D8DFE800F003070C03030376B978
:1020580010E001260BE0201D002100F0AAF904E0A1
:1020680004F12400022100F024FA064616B148EAD9
:10207800060809E0D9F82800D4F88C1020F0E040D0
:102088000843C9F8280000262078400627D5D4F848
:1020980098004FEAB020052806D8DFE800F00307CB
:1020A8000C03030376B910E001260BE0201D002184
:1020B80000F07FF904E004F12400022100F0F9F9AE
:1020C800064616B148EA060809E0D9F82C00D4F803
:1020D800981020F4E0500843C9F82C000026207816
:1020E800000627D5D4F89C004FEA7030052806D89A
:1020F800DFE800F003070C03030376B910E00126BC
:102108000BE0201D002100F054F904E004F1240044
:10211800022100F0CEF9064616B148EA060809E0A1
:10212800D9F82C00D4F89C1020F460400843C9F872
:102138002C0000262078000713D5D4F88000B0F5CD
:10214800805F07D104F12400022100F0B2F948EAC7
:10215800000806E0D9F8281021F440510843C9F8CE
:1021680028002078C00613D5D4F89400B0F5807FF5
:1021780007D104F12400022100F09BF948EA000885
:1021880006E0D9F82C1021F440710843C9F82C0056
:10219800A078000722D5D4F8A000B0F5003F0ED0F3
:1021A800B0F5803F05D0B0B9201D002100F001F93D
:1021B80004E004F12400022100F07BF906465EB930
:1021C800D9F82C00D4F8A01020F440300843C9F8FE
:1021D8002C00002602E0012648EA0608A0784007FD
:1021E80027D5D4F88400B0F5401F0BD0B0F5001FF8
:1021F8000AD0B0F5801F19D1D9F8000040F400309A
:10220800C9F800009EB906E004F12400012100F09D
:1022180050F906465EB9D9F82800D4F8841020F49D
:1022280040100843C9F82800002602E0012648EAC1
:102238000608A078C0071FD0E06CB0F5803F08D032
:10224800B8B9D9F8000040F40030C9F800008EB9D8
:1022580005E0201D022100F0ACF8064656B9D9F871
:102268002000E16C20F480300843C9F820000026E3
:1022780002E0012648EA06082068810015D4810397
:102288001DD4C1023DD4C10045D481024ED44100C1
:1022980056D4B0F1FF3F63DDB8F1000F18BF4FF01F
:1022A80001084046BDE80007F0BD04F12400022102
:1022B80000F0FFF848EA000820688103E1D5E16FE3
:1022C8006FF0010202EB3122022A0AD34FEA3122CF
:1022D8003AB1012A10D1D9F8002042F40032C9F8E5
:1022E800002056B9D9F8282022F440721143C9F8C1
:1022F8002810C102C7D504E0012648EA0608C10231
:10230800C1D5D9F82410226F21F000411143C9F832
:102318002410C100B9D559F81C1CD4F8B42021F4F4
:102328008041114349F81C1C8102B0D5D9F824100A
:10233800A26E21F080711143C9F824104100A8D57C
:1023480059F81C1C21F4004149F81C1CD4F8B81099
:1023580059F81C2C114349F81C1CB0F1FF3F9BDCB9
:10236800D9F82000216D20F040500843C9F820001A
:1023780092E7002E7FF4B4ADD4F8B00059F81C1CD5
:1023880021F47C5100F44072B2F5407F01BF4FF652
:10239800CF72C0F2FF0202EA1012114349F81C1C66
:1023A800D9F844106FF31F300843C9F844000026D9
:1023B80098E5F0B503AF4DF8048D044644F22C457A
:1023C800C5F6020555F8040C00F00300032802BF07
:1023D80001205DF8048BF0BD884655F82C0C20F0E0
:1023E800806045F82C0C01F05BFC064655F82C0C77
:1023F800000105D501F054FC801B0228F6D950E0F5
:1024080055F8040C216820F47C3040EA013045F886
:10241800040C231D0FCB4FF47E4606EB412189B2F5
:1024280001386FF35F2008444FF4FE0101EB0241CD
:1024380001F4FE0108444FF0FE4101EB036101F095
:10244800FE410844E8602868616920F0C00008433C
:1024580028602868A16920F0200008432860B8F1A6
:10246800000F08D02868B8F1010F14BF40F400101D
:1024780040F4801002E0286840F40020286055F8F5
:102488002C0C40F0806045F82C0C01F009FC044647
:1024980055F82C0C000108D401F002FC001B03289D
:1024A800F6D303205DF8048BF0BD00205DF8048BA3
:1024B800F0BDF0B503AF4DF8048D044644F22C4549
:1024C800C5F6020555F8040C00F00300032802BF06
:1024D80001205DF8048BF0BD884655F82C0C20F0DF
:1024E800805045F82C0C01F0DBFB064655F82C0C07
:1024F800800005D501F0D4FB801B0228F6D950E0F6
:1025080055F8040C216820F07C7040EA015045F829
:10251800040C231D0FCB4FF47E4606EB412189B2F4
:1025280001386FF35F2008444FF4FE0101EB0241CC
:1025380001F4FE0108444FF0FE4101EB036101F094
:10254800FE41084468612868616920F440600843D6
:1025580028602868A16920F4007008432860B8F151
:10256800000F08D02868B8F1010F14BF40F0807040
:1025780040F4000002E0286840F48000286055F824
:102588002C0C40F0805045F82C0C01F089FB0446D7
:1025980055F82C0C800008D401F082FB001B03289E
:1025A800F6D303205DF8048BF0BD00205DF8048BA2
:1025B800F0BD000080B56F4644F2384CC5F6020CF9
:1025C8005CF8102C5CF810EC5CF80C3C03F0100381
:1025D800DCF80410C1F3CC01594302F00303CEF335
:1025E800053200EE101AB8EE400A022B0ED093B94D
:1025F8005CF8381C890649F20003C0F2D03342BFA8
:102608005CF8381CC1F3C101CB4008E047F6400331
:10261800C0F27D1303E040F60013C0F23D03DCF87E
:1026280000106FF35F2101EE101A9FED202AB3FB13
:10263800F2F1DCF80020B8EE411AC2F34622B7EEF8
:10264800003A04EE101A00EE021A511CB8EE440AC1
:1026580031EE031A02EE101AB8EE422A21EE000AF1
:1026680080EE021ABCEEC11A80ED001ADCF80010E8
:10267800C1F30641013101EE101AB8EE411A80EE9D
:10268800011ABCEEC11A80ED011ADCF80010C1F382
:102698000661013101EE101AB8EE411A80EE010A06
:1026A800BCEEC00A80ED020A80BD00BF0000003900
:1026B80080B56F4644F2404CC5F6020C5CF8182C05
:1026C8005CF818EC5CF8143C03F48073DCF8041034
:1026D800C1F3CC01594302F00303CEF3055200EED7
:1026E800101AB8EE400A022B0ED093B95CF8401CC1
:1026F800890649F20003C0F2D03342BF5CF8401C9F
:10270800C1F3C101CB4008E047F64003C0F27D1396
:1027180003E040F60013C0F23D03DCF800106FF34D
:102728005F2101EE101A9FED202AB3FBF2F1DCF8CD
:102738000020B8EE411AC2F34622B7EE003A04EE82
:10274800101A00EE021A511CB8EE440A31EE031AB0
:1027580002EE101AB8EE422A21EE000A80EE021AA2
:10276800BCEEC11A80ED001ADCF80010C1F3064176
:10277800013101EE101AB8EE411A80EE011ABCEED2
:10278800C11A80ED011ADCF80010C1F306610131AD
:1027980001EE101AB8EE411A80EE010ABCEEC00A2A
:1027A80080ED020A80BD00BF0000003980B56F4689
:1027B80000F02EFC44F22041C5F6020109681022FF
:1027C80092FAA2F2B2FA82F201F07001D14046F216
:1027D8001852C0F60002515CC84080BD80B56F46F3
:1027E80000F0A2FB44F21841C5F6020109684FF453
:1027F800807292FAA2F2B2FA82F201F47061D140C8
:1028080046F21852C0F60002515CC84040F200017E
:10281800C2F20001086080BD002804BF0120704793
:10282800F0B503AF4DF804BD15460E46044690F8C2
:10283800450028B9002084F84400204600F024F818
:10284800206804F1080101F03AFA2068A2683146CC
:1028580001F07FFAD4E90102E36A294601F0AEFAF1
:102868002068A16850F8212042F0010240F8212098
:1028780044F20000C5F20020016841F00041016007
:1028880000205DF804BBF0BD7047F0B503AF2DE93B
:10289800000B81460078C00744F20046C5F60206E0
:1028A80052D0306900F03800102807D13068800312
:1028B8004AD5D9F80400002846D158E1306900F01B
:1028C8003800182804D1B06A00F003000228EDD0BF
:1028D800D9F8040068B1B0F5803F06D03168B0F58A
:1028E800A02F1CD141F480203060306840F4803043
:1028F8001BE0306820F480303060306820F480209D
:10290800306001F0CDF9054641F288343068800323
:102918001AD501F0C5F9401BA042F7D93DE121F4D1
:1029280080303060306820F48020306001F0B8F9E1
:10293800054641F288343068800305D401F0B0F9C7
:10294800401BA042F7D928E199F80000800760D51C
:10295800306910F0380F1CD0306900F038001828A2
:1029680004BFB06A5FEA807013D0D9F80C003168F0
:1029780050B321F019010843306001F091F9054680
:102988003068400737D401F08BF9401B0228F7D98B
:1029980003E13068400704D5D9F80C00002800F09E
:1029A800E6803068D9F80C1020F019000843306030
:1029B80001F076F905463068400714D401F070F943
:1029C800401B0228F7D9E8E021F00100306001F04F
:1029D80067F90546306840071BD501F061F9401BCF
:1029E8000228F7D9D9E07068D9F810104FF47C3272
:1029F80092FAA2F206E07068D9F810104FF47C320F
:102A080092FAA2F2B2FA82F2914020F47C300843A2
:102A1800706099F80000C0064FD5306900F03800A2
:102A280008280FD13068C00504D5D9F81C008028C3
:102A380040F09D807068D9F820104FF0F84292FA63
:102A4800A2F233E0306900F03800182804D1B06AE7
:102A580000F003000128E5D0D9F81C10306871B1E6
:102A680040F08000306001F01BF905463068C00571
:102A780015D401F015F9401B0228F7D98DE020F094
:102A88008000306001F00CF905463068C00514D5A7
:102A980001F006F9411B03200229F6D942E17068CA
:102AA800D9F820104FF0F84292FAA2F2B2FA82F264
:102AB800914020F0F8400843706099F80000000742
:102AC80021D5D9F81410706F71B140F0010070670A
:102AD80001F0E6F80546706F800714D401F0E0F8BD
:102AE800401B0228F7D958E020F00100706701F078
:102AF800D7F80546706F800705D501F0D1F8401B5F
:102B08000228F7D949E099F80000800621D5D9F8BC
:102B18001810306871B140F48050306001F0C0F88E
:102B280005463068800414D401F0BAF8401B022826
:102B3800F7D932E020F48050306001F0B1F8054652
:102B48003068800405D501F0ABF8401B0228F7D99E
:102B580023E099F8000040070DD4D9F82440002C50
:102B680000F0C680306900F03800182829D101200B
:102B7800BDE8000BF0BDD6F8000440F48070C6F83C
:102B8800000401F08DF80546D6F80004C00508D405
:102B980001F086F8401B6428F6D90320BDE8000B35
:102BA800F0BDD9F8080050B3012806D0316F0528C8
:102BB80040F0A28041F004003067306F40F001001F
:102BC800A0E0306820F08070306001F069F80546B8
:102BD800022C09D13068800128D501F061F8411B29
:102BE80003200229F6D99DE03068800140F18080F9
:102BF80001F056F8411B03200329F5D392E0306F0A
:102C080020F001003067306F20F00400306701F0D9
:102C180047F8054641F28838306F80079DD501F0A6
:102C28003FF8411B03204145F6D97BE0B06A40F2EA
:102C3800F3318843D9E90A12084340EA0210B06226
:102C480009F130030FCB4FF47E4505EB412189B2E2
:102C580001386FF35F2008444FF4FE0101EB024195
:102C680001F4FE0108444FF0FE4101EB036101F05D
:102C7800FE4108443063706B4FF6F8718843D9F809
:102C8800482091FAA1F1B1FA81F102FA01F1084361
:102C98007063F06AD9F8401020F00C000843F06225
:102CA800F06AD9F8441020F002000843F062F06A94
:102CB80040F48030F062F06A40F40030F062F06A6C
:102CC80040F48020F062F06A40F00100F062306861
:102CD80040F08070306000F0E3FF04463068800107
:102CE80006D400F0DDFF011B03200229F6D919E004
:102CF8000020BDE8000BF0BD21F001003067306F07
:102D080020F00400306700F0CBFF054641F2883818
:102D1800306F80073FF521AF00F0C2FF411B032051
:102D28004145F5D9BDE8000BF0BDF0B503AF2DE97D
:102D380000070D46044642F20009C5F20029D9F8F9
:102D4800000000F0070088420CD2D9F8000020F0FB
:102D580007002843C9F80000D9F8000000F0070070
:102D6800A84264D12068810744F21848C5F60208D1
:102D780007D5D8F80010E26821F00F011143C8F810
:102D88000010C00742D1D9F8000000F00700A8429F
:102D98000CD9D9F8000020F007002843C9F8000032
:102DA800D9F8000000F00700A84240D12068410788
:102DB80041D4010749D4C10651D4800607D5D8F8B3
:102DC8000800E16920F070000843C8F8080000F026
:102DD800ABF8D8F800104FF4807292FAA2F2B2FA67
:102DE80082F201F47061D14046F21852C0F6000236
:102DF800515CC84040F20001C2F2000108600F2097
:102E080000F019FF0020BDE80007F0BDD8F8000069
:102E1800A16820F470600843C8F8000060680328BF
:102E280028D0022873D158F8181C890326D4012009
:102E3800BDE80007F0BDD8F80010226921F0700144
:102E48001143C8F800100107B5D5D8F80410626915
:102E580021F070011143C8F80410C106ADD5D8F8A7
:102E68000410A26921F4E0611143C8F80410800637
:102E7800A5D4ACE758F8181C8901D8D558F8081C0F
:102E880021F00701084348F8080C00F009FF06463E
:102E9800606841F2883A032824D0022830D00128FB
:102EA8000DD158F8080C00F0380008283FF46BAF33
:102EB80000F0F6FE811B03205145F2D9A3E758F82C
:102EC800080C10F0380F3FF45EAF00F0E9FE811BEC
:102ED80003205145F3D996E700F0E2FE811B032059
:102EE800514590D858F8080C00F038001828F3D14C
:102EF80049E700F0D5FE811B032051453FF683AF1B
:102F080058F8080C00F038001028F2D13BE758F8C0
:102F1800181C012803D1C9057FF589AFAEE7490719
:102F28007FF585AFAAE7000080B56F4644F20041FF
:102F3800C5F602010869C0F3C20240F60010C0F2EB
:102F48003D00032A16D0022A02BF47F64000C0F20D
:102F58007D1080BD002A18BF80BD0868800649F230
:102F68000000C0F2D03041BF0968C1F3C101C840B8
:102F780080BD80BDD1F828E0D1F828C0CB6A03F025
:102F880001034A6BC2F3CC025A430EF0030300EE6E
:102F9800102ACCF30512B8EE400A022B0CD07BB9EC
:102FA8000868800649F20000C0F2D03042BF0B68C2
:102FB800C3F3C103D84003E047F64000C0F27D10D8
:102FC8000B6B6FF35F2301EE103A9FED102AB0FBF5
:102FD800F2F0096BB8EE411AC1F34621B7EE003A98
:102FE80004EE100A00EE021A481CB8EE440A31EE4C
:102FF800031A02EE100AB8EE422A21EE000A80EE09
:10300800020ABCEEC00A10EE100A80BD00000039AA
:1030180080B56F46FFF7E2FB44F21841C5F602019E
:103028000968012292FAA2F2B2FA82F201F00F01C3
:10303800D14046F21852C0F60002515CC84040F236
:103048000401C2F20001086080BD80B56F46FFF739
:10305800DFFF44F21C41C5F602010968102292FA0A
:10306800A2F2B2FA82F201F07001D14046F218528F
:10307800C0F60002515CC84080BD80B56F46FFF7BE
:10308800C7FF44F21C41C5F6020109684FF480727B
:1030980092FAA2F2B2FA82F201F4E061D14046F269
:1030A8001852C0F60002515CC84080BD002804BF19
:1030B80001207047D0B502AF044690F83D0028B90A
:1030C800002084F83C00204600F00CF8022084F828
:1030D8003D002068211D00F006F8012084F83D001D
:1030E8000020D0BD7047028840F6FF33C4F20003C9
:1030F80098420FDCB0F1804F1EBF40F20043C4F28B
:103108000003984212D040F60003C4F2000398422C
:103118000CD00FE040F60043C4F2000398421EBFF3
:1031280040F20043C4F20103984270D14B6822F088
:1031380070021A434FF6FF73C4F20003984243F635
:10314800FF7CC4F2010C10DD60451ADD44F2000377
:10315800C4F2010398421EBF44F60003C4F20103FF
:10316800984226D044F2004312E040F2FF73C4F2C2
:103178000003984211DCB0F1804F1AD040F20043AE
:1031880013E00023C4F20103984212D040F2004336
:10319800C4F2010398420CD00FE040F60003C4F2D9
:1031A8000003984205D040F60043C4F20003984259
:1031B80003D1CB6822F440721A434B6922F0800293
:1031C8001A4302808A68C2620A68028560450EDD79
:1031D80044F20002C4F2010290421EBF44F600020B
:1031E800C4F2010290420DD044F2004206E00022EF
:1031F800C4F20102904205D040F20042C4F201023A
:10320800904201D10969018601214161704700237B
:10321800C4F2010398423FF489AF8BE7022180F89A
:103228003D1001680A8842F001020A80012180F8F5
:103238003D1000207047D0B502AFB0B1044690F8F9
:10324800790028B9002084F87800204600F027F893
:10325800242084F879002068016821F001010160C8
:10326800204600F01DF8012801D10120D0BD606B77
:1032780000281CBF204600F0E1FB2068416821F4CB
:1032880090414160816821F02A018160016841F024
:10329800010101602046BDE8D04000F043BC704702
:1032A800F0B503AF2DE9000F87B08346C069DBF89E
:1032B80028C0DBF80010DBF80830DBE904650C688F
:1032C80046F6F312CCF6FF72224043EA0C0333436E
:1032D8002B431843104308604868DBF80C2020F49F
:1032E800405010434860DBF8183040F60040C5F6FF
:1032F800000081421CBFDBF820201343BCF1005FB3
:1033080002BFDBE90B261A4342EA06038A684FF23A
:10331800FF46C1F2FF1632401A438A60CA6ADBF8D8
:10332800243022F00F021A43CA624FF0800A44F296
:103338000048C5F6020847F2FF72C4F20002914243
:1033480025DD40F6FF72C4F2010291423FDD814261
:1033580000F0718041F20042C4F20102914200F093
:10336800788041F20002C4F20102914240F0B48038
:10337800D8F85410C1F3C201052900F29F80DFE894
:1033880011F07300A000A300A600A9009A0044F65B
:10339800FF32C4F20002914233DC44F20042C4F22C
:1033A8000002914200F0638044F60002C4F2000279
:1033B800914240F09180D8F8541001F00701052996
:1033C80000F27C80DFE801F0747D8083867747F621
:1033D8000002C4F20002914200F0548047F6004215
:1033E800C4F20002914240F07780D8F8541001F0FE
:1033F8000701052900F26280DFE801F05A63666977
:103408006C5D44F60042C4F20002914200F045802F
:1034180045F20002C4F20002914240F05D80D8F803
:10342800541001F00701052900F24880DFE801F097
:1034380040494C4F5243D8F8581001F0070105296C
:103448003CD8DFE801F0033E414447384FF0020A18
:1034580042E0D8F85410C1F3C20105292ED8DFE89C
:1034680001F003303336392A4FF0010A34E0D8F836
:10347800541001F00701052920D8DFE801F01922CE
:1034880025282B1CD8F8541001F00701052915D858
:10349800DFE801F00E171A1D2011D8F8541001F0BA
:1034A800070105290AD8DFE801F0030C0F121506F9
:1034B8004FF0000A10E04FF0200A0DE04FF0800AAC
:1034C8000AE04FF0040A07E04FF0400A04E04FF02A
:1034D800080A01E04FF0100ADBF80010814200F002
:1034E8005280DBF81C000125B0F5004F40F07A80CF
:1034F8000020BAF1400F00F27C81DFE81AF04100A9
:1035080012017A017A0121017A017A017A013001E6
:103518007A017A017A017A017A017A017A01440101
:103528007A017A017A017A017A017A017A017A01BB
:103538007A017A017A017A017A017A017A015301D2
:103548007A017A017A017A017A017A017A017A019B
:103558007A017A017A017A017A017A017A017A018B
:103568007A017A017A017A017A017A017A017A017B
:103578007A017A017A017A017A017A017A01640181
:10358800FFF763FDCFE0AAF10206012540F6001916
:10359800C0F23D091E2E00F26F804846DFE816F0A3
:1035A8001F00A6017500A601A601A6017B00A601C1
:1035B800A601A601A601A601A601A6018B00A601E7
:1035C800A601A601A601A601A601A601A601A601BB
:1035D800A601A601A601A601A601A6018900FFF77A
:1035E800E5F856E0BAF1400F00F28081DFE81AF002
:1035F80041000B017E017E0120017E017E017E01DA
:103608002F017E017E017E017E017E017E017E0109
:1036180043017E017E017E017E017E017E017E01E5
:103628007E017E017E017E017E017E017E017E019A
:1036380052017E017E017E017E017E017E017E01B6
:103648007E017E017E017E017E017E017E017E017A
:103658007E017E017E017E017E017E017E017E016A
:103668007E017E017E017E017E017E017E017E015A
:103678006701FFF7EAFCC8E0BAF1400F40F0368175
:1036880001A8FFF715F8029803E004A8FEF792FFD7
:10369800059880B929E1D8F80000800649F20000B1
:1036A800C0F2D03042BFD8F80010C1F3C101C84001
:1036B80001E04FF40040DBF8042002EB4201012551
:1036C8008842C0F013811103884200F20F8101255E
:1036D8001E2E00F21081DFE816F01F00A601580127
:1036E800A601A601A6016901A601A601A601A601D7
:1036F800A601A601A6017C01A601A601A601A601B4
:10370800A601A601A601A601A601A601A601A60179
:10371800A601A601A6012101FFF748F8DBF804205D
:103728004CE1FFF7AAFCDBF80410DBF8242046F292
:103738002853C0F6000333F81220B0FBF2F052E031
:1037480004A8FEF737FFDBF80410DBF8240046F284
:103758002852C0F6000232F81000059A41E0D8F865
:103768000000800600F1E780DBF80410DBF8240095
:1037780046F22852C0F6000232F8100049F2000260
:10378800C0F2D0322DE0DBF80410DBF8240046F25A
:103798002852C0F6000232F8100040F60012C0F2BB
:1037A8003D021EE0DBF80410DBF8240046F2285244
:1037B800C0F6000232F810004FF40042B2FBF0F0FD
:1037C8004200480811E001A8FEF772FFDBF8041078
:1037D800DBF8240046F22852C0F6000232F8100046
:1037E800029AB2FBF0F040004A081044B0FBF1F036
:1037F80000254FF6F0710140C0F342000844DBF8A1
:103808000010C86072E0FFF738FCDBF80010DBF846
:103818000420DBF8243046F22856C0F6000636F8B5
:103828001330B0FBF3F000EB5200B0FBF2F043E0D2
:1038380004A8FEF7BFFEDBE90001DBF8242046F20E
:103848002853C0F6000333F81220059B45E0D8F84A
:103858000000800600F18480DBF80400DBF82420F7
:1038680046F22853C0F6000333F8122049F2000349
:10387800C0F2D0331AE0DBF80400DBF8242046F26B
:103888002853C0F6000333F8122040F60013C0F2A4
:103898003D030BE0DBF80400DBF8242046F2285354
:1038A800C0F6000333F812204FF40043B3FBF2F2E2
:1038B80002EB5002B2FBF0F080B2C86015E001A83C
:1038C800FEF7F6FEDBE90001DBF8242046F2285378
:1038D800C0F6000333F81220029BB3FBF2F202EBAE
:1038E8005102B2FBF1F189B2C1600025284607B048
:1038F800BDE8000FF0BDBAF1400F40F0948001A878
:10390800FEF7D6FEDBF80420DBF8240046F2285147
:10391800C0F6000131F81000029944E0DBF82400F9
:1039280046F22851C0F6000131F810004FF400416A
:10393800B1FBF0F057E0D8F80000DBF80410DBF832
:10394800242046F22853C0F6000333F81220C0F3AF
:10395800C10049F20003C0F2D03323FA00F0ECE6CC
:10396800D8F80000DBF80420DBF8243046F22856AB
:10397800C0F6000636F81330C0F3C10049F200065D
:10398800C0F2D03626FA00F04BE704A8FEF712FE84
:10399800DBF80420DBF8240046F22851C0F60001C9
:1039A80031F810000599B1FBF0F032E0D8F80000CA
:1039B800800649F20000C0F2D0301BD4DBF8241096
:1039C80046F22853C0F6000333F81110B0FBF1F0AB
:1039D8001FE0DBF8240046F22851C0F6000131F858
:1039E8001000B9FBF0F0000200EB5200B0FBF2F05F
:1039F800002518E0D8F80010DBF8243046F22856E5
:103A0800C0F6000636F81330C1F3C101C840B0FB58
:103A1800F3F0010E000210EB520041F10001002505
:103A28000023FCF7FDFCA0F540714FF6FF42C0F201
:103A38000F0291427FF6E3AE012557E780B56F4646
:103A4800416BCA070CD18A0715D44A071ED40A0746
:103A580027D4CA0630D48A0639D44A0642D456E056
:103A680002685368D0F838C023F4003343EA0C03E3
:103A780053608A07E9D502685368D0F83CC023F43C
:103A8800803343EA0C0353604A07E0D50268536861
:103A9800D0F840C023F4802343EA0C0353600A079C
:103AA800D7D502685368D0F844C023F4004343EAEA
:103AB8000C035360CA06CED502689368D0F848C094
:103AC80023F4805343EA0C0393608A06C5D5026841
:103AD8009368D0F84CC023F4005343EA0C03936076
:103AE8004A0614D5D0F800E0DEF804C0036D2CF4C3
:103AF80080121A43CEF80420B3F5801F07D1DEF8F0
:103B08000420436D22F4C0021A43CEF804200906AB
:103B180058BF80BD01684A68806D22F400221043B6
:103B2800486080BDB0B502AF82B004460020E067AF
:103B380000F0B6F805462068006800070AD56FF05F
:103B48007E40009020464FF4001100222B4600F0E2
:103B58001DF870B92068006840070DD56FF07E40E9
:103B6800009020464FF4800100222B4600F00EF80A
:103B780010B1032002B0B0BD202184F879100020D4
:103B880084F8780084F87A1002B0B0BDF0B503AFBD
:103B98002DE9000782460068C0690840401AB0FA5B
:103BA80080F04009904232D1984616460D46D7F823
:103BB800089009F101045CB9DAF80000C0692840EE
:103BC800401BB0FA80F04009B04220D1002CF3D05D
:103BD800B9F1000F05D000F063F8A0EB08004845E4
:103BE800EAD9DAF80000016821F4D071016081682F
:103BF80021F00101816020208AF8790000218AF8EB
:103C080078108AF87A000320BDE80007F0BD00208C
:103C1800BDE80007F0BD80B56F460320FDF7AFFD96
:103C28000F2000F008F800281CBF012080BD00F01C
:103C380029F8002080BDB0B502AF044640F2080064
:103C4800C2F2000000784FF47A71B1FBF0F040F254
:103C58000001C2F200010968B1FBF0F0FDF7F8FDC0
:103C680001250F2C0CD858B900254FF0FF302146FC
:103C78000022FDF796FD40F20C00C2F2000004603D
:103C88002846B0BD704740F20800C2F20000007834
:103C980041F2C411C2F200010A681044086070477A
:103CA80041F2C410C2F200000068704740F22040A0
:103CB800C5F60000016841F0010101607047F0B5E8
:103CC80003AF2DE90007D1E900C9D1E902EA01F102
:103CD800100898E8700150F82C2040F28043CFF685
:103CE800C0731A4042EA090242EA0E0242EA0A0294
:103CF80022432A43324348EA020801F1200A9AE89B
:103D08007804D1E90D9243EA080323432B43334354
:103D180043EA0A031A4342EA0902BEF1080F08BF40
:103D280042F0400240F82C200A6BB2F5801F05D102
:103D38000A6852B1026842F4801202600A68002AD6
:103D48001FBF496B0268114301600020BDE80007EE
:103D5800F0BDF0B503AF2DE9000F00EB8203D3F8F7
:103D68000480D1E900EAD1E902B6D1E904298C69D5
:103D780040F2000CCFF6F07C0CEB025208F0404504
:103D880045EA0E0545EA0A1545EA0B2545EA0646C1
:103D98003243224309F1FE0642EA06625A6002688B
:103DA800D20207D5426809690CEB015122F470026E
:103DB800114341600020BDE8000FF0BDB0B502AF6F
:103DC800B3F5804F15D150F822C00023CCF6F0731C
:103DD8000CEA030CD1E9003ED1E9024543EA0C03A1
:103DE80043EA0E1343EA042343EA05438969194366
:103DF80001E06FF0704140F822100020B0BD80B59E
:103E08006F460120FCF742FF4FF4FA7001F001FA07
:103E18000120FCF72CFF4FF4FA7001F0FAF9F0E7F3
:103E2800B0B502AF8446101D20F0070EAEF1440075
:103E38006FF047024BF6EF64CDF6AD640EEB02056A
:103E48006C600432151DF9D100224FF080744EE9E0
:103E580008124EE90622AEF1100181E80C104EF866
:103E6800044C4EF8442CB0BDD0B502AF044641F224
:103E7800C810C2F20000016829B104F1280088477F
:103E8800002808BFD0BD616C46F24050C0F6000063
:103E980000F0DEFBA16A46F24D50C0F6000000F0CB
:103EA800D7FBE16A46F25A50C0F6000000F0D0FB9A
:103EB800216B46F26750C0F6000000F0C9FB616B49
:103EC80046F27450C0F6000000F0C2FBA16846F24A
:103ED8008150C0F6000000F0BBFBE16846F28E504E
:103EE800C0F6000000F0B4FB216946F29B50C0F612
:103EF800000000F0ADFB616946F2A850C0F6000072
:103F080000F0A6FBA16946F2B550C0F6000000F02B
:103F18009FFBE16946F2C250C0F6000000F098FB32
:103F2800216A46F2CF50C0F6000000F091FB616AAA
:103F380046F2DC50C0F6000000F08AFBA16B46F2A6
:103F4800E950C0F6000000F083FBE16B46F2F65042
:103F5800C0F6000000F07CFB216C46F20360C0F65E
:103F6800000000F075FB2078400706D446F22D606B
:103F7800C0F6000000F06CFB0AE001F07DF8014695
:103F880046F21060C0F6000000F062FB01F081FA12
:103F98002078C00605D446F24760C0F6000000F05D
:103FA80057FB00F001F8FEE7D0B502AF4EF62C54EF
:103FB800CEF200042068800705D546F26260C0F69C
:103FC800000000F045FB2068400011D514F8030CF0
:103FD800002818BF00F019F814F8040C002818BFBE
:103FE80000F06AF834F8020C002818BF00F0B1F8A5
:103FF8002068B0F1FF3FC8BFD0BD46F27760C0F679
:104008000000BDE8D04000F023BBD0B502AF46F2B7
:104018008460C0F6000000F01BFB4EF62954CEF277
:104028000004217846F29060C0F6000000F010FB12
:104038002078C00705D046F2A660C0F6000000F060
:1040480007FB2078800705D546F2B160C0F600006E
:1040580000F0FEFA2078400705D546F2AF60C0F6BA
:10406800000000F0F5FA2078000705D546F20A703E
:10407800C0F6000000F0ECFA2078C00605D546F23C
:104088001570C0F6000000F0E3FA94F90000B0F1F2
:10409800FF3F07DD46F24560C0F60000BDE8D040AE
:1040A80000F0D6BAD4F80F1046F2BC60C0F6000093
:1040B800BDE8D04000F0CCBAD0B502AF46F2CC6033
:1040C800C0F6000000F0C4FA4EF62854CEF2000400
:1040D800217846F2DF60C0F6000000F0B9FA2078D7
:1040E800C00705D046F2F560C0F6000000F0B0FA4F
:1040F8002078800705D546F2FF60C0F6000000F082
:10410800A7FA2078000705D546F20970C0F6000026
:1041180000F09EFA2078C00605D546F21470C0F665
:10412800000000F095FA94F90000B0F1FF3F07DDB8
:1041380046F24560C0F60000BDE8D04000F088BAFD
:10414800E16846F21D70C0F60000BDE8D04000F0FE
:104158007FBAD0B502AF46F22D70C0F6000000F06D
:1041680077FA4EF62A54CEF20004218846F23B70C4
:10417800C0F6000000F06CFA2088C00705D046F2AF
:104188005170C0F6000000F063FA2088800705D55A
:1041980046F25D70C0F6000000F05AFA2088400729
:1041A80005D546F26770C0F6000000F051FA208885
:1041B800000705D546F26E70C0F6000000F048FA18
:1041C8002088C00505D546F27470C0F6000000F0DE
:1041D8003FFA2088800505D546F27F70C0F60000BA
:1041E80000F036FA46F24560C0F60000BDE8D0405F
:1041F80000F02EBA41F2CC10C2F2000000687047FD
:1042080080B56F4641F2CC10C2F20000016801315E
:10421800016000F031FF016C0139016403D0BDE891
:10422800804001F0CBB8C16B016400F061FFBDE8CC
:10423800804001F0C3B8002844BF4FF0FF307047FA
:1042480044F6D35CC1F2620CA0FB0C239A094FF42C
:104258007A7302FB03F102FB1300584300F2E730C4
:10426800A0FB0C0201EB9210704700207047002061
:1042780070470020704700207047F0B503AF4DF835
:10428800048D46F2F838C0F6000846F2F030C0F661
:104298000000404518D2A0F1080646F2BA74C0F6EC
:1042A800000446F2C875C0F6000556F8081F2046F7
:1042B80000F0CEF9706880470146284600F0C8F93A
:1042C80006F108004045F0D35DF8048BF0BDF0B569
:1042D80003AF4DF8048D46F2D270C0F6000000F02E
:1042E800B7F946F20848C0F6000846F2F830C0F6BA
:1042F8000000404518D2A0F1080646F2BA74C0F68C
:10430800000446F2C875C0F6000556F8081F204696
:1043180000F09EF9706880470146284600F098F939
:1043280006F108004045F0D35DF8048BF0BD80B578
:104338006F4600F002F8002080BD80B56F46FBF79D
:10434800C7FFFDF72DF900F05DF901F07FF800F0E7
:10435800E8FC00F012F801F063FF01F080F800F0CB
:104368007FF800F00CFD002080BD80B56F46FFF798
:10437800AEFFBDE88040FFF742BDD0B502AF84B0C4
:10438800142002214FF4807241F2D013C2F20003CC
:10439800CDE90032CDE9021041F27474C2F2000492
:1043A80046F2F171C0F6000144F27332C0F6000221
:1043B8002046002300F003FE204604B0BDE8D040AC
:1043C80000F060BEF0B503AF4DF8048D00F036F88C
:1043D80028B341F63C08C2F20008FBF779FF04460F
:1043E80000F02CF818B3D8F80060304600F02FF829
:1043F800A6F1140500F07DFDF16D00291CBF2846CB
:104408008847284600F08AFC01280BD000F080FD80
:104418002046FBF761FF00F011F80028DDD15DF8B8
:10442800048BF0BD284600F05FFC00F071FD2046CB
:104438005DF8048BBDE8F040FBF74EBF41F63C0049
:10444800C2F200000168081A18BF01207047D0E9BD
:1044580000124A60D0E900121160C0E900007047FC
:10446800D0B502AF84B020200721802241F2483322
:10447800C2F20003CDE90032CDE9021041F2D024A6
:10448800C2F2000446F2F671C0F6000144F2B142ED
:10449800C0F600022046002300F091FD204604B03B
:1044A800BDE8D04000F0EEBD80B56F46FFF78AFF4B
:1044B800FCE7F0B503AF4DF804BD1C4615460A46A7
:1044C8000646022100F0DEFB304600F006F8747262
:1044D800B58300205DF804BBF0BD143000F000B8CF
:1044E800C0E90000704780B56F46FBF7F1FE41F266
:1044F800EC71C2F200010A7801320A70BDE880400E
:10450800FBF7EABE80B56F46FBF7E2FE41F2EC71BD
:10451800C2F200010A78013A0A70BDE88040FBF750
:10452800DBBED0B502AF04465FFA81FC042A02D292
:1045380020462ABB28E0A00701D0204620E04CEA0C
:104548000C2040EA0041102A10D3A4F110001346B1
:1045580040F8101FC0E90111C160103B0F2BF7D8BC
:10456800103002F00F02042A01D208E02046134658
:1045780040F8041B043B032BFAD802F003021AB1DB
:1045880011466246FCF7CEF82046D0BD81420CD2D7
:104598008B18834209D9A2B1A0F1010C01398B5CB7
:1045A8000CF80230013AFAD10BE0002A08BF704734
:1045B800A0F1010C013911F8013F0CF8013F013A53
:1045C800F9D17047411E11F8012F002AFBD1081AB2
:1045D8007047D0B502AF04465AB1601CC2F101025F
:1045E8000B7800F8013C33B1013001320131012A66
:1045F800F6D12046D0BD002A1CBF514201F062FE10
:104608002046D0BD80B56F4682B046F2FC70C0F639
:10461800000000F01DF846F60500C0F6000000F0A6
:1046280017F846F64700C0F60000009046F6290045
:10463800C0F6000003210122032300F009F846F622
:104648005300C0F6000002B0BDE8804000F000B89A
:1046580083B0D0B502AF81B0844607F108000EC020
:1046680007F10803009341F2C834C2F2000420465F
:104678007F21624600F008F8204600F0A1FA01B058
:10468800BDE8D04003B07047F0B503AF2DE9000F87
:1046980087B09B460446069245180491002948BFF6
:1046A8004FF0FF3505900FE059F8042BCB465FFA21
:1046B8008AF0CDE9006802902046294600F0BCF94E
:1046C800044606980130069006980078252807D0F9
:1046D800002800F08081AC4238BF20700134F0E738
:1046E800069801304FF0000A0278A2F12003102B3F
:1046F80016D81021DFE803F00E1414101414141443
:1047080014141412140A1414090001214AEA010AA3
:104718000130E9E70821F9E72021F7E70421F5E767
:104728000690A2F13001092904D806A800F064F91E
:1047380006460EE02A2A0AD1013006905BF8046B7F
:10474800B6F1FF3FDCBF4AF0100A764201E04FF0B5
:10475800FF36069801782E290BD1411C0691417825
:10476800A1F13002092A08D806A800F045F98046C8
:1047780009E04FF0FF38D9460FE02A290AD1023064
:1047880006905BF8048BD946B8F1FF3FD8BF4FF0CD
:10479800000802E0D9464FF000080699087840F072
:1047A80004026C2A02D10131069100E0002006992A
:1047B80009782539532900F265800A23DFE811F0CA
:1047C8005B006200620062006200620062006200D8
:1047D80062006200620062006200620062006200C1
:1047E80062006200620062006200620062006200B1
:1047F80062006200620062006200620062006200A1
:104808006200620062006200620062006200620090
:104818006200620062006200620062006200620080
:104828006200620062007200620062006200620060
:104838006200620062006200620062007900540057
:10484800620062006200620054006200620062005E
:10485800620062008A00990062006200AD00620096
:1048680057006200620074004AF0020A0A236C28AA
:104878003FF41AAF32E0AC423CBF2520207001342F
:10488800CB461EE7AC423CBF25202070601C069A30
:104898001178002900F08280A84238BF01700234E4
:1048A800CB460EE74AF0400A10236C283FF4FCAED2
:1048B80014E05FEACA6058D4013E012E4FF020018F
:1048C80054DBAC4238BF2170013E0134002EF8DCC5
:1048D80000264BE008236C283FF4E6AE59F8042B79
:1048E80068287FF4E3AE5FEA8A704CBF12B292B2D6
:1048F800DCE659F8042B701C08BF0826B0FA80F0D3
:10490800400940EA0A00C0B2CDE90068029020469A
:104918002946102300F090F842E0CB465BF8049B50
:10492800B9F1000F46F67D00C0F6000008BF8146C9
:104938004846FFF747FE40450146C8BF4146B8F123
:10494800000FD8BF01465FEACA6023D4B1424FF0D6
:10495800200328DAAC4238BF2370013E0134B1424B
:10496800F8DB4E1E012921DA32E0202109F1040B7F
:10497800AC423CBFD9F800002070701E01340128F9
:10498800FFF69FAEAC4238BF2170013801340028D1
:10499800F8DC96E62023012908DA19E0511E069171
:1049A8000446CB468DE6013E012911DB0846AC42A0
:1049B8003CBF99F800202270013809F1010904F17F
:1049C8000104F4D104E0013EAC4238BF2370013445
:1049D800B142F8DB75E604980028059A48BFD04331
:1049E80028B1AC42204628BF681E00210170A01AD9
:1049F80007B0BDE8000FF0BD80B56F4601680A78C2
:104A0800303A092A82BF4FF0000C604680BD4A1E2A
:104A18004FF0000C1346911C016013F801EF0CEBEA
:104A28008C010EEB4101A1F1300C917830390A2943
:104A38001A46F0D3604680BDF0B503AF2DE9000FEC
:104A480089B098468A4604460892D7F810C05FEAAB
:104A58004C6046F68400C0F6000046F69509C0F69C
:104A6800000958BF81465FEACC6048BF2CF0010CB2
:104A78005FEACC704FF0300008BF202001905FEA59
:104A88008C70D7E9023602D44FF0000E0AE0B2F17A
:104A9800FF3F11DD5FEA4C705ABF202000EA8C0E00
:104AA8004FF02B0E089810B1CDE902EC0AE0302047
:104AB8008DF81000012519E0CDF80CC0504208907F
:104AC8002D200290002508AE0DF1100B304641460E
:104AD80000F0B3F819F800000BF805000135089844
:104AE8000028F3D1FE68DDE902ECBB68B542314627
:104AF800C8BF2946581A1CF0110F3DD0BEF1000F4F
:104B080005D0544538BF84F800E0013401385FEA25
:104B1800CC620BD401284ADB019A544538BF227075
:104B2800013801340028F8DC4FF0FF30B54207DACD
:104B380030220139544538BF227001348D42F8DBE8
:104B48005EB16A1E04A954453CBF8B5C23700134D6
:104B58001EB1531E002A1A46F5DC012807DB202166
:104B68000138544538BF217001340028F8DC20464C
:104B780009B0BDE8000FF0BD00220028C8BF01221F
:104B8800BEF1000F734618BF01231A40801A01288E
:104B980011DB2022544538BF227001380134002827
:104BA800F8DC4FF0FF30BEF1000FAAD1AFE70138B3
:104BB800B542BDDBC4E70138BEF1000FA1D1A6E7BD
:104BC800D0B502AF0446FFF7FDFC002808BFD0BDF2
:104BD800002141F21C02C4F201024FF00D0C635C8B
:104BE8000A2B04D1A2F80CC013685B06FCD5635CE1
:104BF800938113685B06FCD501318142EFD1D0BDAA
:104C0800002804BF00207047C1B209B101200DE09F
:104C180010F47F4102D0090A092007E010F47F014F
:104C280002D0090C112001E0010E192046F6A60257
:104C3800C0F60002515C0844704703680A290BD18A
:104C48004CF6CD41CCF6CC41A3FB0112D20802EBC5
:104C58008201A3EB410102E01A0903F00F0102608F
:104C680008467047002140F21002C2F20002535C6D
:104C7800834204BF501870471031402904BF0020F8
:104C88007047F4E7F0B503AF4DF8048D90460D4634
:104C980004460846FFF7E6FF064600F02AF9043600
:104CA80030460068B042FCD100F032F945F080008F
:104CB8002072204641460822FFF78BFCFBF708FBD1
:104CC800054604F10C01304600F007F828465DF867
:104CD800048BBDE8F040FBF7FFBA02685160026838
:104CE8000A60016048607047B0B502AF0446002012
:104CF8002072FBF7EDFA054604F10C0000F005F808
:104D08002846BDE8B040FBF7E7BAD0E900124A6090
:104D1800D0E900121160C0E900007047007AC009AC
:104D28007047B0B502AF41F24840C2F2000000241B
:104D3800048041F2F075C2F20005281900F01CF851
:104D48000834402CF9D141F63400C2F200000021A9
:104D5800016041F63000C2F200000722027041F6FD
:104D68003800C2F20000016041F63C00C2F20000C7
:104D7800BDE8B04000F000B8C0E90000704780B559
:104D88006F4641F63800C2F200000068FFF738FFAE
:104D980041F2F071C2F2000101EBC00050F8080CBA
:104DA800A0F1140141F63402C2F200021160083089
:104DB800BDE88040FBF7D9BAD0B502AFFBF788FA57
:104DC800044641F24840C2F20000008820B1204663
:104DD800BDE8D040FBF780BA41F63800C2F20000C7
:104DE8000068FFF70DFF013841F2F071C2F20001CF
:104DF80051F83010A1F1140341F6340CC2F2000C42
:104E0800DCF800209A42E2D0CCF8003041F63003BA
:104E1800C2F200031870083102F11C0041F2EC7272
:104E2800C2F20002127812B1FBF759FACFE7FBF78A
:104E380056FACCE7B0B502AF0446FBF749FA054687
:104E480094F8340094F8351000F0F000013084F83C
:104E5800340041F2F070C2F2000000EBC10004F12E
:104E6800140100F00DF8A06B41F63801C2F2000100
:104E78000A68104308602846BDE8B040FBF72CBA22
:104E88004268116042684A60416008607047B0B586
:104E980002AF0546FBF71CFA044605F1140000F0C2
:104EA80019F895F8350041F2F071C2F2000101EBF2
:104EB800C00000F018F840B1A86B41F63801C2F202
:104EC80000010A6822EA000008602046BDE8B040F8
:104ED800FBF702BAD0E900124A60D0E9001211606B
:104EE800C0E9000070470168081AB0FA80F040096C
:104EF800704780B56F46FBF7EBF941F24841C2F2C3
:104F080000010A8801320A80BDE88040FBF7E4B955
:104F180080B56F46FBF7DCF941F24841C2F2000167
:104F28000A88013A0A8012B2002AC4BFBDE880404C
:104F3800FBF7D2B900220A80FBF7CEF941F634001C
:104F4800C2F200000068002808BF80BDBDE88040AC
:104F5800FFF732BFB0B502AF41F63400C2F200002D
:104F68000568FBF7B5F904462846FFF790FF0420CB
:104F780085F8340005F1440000F08DF92846FFF764
:104F8800CDFE012804BF286F00280AD005F11400BF
:104F980000F00BF82046FBF79FF9BDE8B040FFF79B
:104FA8000BBF2846FFF7A0FEF4E741F63C01C2F22A
:104FB80000010A6850600260086041607047F0B5FF
:104FC80003AF4DF804BD84B01C4615460A46064694
:104FD8000121FFF757FE7869029038690190F86857
:104FE8000090BB6830462946224600F005F80020AC
:104FF80004B05DF804BBF0BDF0B503AF4DF8048D07
:1050080082B01D4690460E460446143000F01AF948
:10501800BA68C4E90868C4E90A5228462321FFF798
:1050280080FA04F120030FCB1A44043A44F65D7366
:10503800C0F60003FEF7F4FEF96884F83610E06164
:1050480038690022C4E90E20206484F83510C4E9C8
:105058001C2284F834202263CDE9002204F14400A4
:1050680045F22B22C0F600022146234600F0EDF857
:1050780002B05DF8048BF0BD41F63400C2F20000C6
:105088000068704780B56F46022180F8341090F8A8
:10509800361080F83510012202FA01F1816300F020
:1050A80008F8FFF7E9FF002818BFFFF785FE002082
:1050B80080BDB0B502AF044690F8340000F00F0090
:1050C80002281CBF4FF0FF30B0BDFBF701F90546C1
:1050D80004F1140000F03FF804F1440000F03EF938
:1050E8002846FBF7F9F82046FFF7A4FE0020B0BDDC
:1050F800F0B503AF4DF804BDFBF7EAF8044641F6F6
:105108003400C2F20000066896F8340000F00F0080
:10511800012819D1354655F8140F6968884213D00B
:10512800284600F018F896F8350041F2F071C2F2FE
:10513800000101EBC000294600F016F82046FBF7F5
:10514800CBF8FFF739FE02E02046FBF7C5F8002050
:105158005DF804BBF0BDD0E900124A60D0E9001246
:105168001160C0E9000070474268116042684A60F7
:10517800416008607047F0B503AF4DF8048D82B008
:105188000190FBF7A5F8054641F63400C2F200008D
:105198000468204600F01BF804F144064FF00008AC
:1051A80001AA3046002100F0F1F8304600F087F8F7
:1051B8002846FBF791F8FFF7FFFD206B023008BF88
:1051C800C4F83080002002B05DF8048BF0BDB0B5A3
:1051D80002AF044690F8340000F00F0001281CBF0D
:1051E8004FF0FF30B0BDFBF773F8054694F8340074
:1051F80000F0F000023084F834002046FFF747FE44
:1052080004F1440000F0AAF82846FBF765F80020EE
:10521800B0BD80B56F46FFF70EF8FFF7ACFF002072
:1052280080BDD0B502AF04466FF00100206304F1E1
:105238001400FFF790FF2046FFF7FCFDBDE8D040C3
:10524800FFF7BABDC0E900007047F0B503AF4DF8ED
:1052580004BD82B01C4615460A4606460A21FFF7D9
:1052680011FDF8680090BB6830462946224600F0D8
:1052780004F802B05DF804BBF0BD4FF0000CC1614A
:1052880002624362C0F828C0009901F0FE01417231
:10529800143000F0E1B8B0B502AF0446FBF718F8D7
:1052A8000546204600F008F82846FBF715F8204682
:1052B800FFF71AFD0020B0BD143000F0D1B8B0B52A
:1052C80002AF82B00446FBF703F805462046FFF715
:1052D800F3FF607A00F0FE0060722846FAF7FCFFE0
:1052E800FEF788FF616A0844A062FAF7F1FF0546F5
:1052F80041F25041C2F2000101914868884210D041
:105308004868A26AD2434FF6FE73C7F6FF7309686E
:1053180049691144994204D3019909680191884265
:10532800F5D141F24C40C2F2000001680131016040
:10533800019804F1140100F00AF8607A40F00100C5
:1053480060722846FAF7C8FF002002B0B0BD0268B4
:10535800516002680A60016048607047B0B502AFEA
:105368000446407AC00704BF4FF0FF30B0BDFAF7DB
:10537800AFFF05462046FFF79FFF2846FAF7ACFF28
:10538800607A00F0FE0060720020B0BD032913D8D7
:10539800DFE801F002060A0E11684162002070473A
:1053A800406A106000207047417A01F0FD0102E078
:1053B800417A41F00201417200207047F0B503AF15
:1053C8002DE90007FEF716FF0546FAF781FF80462C
:1053D80000F032F848BB41F25049C2F200094FF6DA
:1053E800FE7AC7F6FF7AD9F800406069281A504556
:1053F8001BD8A4F114063046FFF75EFFD4E902106B
:105408008847FEF7F7FE054614F80B0C00F0FE017E
:1054180004F80B1C00F00300032804BF3046FFF714
:105428004EFF00F009F80028DDD04046BDE800072F
:10543800BDE8F040FAF750BF41F25040C2F2000018
:105448000168081AB0FA80F04009704741F25040EC
:10545800C2F2000000F000B8C0E9000070477047D1
:10546800D0E900124A60D0E900121160C0E90000DA
:10547800704780B56F4646F6A610C0F60000FFF7E5
:10548800E7F8002080BD80B56F46FFF7BBF8002025
:1054980080BDF0B503AF2DE9000F91B00CA804ADA5
:1054A80001212A4600F07CF846F6BF10C0F600003D
:1054B80046F6B812C0F600020821FFF7C9F800F056
:1054C80084F846F60320C0F60000FFF7C1F8002074
:1054D8004FF0640946F6792BC0F6000B02E00398FA
:1054E800002858D00CA900F07EF8039010980128E5
:1054F800F5DB4FF0000806E0FAF7EEFE08F10108C8
:1055080010988045EBDA55F828A0FAF7E1FE1AF86A
:10551800041C01F07F019DF838209142ECD1FAF784
:10552800DBFE9AF829000090AAF10C0346F6402009
:10553800C0F6000008210822FFF78AF89AF8280028
:1055480000F00F01042909D840F3030046F6A041F2
:10555800C0F6000151F82000FFF77AF8DAF81C00CD
:10556800013810F8011F2329FBD0DAF83410DAF8D3
:105578001030DAE90762DAF82440CDE90014B118EE
:10558800C91A101A304400FB09F0B0FBF2F3584670
:10559800FFF75EF8B2E7002011B0BDE8000FF0BDDC
:1055A800F0B503AF4DF804BD14460D46064608464F
:1055B800FFF758FB357200210822C6E903210430A1
:1055C800C6E900045DF804BBF0BDB0B502AF6FF0EA
:1055D800070546F60844C0F600042046FFF738F8E9
:1055E8000135FAD3B0BDF0B503AF2DE9000B804605
:1055F80000240C61C86848B30D46087A28B3D5F86A
:105608000090B8F1000F444608BF4C46FAF760FE18
:10561800B8F1000F06D0297A14F8042C02F07F02A2
:105628008A4210D16968002624684C4506D041F8A2
:1056380026400136EA689642F6D100E00024FAF7DF
:105648004BFE2E6102E0FAF747FE00242046BDE833
:10565800000BF0BDF0B503AF2DE9000F93B00EA815
:105668000DF1180802214246FFF79AFF46F6AB20D3
:10567800C0F6000046F6A122C0F600020821FEF797
:10568800E7FFFFF7A2FF46F6C520C0F60000FEF7C9
:10569800DFFF002002E00398002853D00EA9FFF78F
:1056A800A2FF039012980128F5DB4FF0000ADDF8FD
:1056B80048909DF84060CDE9046911E0CDE900B05B
:1056C80046F6EA20C0F60000082108224346FEF705
:1056D800BFFFB046DDE904690AF1010ACA45DADA12
:1056E80058F82A50FAF7F4FD15F8044CFAF7F4FDC7
:1056F80004F07F00B042EFD1464605F10804204689
:1057080000F025F88146B5F810B0A5F10C08204640
:1057180000F023F8B9F1000FD0D1CDE900B046F67A
:10572800DA20C0F60000082108224346FEF790FF61
:10573800204600F01BF846F24560C0F60000FEF770
:1057480087FFC6E7002013B0BDE8000FF0BD016871
:10575800081AB0FA80F04009704701464FF0FF3050
:105768000A46013012688A42FBD17047F0B503AF90
:105778004DF8048D0668864216D0044646F2C57573
:10578800C0F6000546F60A48C0F60008A6F114015E
:105798002846FEF75DFF3068A0421CBF4046FEF772
:1057A80057FF3668A642F1D15DF8048BF0BDF0B51D
:1057B80003AF2DE9000F93B00EA80DF118080521CD
:1057C8004246FFF7EDFE46F60230C0F6000046F608
:1057D800FA22C0F600020821FEF73AFFFFF7F5FEAD
:1057E80046F62330C0F60000FEF732FF002002E044
:1057F8000398002856D00EA9FFF7F5FE03901298DB
:105808000128F5DB4FF0000ADDF848909DF840606C
:10581800CDE9046913E0CDE9006B029046F65530F6
:10582800C0F60000082108224346FEF711FF0DF1DB
:105838001808DDE904690AF1010ACA45D8DA58F8F6
:105848002A50FAF745FD15F8044CFAF745FD04F01F
:105858007F00B042EFD105F108042046FFF777FF3B
:105868008146EE8AB5F814B0A5F10C082046FFF77A
:1058780074FFB9F1000FCED1CDE9006B029046F666
:105888003F30C0F60000082108224346FEF7E0FE3C
:105898002046FFF76BFF46F24560C0F60000FEF7B2
:1058A800D7FEC4E7002013B0BDE8000FF0BDF0B587
:1058B80003AF2DE9000F91B00CA804AD0A212A46C8
:1058C800FFF76EFE46F67130C0F6000046F66B3202
:1058D800C0F600020821FEF7BBFEFFF776FE46F68B
:1058E8009730C0F60000FEF7B3FE002046F6D33628
:1058F800C0F6000601E00398B0B30CA9FFF773FEE9
:10590800039010980128F6DB0024DDF840809DF80C
:10591800389002E001344445EDDA55F824A0FAF74E
:10592800D7FC1AF804BCFAF7D7FC0BF07F004845FF
:10593800F0D1DAE90601CDE90001AAF10C0346F637
:10594800BB30C0F6000008210822FEF781FE1AF8D5
:10595800030CC007304646F6D131C0F6000108BF37
:105968000846FEF775FED5E7FEF744FC014646F605
:10597800DE30C0F60000FEF76BFE002011B0BDE877
:10598800000FF0BDF0B503AF2DE9000B46F6F3307C
:10599800C0F60000FEF75CFE41F25840C2F200007B
:1059A800056841F25C49C2F20009D9F80000854255
:1059B8001AD246F60544C0F6000446F64308C0F677
:1059C800000804E0D9F80000083585420CD22E689A
:1059D80030462146022200F0ADFC0028F2D04046B5
:1059E8003146FEF735FEEDE70020BDE8000BF0BDBF
:1059F80001207047F0B503AF2DE9000B46F6B4401F
:105A0800C0F60000FEF724FE41F25840C2F2000042
:105A1800056841F25C49C2F20009D9F800008542E4
:105A28001AD246F6CF44C0F6000446F6D648C0F669
:105A3800000804E0D9F80000083585420CD22E6829
:105A480030462146062200F075FC0028F2D1B11D2F
:105A58004046FEF7FDFDEDE746F24560C0F6000062
:105A6800FEF7F6FD0020BDE8000BF0BD80B56F46DF
:105A7800FFF70FFD002080BDD0B502AF82B004460D
:105A88002078202818BF092802D101390134F7E706
:105A9800002902BF002002B0D0BD01AA204600F0B4
:105AA80018F8002802BF019802B0D0BDA01E817866
:105AB800013011F0DF0FFAD10021417046F6DA40CB
:105AC800C0F600002146FEF7C3FD4FF0FF3002B0DC
