:020000040800F2
:1000000000000220C9160008511600081917000840
:100010005316000855160008571600080000000087
:100020000000000000000000000000005916000859
:100030005B160008000000005D160008090E0008AD
:1000400019170008191700081917000819170008D0
:1000500019170008191700081917000819170008C0
:1000600019170008191700081917000819170008B0
:1000700019170008191700081917000819170008A0
:100080001917000819170008191700081917000890
:100090001917000819170008191700081917000880
:1000A0001917000819170008191700081917000870
:1000B000210F000819170008191700081917000860
:1000C0001917000819170008191700081917000850
:1000D0001917000819140008191700082914000836
:1000E0001917000819170008000000001917000868
:1000F0001917000819170008191700081917000820
:10010000191700081917000819170008191700080F
:1001100019170008191700081917000819170008FF
:1001200019170008191700081917000819170008EF
:1001300019170008191700081917000819170008DF
:1001400000000000000000000000000000000000AF
:1001500019170008191700081917000819170008BF
:1001600019170008191700081917000819170008AF
:1001700019170008191700081917000800000000D7
:10018000191700081917000819170008191700088F
:10019000191700081917000819170008191700087F
:1001A000191700081917000819170008191700086F
:1001B000191700081917000819170008191700085F
:1001C000191700081917000819170008191700084F
:1001D000191700081917000819170008191700083F
:1001E000191700081917000819170008191700082F
:1001F000191700081917000819170008191700081F
:10020000191700081917000819170008191700080E
:1002100019170008191700081917000819170008FE
:100220001917000819170008191700080000000026
:100230001917000819170008000000001917000816
:1002400019170008191700081917000819170008CE
:1002500019170008191700081917000819170008BE
:1002600019170008191700081917000819170008AE
:1002700019170008191700081917000800000000D6
:1002800019170008191700081917000800000000C6
:0802900000000000191700082E
:1002A00010B5054C237833B9044B13B10448AFF3B0
:1002B00000800123237010BD7400002000000000A6
:1002C000F054000808B5034B1BB103490348AFF3D2
:1002D000008008BD0000000078000020F0540008F5
:1002E00053B94AB9002908BF00281CBF4FF0FF319D
:1002F0004FF0FF3000F074B9ADF1080C6DE904CE99
:1003000000F006F8DDF804E0DDE9022304B07047F0
:100310002DE9F047089E04468846002B40F0858072
:100320008A42154648D9B2FA82F24AB1C2F1200790
:1003300001FA02F320FA07F7954047EA03089440D0
:100340004FEA154E230CB8FBFEF71FFA85FC0EFB97
:10035000178843EA084307FB0CF1994209D9EB18C7
:1003600007F1FF3080F0E380994240F2E080023FE5
:100370002B445B1AA4B2B3FBFEF00EFB103344EA2D
:10038000034400FB0CFCA44509D92C1900F1FF33F0
:1003900080F0CB80A44540F2C88002382C4440EA6B
:1003A0000740A4EB0C0400271EB1D4400023C6E98B
:1003B00000433946BDE8F087002A53D0B2FA82F2F2
:1003C000002A40F0B680491B4FEA154E1FFA85F807
:1003D0000127B1FBFEFC230C0EFB1C1143EA014379
:1003E00008FB0CF1994207D9EB180CF1FF3002D24F
:1003F000994200F2EC808446591AA3B2B1FBFEF098
:100400000EFB101443EA044408FB00F8A04507D98A
:100410002C1900F1FF3302D2A04500F2DC8018460F
:10042000A4EB080440EA0C40BEE78B4208D9002E3A
:1004300078D00027C6E9000138463946BDE8F08784
:10044000B3FA83F77FB98B4202D3824200F2BD80B8
:10045000841A61EB030301209846002EA9D0C6E957
:100460000048A6E7FFDEC7F12005BB4022FA05FCE5
:100470004CEA030C01FA07F420FA05F821FA05F317
:100480004FEA1C4E48EA0404B3FBFEF9210C0EFBB4
:1004900019331FFA8CF841EA034309FB08FA9A451D
:1004A00002FA07F200FA07F10BD91CEB030309F17A
:1004B000FF3080F088809A4540F28580A9F10209DA
:1004C0006344A3EB0A03A4B2B3FBFEF00EFB1033AC
:1004D00044EA034400FB08F8A04508D91CEB0404D7
:1004E00000F1FF336BD2A04569D90238644440EA79
:1004F0000940A4EB0804A0FB02894C45C6464B46C4
:1005000054D351D0002E69D0B1EB0E0264EB03043A
:1005100004FA05F522FA07F3FC401D43C6E900542E
:10052000002746E73746304643E7184637E7074691
:100530001FE7C2F1200320FA03F7954001FA02F009
:1005400021FA03F34FEA154E3843010CB3FBFEF7D3
:100550001FFA85F80EFB173341EA034107FB08F346
:100560008B4204FA02F407D9691807F1FF3C28D23C
:100570008B4226D9023F2944CB1A81B2B3FBFEF04D
:100580000EFB103341EA034100FB08F38B4207D90D
:10059000691800F1FF3C10D28B420ED90238294471
:1005A000C91A40EA074714E74145ABD2B8EB020E3F
:1005B00069EB0C0201381346A4E76046F0E71846E1
:1005C00095E76746D8E781467BE7384645E7ACF1D3
:1005D000020C2B4410E702382C4421E73746E8E6AA
:1005E000704700BF00000000000000000000000095
:1005F00001F0FF01102A2BDB10F0070F08D010F8D4
:10060000013B013A8B422DD010F0070F42B3F6D1D7
:10061000F0B441EA012141EA014122F007047FF0F0
:1006200000070023F0E80256083C85EA010586EA47
:10063000010685FA47F5A3FA87F586FA47F6A5FA83
:1006400087F68EB9EED1F0BC01F0FF0102F007028F
:1006500032B110F8013B013A83EA010313B1F8D13A
:100660000020704701387047002D06BF354603381B
:10067000073815F0010F07D1013015F4807F02BF54
:10068000013015F4C03F0130F0BC0138704700BFA5
:1006900070B50D4D0D4C641BA4100026A64209D167
:1006A0000B4D0C4C04F024FF641BA4100026A64242
:1006B00005D170BD55F8043B98470136EEE755F873
:1006C000043B98470136F2E7845800088458000834
:1006D000845800088858000802440346934200D119
:1006E000704703F8011BF9E710B58CB0394BD3F80C
:1006F000E02042F00802C3F8E020D3F8E02002F046
:1007000008020192019AD3F8E02042F01002C3F8E7
:10071000E020D3F8E02002F010020292029AD3F80F
:10072000E02042F04002C3F8E020D3F8E02002F0DD
:1007300040020392039AD3F8E02042F08002C3F80B
:10074000E020D3F8E02002F080020492049AD3F86B
:10075000E02042F48072C3F8E020D3F8E02002F4F5
:1007600080720592059AD3F8D42042F48052C3F8DF
:10077000D420D3F8D43003F480530693069B02238D
:1007800008930123099303240A940C230B934CF23E
:10079000B373079307A9104801F074F84FF68073FC
:1007A000079307A90D4801F06DF8079407A90C48B5
:1007B00001F068F84FF47F43079307A9094801F057
:1007C00061F840F2CF63079307A9074801F05AF890
:1007D0000CB010BD00440258000C02580010025822
:1007E00000180258001C02580020025800B59BB0A7
:1007F0004422002109A8FFF76FFF00230693114B45
:10080000079303F582730893052300930223019352
:100810000293012203920493059320230C934FF437
:10082000805310936A46694607A802F0B3F810B9DE
:100830001BB05DF804FB4FF49271034800F07EFE9C
:10084000F6E700BF004000523455000808B5FFF736
:100850004BFFFFF7CBFF044B40F614721A601A6887
:10086000024B1A6008BD00BFFC11002000100060A0
:1008700049B9074A136823EA00031360044B1A6856
:10088000044B1A607047024A136803431360F5E78C
:10089000FC11002000100060034B1B68034201D0D4
:1008A0000120704700207047FC1100200A4B53F8CC
:1008B0003020126903EBC0039B881A4208D1002242
:1008C000054B03EBC0039B79934203D00020704794
:1008D0000122F5E70120704758550008F8B5064693
:1008E000072812D908281AD0092825D00020F8BDD9
:1008F0000134E4B2072C0CD82046FFF7D7FF0028BC
:10090000F6D00135EDB22746F2E7FF2700252C4649
:10091000F0E7012D08BFB7421BD10120E7E7002017
:10092000FFF7C4FF08B90020E1E70120FFF7BEFF91
:100930000028F8D00120DAE70120FFF7B7FF08B957
:100940000020D4E70220FFF7B1FF0028F8D00120F3
:10095000CDE70020CBE7000010B58AB0294BD3F8D3
:10096000E02042F00202C3F8E020D3F8E02002F0D9
:1009700002020092009AD3F8E02042F00402C3F889
:10098000E020D3F8E02002F004020192019AD3F8AB
:10099000E02042F04002C3F8E020D3F8E02002F06B
:1009A00040020292029AD3F8E02042F08002C3F89B
:1009B000E020D3F8E02002F080020392039AD3F8FB
:1009C000E02042F48072C3F8E020D3F8E03003F472
:1009D00080730493049B00240694079403230893D4
:1009E0000BE0094B03EBC4029288059205A953F86A
:1009F000340000F047FF0134E4B2072CF1D90AB00B
:100A000010BD00BF0044025858550008054AD37A6B
:100A1000D0540133DBB2D372092B02D91346002222
:100A2000DA7270473001002010B50446FFF756FF18
:100A3000002854D03F4B03EB04131B79042B05D83B
:100A40003C4B03EB04140523237159E0092B05D813
:100A5000384A02EB04140133237151E0354B03EBA8
:100A600004139B7AD3B1334B03EB04131B89002B84
:100A700046D0304A02EB0412D28893421AD901328E
:100A800092B22C4901EB0411CA80934238D101344F
:100A900004EB4404E0B2FFF7B9FF31E0254B03EB70
:100AA000041301229A7204EB44001044C0B2FFF711
:100AB000ADFFD8E71F4B03EB0413DA7A02B31946F4
:100AC0001B7B0133DBB20B739A4219D800220A73E5
:100AD00004EB4404601CC0B2FFF798FF10E0154B14
:100AE00003EB04131B79052B0BD9124B03EB0413F7
:100AF00005221A710F4B03EB04140023E3802373C8
:100B000010BD2BB10B4A02EB0412013B1371F1E74C
:100B1000084B03EB04139B7A012BEBD1054B03EB42
:100B2000041300229A7204EB44000230C0B2FFF7B3
:100B30006DFFDFE790000020034B03EB0010018105
:100B4000C2720023037370479000002008B5154B54
:100B500000229A72DA721A73092A0DD8124B03EB2B
:100B60000213642119810221197100219972D9722D
:100B700019730132D2B2EFE7062264210320FFF796
:100B8000DBFF062264210420FFF7D6FF0622642142
:100B90000520FFF7D1FF062264211046FFF7CCFFA6
:100BA00008BD00BF300100209000002008B5FFF70D
:100BB000CDFFFFF7D1FE08BD10B50024092C05D8E4
:100BC0002046FFF731FF0134E4B2F7E710BD08B566
:100BD000012806D002280AD003280ED0042812D0FB
:100BE00008BD00214FF48070FFF742FEF8E70021B6
:100BF0004FF40070FFF73CFEF2E700214FF48060F5
:100C0000FFF736FEECE700214FF40060FFF730FEFF
:100C1000E6E708B5012806D002280AD003280ED03E
:100C2000042812D008BD01214FF48070FFF720FE88
:100C3000F8E701214FF40070FFF71AFEF2E70121F7
:100C40004FF48060FFF714FEECE701214FF40060E1
:100C5000FFF70EFEE6E708B50120FFF7DAFF0220F6
:100C6000FFF7D7FF0320FFF7D4FF0420FFF7D1FFE2
:100C700008BD10B5012808D0022809D0032812D0D9
:100C800004280FD14FF4006404E04FF4807401E0B5
:100C90004FF400742046FFF7FFFD38B100212046D5
:100CA000FFF7E6FD10BD4FF48064F3E70121204615
:100CB000FFF7DEFDF6E743684BB14368013B436055
:100CC0002BB9012343700378DBB2012B00D07047AE
:100CD00083684360FBE7000010B51A4B1B683BB10B
:100CE000184A1368013B136013B9174B01221A709D
:100CF000002408E004EB4402930014481844FFF772
:100D0000DAFF0134E4B2032CF4D9114B1A68013232
:100D10001A601A686FF000439A4209D000F096FCFE
:100D20000C4A13780133DBB21370092B04D810BDC1
:100D3000074B00221A60F1E7134600221A7000F0F8
:100D400081FCF4E7900100208C0100205C01002070
:100D50004001002058010020B8B108B50346012821
:100D600011D0012282F31088084A13600023084A38
:100D7000137083F3108800F06AFC054B1B78DBB21C
:100D8000012BF8D108BD0223EBE77047900100204A
:100D90008C01002070B5032811D8012585F3108837
:100DA0000A4C00FA05F21618B3001E462344596097
:100DB000996000215970A55581F3108870BD044ACF
:100DC0000449054803F09EFBFEE700BF5C010020DC
:100DD00098550008AC550008CC55000803280FD8DA
:100DE00000EB40029100074A0A445078C0B2012843
:100DF00001D000207047034B0B4400225A7070470B
:100E0000002070475C01002008B503F04DF9034B4A
:100E10001B7803B908BDFFF75FFFFBE74401002023
:100E200000B593B03822002104A8FFF755FC1B4BF6
:100E3000D3F8E82042F00102C3F8E820D3F8E83004
:100E400003F001030193019B154B1B68154AA2FB9C
:100E50000323DB0C013B9BB24FF0804202920393D1
:100E60004FF0FF3305938023089302A802F042FB62
:100E700068B9022200211C2000F062FC1C2000F056
:100E800091FC02A802F0A7FA13B05DF804FB4FF43E
:100E90000C71054800F052FBEBE700BF004402581C
:100EA0006400002083DE1B43AC55000810B500230E
:100EB0000DE0154C5900C8188200224400205060F3
:100EC00090605070CA18910060540133DBB2032B5C
:100ED000EFD90E4B1B680E4AA2FB03239B09013B73
:100EE000B3F1807F09D20B4A53600B4BF02183F89A
:100EF00023100023936007231360084B01221A700C
:100F0000FFF78EFF10BD00BF5C01002064000020D1
:100F1000D34D621010E000E000ED00E0440100203D
:100F200008B54FF080431A69DB68C2F34002C3F38F
:100F300040031A420AD04FF080434FF6FD71196109
:100F4000DA680A40DA60214B1B6898474FF080430B
:100F50001A69DB68C2F38002C3F380031A420AD025
:100F60004FF080434FF6FB711961DA680A40DA608E
:100F7000174B1B6898474FF080431A69DB68C2F330
:100F8000C002C3F3C0031A420AD04FF080434FF6A9
:100F9000F7711961DA680A40DA600E4B1B689847EE
:100FA0004FF080431A69DB68C2F30012C3F30013E9
:100FB0001A420AD04FF080434FF6EF711961DA6898
:100FC0000A40DA60044B1B68984708BD48010020BE
:100FD0004C0100205001002054010020014B04224C
:100FE0001A83704700040258014B04225A83704749
:100FF0000004025870470000174A184B1360184B42
:101000005360184B93604FF480619181D18100232C
:1010100013825382D382138353839382D3611362E7
:10102000536282F82830104A10481060104850600F
:10103000104890609181D18113825382D3821383AF
:10104000538393820C49D1610C4911620C4951625E
:1010500082F82830704700BF941100200010014032
:101060009409002094010020C01100200048004095
:10107000940D002094050020DD0F0008E90F000802
:10108000F50F000870B504460368DD691E689A68AC
:1010900015F0200F19D0988CC0B2A268E38A9BB2D9
:1010A000D054E38A01339BB2E382E289934201D3B5
:1010B0000023E382638B9BB29A4203D9638B013393
:1010C0009BB26383636A03B1984715F0800F10D019
:1010D00016F0800F0DD0A38A9BB2002B56D1226848
:1010E000136823F0800313602268136843F0400301
:1010F000136015F0400F11D016F0400F0ED0A38AE8
:101100009BB2002B59D12268136823F0400313606F
:10111000236A03B19847002384F828302268136AB1
:1011200043F0010313622268136A43F0020313625F
:101130002268136A43F0040313622268136A43F0BF
:10114000080313622268136A43F0100313622268D3
:10115000136A43F0400313622268136A43F48073F6
:1011600013622268136A43F4007313622268136ADD
:1011700043F4003313622268136A43F4801313624A
:101180002268136A43F02003136270BD012384F8C0
:1011900028306168638A9BB22268CB5C1385638ABE
:1011A00001339BB26382A289934201D300236382FD
:1011B000A38A013B9BB2A3829BE76168638A9BB2CF
:1011C0002268CB5C1385638A01339BB26382A28958
:1011D000934201D300236382A38A013B9BB2A38283
:1011E0009CE7000000B587B00E4BD3F8E02042F03A
:1011F0000202C3F8E020D3F8E03003F002030093CA
:10120000009B0123029300230393032304930423ED
:1012100001930DEB0301044800F034FB07B05DF8C7
:1012200004FB00BF004402580004025800B5A1B0FE
:10123000009001910021029103910492069105937F
:101240000791089109910A910B910C910D916846B3
:1012500002F0C0FE10B921B05DF804FB40F22A3163
:10126000014800F06BF9F6E7EC5500082DE9F04F66
:10127000BBB04FF00108CDF818800026249606A8D0
:1012800000F0DEFC5D4CD4F8E03043EA0803C4F81B
:10129000E030D4F8E03003EA08030093009BD4F870
:1012A000E03043EA0803C4F8E030D4F8E03003EA61
:1012B00008030193019BD4F8F03043F01003C4F805
:1012C000F030D4F8F03003F010030293029B4FF497
:1012D000007335934FF0020ACDF8D8A0CDF8DC802A
:1012E0004FF00309CDF8E09007273997444D35A911
:1012F000284600F0C7FA4FF4806BCDF8D4B0399788
:1013000035A9284600F0BEFA42463146252000F0B5
:1013100017FA252000F046FA05F16845A5F5704555
:101320000C2332464FF4E1312846FFF77FFF2B6A4A
:1013300043F040032B622B8B43F008032B832B6875
:1013400043F020032B60D4F8E03043EA0A03C4F8EA
:10135000E030D4F8E03003EA0A030393039BD4F8A7
:10136000E03043EA0A03C4F8E030D4F8E03003EA9E
:101370000A030493049BD4F8E83043F48023C4F8B0
:10138000E830D4F8E83003F480230593059BCDF8CA
:10139000D4B0CDF8D8A0CDF8DC80CDF8E090399766
:1013A000A4F5804435A9204600F06CFA4FF40063A0
:1013B0003593399735A9204600F064FA4A463146FC
:1013C000272000F0BDF9272000F0ECF90D4C0C238C
:1013D00032464FF416512046FFF728FF236A43F0A8
:1013E00040032362238B43F008032383236843F0E5
:1013F000200323603BB0BDE8F08F00BF00440258DB
:10140000000002580048004008B5FFF7F5FDFFF75F
:101410002DFFFFF7E7FE08BD08B50248FFF732FED3
:1014200008BD00BF9411002008B50248FFF72AFE4E
:1014300008BD00BFC011002010B4BFF34F8FBFF331
:101440006F8F1C4B0021C3F85012BFF34F8FBFF3B7
:101450006F8F5A6942F400325A61BFF34F8FBFF366
:101460006F8FC3F88410BFF34F8FD3F88000C0F3A1
:101470004E320FE0194643F6E07303EA421343EAA3
:1014800081730C4CC4F860324B1E0029F2D1531EFC
:101490001AB11A46C0F3C901EDE7BFF34F8F636974
:1014A00043F480336361BFF34F8FBFF36F8F5DF8F9
:1014B000044B704700ED00E070B584B000F096F981
:1014C00001258DF800504FF01053019312238DF831
:1014D000083003268DF80B608DF80F508DF80E50F4
:1014E00000248DF80D408DF801408DF80A508DF8DC
:1014F00009408DF80C40684600F09AF98DF80050CC
:101500004FF0C04301930F238DF808308DF80B6026
:101510008DF80F508DF80E408DF80D408DF801506C
:101520008DF80A408DF809408DF80C40684600F0AF
:101530007FF9042000F06AF904B070BD01B1FEE744
:101540007047000000B59FB0314BDA6822F004020A
:10155000DA60002201929A6942F440429A619B69E2
:1015600003F440430193019B294B9B6913F4005FF3
:10157000FAD0012303934FF48033049300220692A0
:101580000A9202230C930D9305210E91A0210F9135
:10159000109312930423119314920823139303A816
:1015A00001F028FA48BB3F23169303231793002327
:1015B00018930823199340231A931B934FF48062C6
:1015C0001C921D93042116A801F0C4FDD0B9114B43
:1015D0001A6842F080021A60D3F8F42042F0020246
:1015E000C3F8F420D3F8F43003F002030293029B13
:1015F00002F06CFD1FB05DF804FB8C210648FFF77C
:101600009DFFD0E7A7210448FFF798FFDFE700BF61
:1016100000480258004402581056000808B5FFF769
:101620004BFFFFF709FF02F02FFDFFF78BFFFFF7DE
:10163000BDFAFFF73BFCFFF7E7FEFFF707F9FFF7FF
:101640000AFB08BD08B5FFF7B7FA08BD7047704739
:101650007047FEE7FEE7FEE77047704770470000FF
:1016600010B41549D1F8883043F47003C1F88830BC
:10167000124B1A6842F001021A6000221A611C68BB
:101680000F48204018609A61DA611A629A62DA6241
:101690001A635A639A63DA631A645A64186820F406
:1016A000802018601A66074B01221A604FF0006311
:1016B0008B605DF8044B704700ED00E00044025879
:1016C0007FEDF6EA08810051DFF834D0002103E015
:1016D0000C4B5B58435004310B480C4B42189A4258
:1016E000F6D30B4A02E0002342F8043B094B9A422E
:1016F000F9D3FFF7B5FFFEF7CBFF02F04FFE7047BF
:10170000000002208C580008000000207400002017
:101710007400002010120020FEE700000649CB688C
:1017200023F4E0631B041B0C000200F4E06003439D
:10173000024A1A43CA60704700ED00E00000FA0553
:1017400030B4154BDB68C3F30223C3F10704042C48
:1017500028BF04241D1D062D01D9033B00E00023F2
:101760004FF0FF3505FA04F421EA0401994005FA27
:1017700003F322EA03031943002805DB0901C9B278
:10178000064B195430BC704700F00F000901C9B274
:10179000034B1954F6E700BF00ED00E000E400E061
:1017A00014ED00E0002807DB00F01F0240090123D0
:1017B0009340024A42F82030704700BF00E100E049
:1017C0000138B0F1807F0AD2064B5860064AF021FA
:1017D00082F823100020986007221A6070470120C9
:1017E000704700BF10E000E000ED00E0BFF35F8F46
:1017F000044A536A23F480335362034B00225A6035
:10180000704700BF00ED00E090ED00E040F0010007
:10181000054B5860054A536A43F480335362BFF363
:101820004F8FBFF36F8F704790ED00E000ED00E049
:101830004278134B9A600378EBB14368104AD36047
:10184000017BC37A1B0643EA0173817A43EAC143F1
:10185000417B43EA8143817B43EA4143C17B43EAC5
:101860000143417A43EA0123017A43EA41030178C3
:101870000B4313617047024B0022DA601A61704714
:1018800090ED00E000230F2B00F2E980F0B482B06D
:101890003DE0092200E00022B2403A430234704E9B
:1018A00046F824206F4A1468EA4302EA04064F68A7
:1018B00017F4803F01D045EA04066A4C266066684A
:1018C00002EA06044F6817F4003F01D045EA060417
:1018D000644E74604FF0B044246802EA04064F6816
:1018E00017F4801F01D045EA04064FF0B04426608B
:1018F000646822404E6816F4001F01D045EA0402D5
:101900004FF0B044626001330F2B00F2A58001223A
:101910009A400C6804EA0205AA42F4D14C68122CE1
:1019200018BF022C10D1DE08083650F826C003F08C
:101930000704A7000F24BC402CEA040C0C69BC402F
:1019400044EA0C0440F8264004685F000326BE40C9
:10195000F64306EA040C4C6804F00304BC4044EA75
:101960000C0404604C6804F1FF3C112C18BFBCF15E
:10197000010F01D9122C11D1846806EA040CCC683D
:10198000BC4044EA0C048460446824EA020C4C68BD
:10199000C4F300129A4042EA0C024260C268164048
:1019A0008A68BA403243C2604A6812F0805FAAD0A7
:1019B0002D4AD2F8F44044F00204C2F8F440D2F8C0
:1019C000F42002F002020192019A9C08A61C244A0B
:1019D00052F8267003F0030296000F22B24027EA65
:1019E0000207224A90423FF456AF02F580629042CD
:1019F00022D002F58062904220D002F580629042AF
:101A00001ED002F5806290421CD002F580629042A6
:101A10001AD002F58062904218D002F5806290429E
:101A200016D002F58062904214D002F58062904296
:101A30003FF42FAF0A222FE701222DE702222BE7E6
:101A4000032229E7042227E7052225E7062223E7C8
:101A5000072221E708221FE702B0F0BC7047704759
:101A6000000400588000005800440258000002584A
:101A7000384B9B6A03F00303032B69D070B50E4605
:101A80000546344A136823F08063136002F018FBA4
:101A90000446304B1B6813F0006F06D002F010FBB9
:101AA000001B0228F5D9032070BD2A4A936A23F44B
:101AB0007C33296843EA013393626B68013BC3F3CB
:101AC0000803A9680139490289B20B43E968013961
:101AD000090401F4FE010B4329690139090601F0EB
:101AE000FE410B439363D36A23F0C00369690B4340
:101AF000D362D36A23F02003A9690B43D362BEB932
:101B0000D36A43F40023D362124A136843F080631C
:101B1000136002F0D5FA04460E4B1B6813F0006FF9
:101B200014D102F0CDFA001B0228F5D90320BBE73F
:101B3000012E05D0074AD36A43F40013D362E3E7CA
:101B4000044AD36A43F48013D362DDE70020ABE795
:101B50000120704700440258384B9B6A03F003038E
:101B6000032B69D070B50E460546344A136823F03E
:101B70008053136002F0A4FA0446304B1B6813F044
:101B8000005F06D002F09CFA001B0228F5D9032062
:101B900070BD2A4A936A23F07C73296843EA015393
:101BA00093626B68013BC3F30803A96801394902DA
:101BB00089B20B43E9680139090401F4FE010B43C2
:101BC00029690139090601F0FE410B431364D36A08
:101BD00023F4406369690B43D362D36A23F400732F
:101BE000A9690B43D362BEB9D36A43F48003D362BD
:101BF000124A136843F08053136002F061FA0446FE
:101C00000E4B1B6813F0005F14D102F059FA001B51
:101C10000228F5D90320BBE7012E05D0074AD36A75
:101C200043F08073D362E3E7044AD36A43F40003CA
:101C3000D362DDE70020ABE7012070470044025883
:101C4000F8B50446036813F0006F31D0436EB3F566
:101C5000801F1ED00FD9B3F5001F23D0B3F5401F4E
:101C600014D10026A84A136D23F44013616E0B4370
:101C7000136500251EE033B9A34AD36A43F4003349
:101C8000D3620026EEE701252E4613E001252E46FD
:101C900010E002210430FFF7EBFE0646002EE1D0F3
:101CA000354607E002212430FFF756FF0646F5E7E8
:101CB00000252E46236813F4807F25D0636D042B06
:101CC0001FD8DFE803F00311170808008E4AD36A13
:101CD00043F40033D362AEB98B4A136D23F007038C
:101CE000616D0B4313650FE00021201DFFF7C0FE5F
:101CF0000646F0E7002104F12400FFF72DFF064619
:101D0000E9E701263543EDB2236813F4007F16D0CE
:101D1000A36D802B37D00AD833B3402B05D10021D7
:101D2000201DFFF7A5FE064623E0012605E0C02B97
:101D30001FD0B3F5807F1CD001263543EDB2236858
:101D400013F4806F31D0D4F8A430B3F5800F51D0A4
:101D500022D8002B3ED0B3F5001F1BD10021201D3F
:101D6000FFF786FE06463AE0674AD36A43F400333B
:101D7000D362002EE1D1644A136D23F4E073A16DA8
:101D80000B431365DBE7002104F12400FFF7E4FEB9
:101D90000646EEE7012606E0B3F5C00F1FD0B3F507
:101DA000000F1CD001263543EDB2236813F4006FF9
:101DB00032D0D4F8A830B3F1007F4BD023D8002B19
:101DC00038D0B3F1807F1CD10021201DFFF750FED9
:101DD000064634E04C4AD36A43F40033D362002E03
:101DE000E1D1494A936D23F46003D4F8A4100B4366
:101DF0009365DAE7002104F12400FFF7ADFE064603
:101E0000EDE7012606E0B3F1407F18D0B3F1806F13
:101E100015D001263543EDB2236813F0007F24D09E
:101E2000A36C102B35D01CD9202B41D0302B35D0B2
:101E3000012618E0344AD36A43F40033D362002EFB
:101E4000E8D1314A936D23F0E063D4F8A8100B4336
:101E50009365E1E7002104F12400FFF77DFE0646CB
:101E6000EDE7DBB101263543EDB2236813F4805F63
:101E70002FD0E36DB3F5005F57D021D8002B45D0AC
:101E8000B3F5805F1AD10021201DFFF7F1FD064652
:101E900041E01D4AD36A43F40033D362002EE2D1FD
:101EA000194AD36C23F03003A16C0B43D364DCE7F5
:101EB0000221201DFFF7DCFD0646EFE7012606E0C4
:101EC000B3F5405F27D0B3F5804F24D001263543CA
:101ED000EDB2236813F4005F3CD0236EB3F5003FEE
:101EE00055D02BD83BB1B3F5803F25D10121201D22
:101EF000FFF7BEFD06465EBB034A136D23F4E023E5
:101F0000216E0B43136525E000440258964AD36ABC
:101F100043F40033D362002ED9D1934A136D23F4D6
:101F2000E043E16D0B431365D3E7002104F1240086
:101F3000FFF712FE0646EEE7012609E0B3F5802F13
:101F4000D9D0B3F5A02FD6D0B3F5403FD3D00126DA
:101F50003543EDB2236813F4804F2DD0D4F8AC3064
:101F6000B3F1005F42D01BD83BB1B3F1805F15D114
:101F70000121201DFFF77CFD0646DEB97A4A936DEC
:101F800023F0E043D4F8AC100B43936514E0012137
:101F900004F12400FFF7E0FD0646ACE7012609E066
:101FA000B3F1804FE9D0B3F1A04FE6D0B3F1405F79
:101FB000E3D001263543EDB2236813F4004F0AD075
:101FC000E36EB3F1805F18D0B3F1005F24D0CBB1E2
:101FD00001263543EDB2236813F0807F39D0636C5E
:101FE000032B33D8DFE803F0231E2C23012104F157
:101FF0002400FFF7B1FD0646BFE75B4AD36A43F40E
:102000000033D362002EE4D1574A136D23F04053BE
:10201000E16E0B431365DEE70121201DFFF728FD6C
:102020000646EFE7504AD36A43F40033D36276B9E9
:102030004D4AD36C23F00303616C0B43D36408E077
:102040000221201DFFF714FD0646F0E70126354367
:10205000EDB2236813F4800F1FD1236813F0010F32
:1020600000F0A080A36F282B00F29980DFE803F036
:102070008797979797979797829797979797979715
:1020800090979797979797978797979797979797F7
:1020900087979797979797978700344A136843F4E1
:1020A0008073136002F00CF80746304B1B6813F482
:1020B000807F05D102F004F8C01B6428F5D90326FF
:1020C000002E4DD1284B1B6FD4F8B020534013F491
:1020D000407F0CD0244B1A6F22F44072196F41F4E8
:1020E00080311967196F21F4803119671A67D4F8A4
:1020F000B030B3F5807F15D07EBBD4F8B03003F498
:102100004072B2F5407F1ED0174A136923F47C5306
:10211000136115490B6FD4F8B020C2F30B021343BF
:102120000B679AE701F0CCFF07460F4B1B6F13F0CC
:10213000020FE1D101F0C4FFC01B41F28833984285
:10214000F3D90326D8E70848026922F47C520849EB
:1021500001EA131313430361DBE73543EDB27CE778
:102160003543EDB279E700BF0044025800480258F9
:10217000CFFFFF000121201DFFF77AFC06467EB944
:10218000AC4A536D23F03803A16F0B43536509E04C
:10219000012104F12400FFF7DFFC0646EFE70126EA
:1021A0003543EDB2236813F0020F1FD0636F052B88
:1021B00019D8DFE803F00803110808080121201DE1
:1021C000FFF756FC06467EB99A4A536D23F0070383
:1021D000616F0B43536509E0012104F12400FFF70F
:1021E000BBFC0646EFE701263543EDB2236813F04A
:1021F000040F21D0D4F89030052B1AD8DFE803F073
:102200000803120808080121201DFFF731FC0646CB
:1022100086B9884A936D23F00703D4F890100B43D6
:10222000936509E0012104F12400FFF795FC0646BF
:10223000EEE701263543EDB2236813F0200F26D0D8
:10224000D4F88C30B3F1005F3ED014D83BB1B3F179
:10225000805F0ED10021201DFFF70AFC0646A6B9BB
:10226000744A536D23F0E043D4F88C100B4353654C
:102270000DE0012609E0B3F1804FF0D0B3F1A04F9B
:10228000EDD0B3F1405FEAD001263543EDB22368CB
:1022900013F0400F2DD0D4F89830B3F5006F46D02E
:1022A0001BD83BB1B3F5806F15D10021201DFFF77E
:1022B000DFFB0646DEB95F4A936D23F4E053D4F8A2
:1022C00098100B43936514E0022104F12400FFF7FA
:1022D00043FC0646C3E7012609E0B3F5805FE9D079
:1022E000B3F5A05FE6D0B3F5406FE3D001263543E8
:1022F000EDB2236813F0800F2ED0D4F89C30B3F5E4
:10230000804F00F08F801BD83BB1B3F5005F15D133
:102310000021201DFFF7ACFB0646DEB9454A936D50
:1023200023F46043D4F89C100B43936514E002211E
:1023300004F12400FFF710FC0646BBE7012609E084
:10234000B3F5004FE9D0B3F5204FE6D0B3F5C04F59
:10235000E3D001263543EDB2236813F0080F0AD00D
:10236000D4F88030B3F5805F66D032494A6D22F4EC
:10237000405213434B65236813F0100F0AD0D4F872
:102380009430B3F5807F5FD02A498A6D22F4407281
:1023900013438B65236813F4002F0CD0D4F8A030BE
:1023A000B3F5803F68D0B3F5003F5AD0002B53D02F
:1023B00001263543EDB2236813F4802F0DD0D4F8F5
:1023C0008430B3F5001F6ED0B3F5401F60D0B3F575
:1023D000801F58D001263543EDB2236813F4803FA7
:1023E00008D0E36C002B65D0B3F5803F71D0012697
:1023F0003543EDB2236813F0005F70D1236813F406
:10240000003F79D0E36FB3F5807F00F0AC806ED9E8
:10241000B3F5007F00F0AC80B3F5407F00F0A880FA
:10242000012667E0022104F12400FFF795FB064630
:1024300073E700BF00440258022104F12400FFF7B3
:102440008BFB0543EDB296E7022104F12400FFF770
:1024500083FB0543EDB29DE70021201DFFF708FB3C
:102460000646002EA5D14B4A936D23F44033D4F891
:10247000A0100B4393659EE7022104F12400FFF7AF
:102480006BFB0646EDE7434AD36A43F40033D3625D
:10249000002EA0D13F4A536D23F44013D4F884108A
:1024A0000B43536599E7012104F12400FFF754FB26
:1024B0000646EDE7374AD36A43F40033D362002E71
:1024C00096D1344AD36C23F48033E16C0B43D3644C
:1024D00090E70221201DFFF7CBFA0646EFE7022125
:1024E00004F12400FFF738FB0543EDB286E7002B2B
:1024F0003ED001263543EDB2236813F4801F06D089
:10250000244A136D23F00043216F0B4313652368A6
:1025100013F0805F07D01F4A136923F48043D4F877
:10252000B4100B431361236813F4001F06D0194A3B
:10253000136D23F08073A16E0B431365236813F0B2
:10254000804F09D0134B1A6922F400421A611A69AC
:10255000D4F8B8100A431A612368002B12DB05B1C6
:1025600001252846F8BD0B4AD36A43F40033D362F1
:10257000002EBFD1074A536D23F44073E16F0B4324
:102580005365B9E7034AD36C23F04053216D0B43E5
:10259000D364E4E70044025808B500F0D5FE074BC9
:1025A0001B6A03F07003102292FAA2F2B2FA82F2CE
:1025B000D340034AD35CD84008BD00BF0044025852
:1025C0002C560008F0B46D4CA76A07F00307A16A07
:1025D000C1F3053CE66A06F01006E36BC3F3CC03D7
:1025E00006FB03F607EE906AB8EE677A012F60D01B
:1025F000F7B1022F00F0A580614BB3FBFCF307EEAF
:10260000903AF8EE677A5D4B9B6BC3F30803DFEDFE
:102610005D6A27EE267A06EE903AF8EE666A36EEA6
:10262000877AF7EE006A37EE267A67EE877A5BE004
:10263000524B1B6813F0200F1FD0504A1368C3F38E
:10264000C103514DDD40B5FBFCF307EE903AF8EEC7
:10265000677A936BC3F30803DFED4A6A27EE267AA5
:1026600006EE903AF8EE666A36EE877AF7EE006A82
:1026700037EE267A67EE877A36E0434CB4FBFCF3FC
:1026800007EE903AF8EE677A3C4B9B6BC3F3080376
:10269000DFED3C6A27EE267A06EE903AF8EE666A9F
:1026A00036EE877AF7EE006A37EE267A67EE877A9B
:1026B0001AE03349B1FBFCF307EE903AF8EE677A83
:1026C0002E4B9B6BC3F30803DFED2E6A27EE267AB1
:1026D00006EE903AF8EE666A36EE877AF7EE006A12
:1026E00037EE267A67EE877A244A936BC3F3462344
:1026F000013307EE103AB8EE477AC7EE876AFCEE70
:10270000E66AC0ED006A936BC3F30643013307EE3C
:10271000103AB8EE477AC7EE876AFCEEE66AC0ED7B
:10272000016A936BC3F30663013307EE103AB8EE08
:10273000477AC7EE876AFCEEE66AC0ED026AF0BC33
:102740007047124AB2FBFCF307EE903AF8EE677A54
:102750000A4B9B6BC3F30803DFED0A6A27EE267A68
:1027600006EE903AF8EE666A36EE877AF7EE006A81
:1027700037EE267A67EE877AB6E700BF0044025844
:1027800000093D00000000390090D00340787D0131
:10279000F0B46D4CA76A07F00307A16AC1F3055CAA
:1027A000E66A06F48076636CC3F3CC0306FB03F69B
:1027B00007EE906AB8EE677A012F60D0F7B1022F6A
:1027C00000F0A580614BB3FBFCF307EE903AF8EE06
:1027D000677A5D4B1B6CC3F30803DFED5D6A27EE80
:1027E000267A06EE903AF8EE666A36EE877AF7EECB
:1027F000006A37EE267A67EE877A5BE0524B1B68F9
:1028000013F0200F1FD0504A1368C3F3C103514D7A
:10281000DD40B5FBFCF307EE903AF8EE677A136CF7
:10282000C3F30803DFED4A6A27EE267A06EE903AF4
:10283000F8EE666A36EE877AF7EE006A37EE267AA9
:1028400067EE877A36E0434CB4FBFCF307EE903A30
:10285000F8EE677A3C4B1B6CC3F30803DFED3C6A70
:1028600027EE267A06EE903AF8EE666A36EE877A1A
:10287000F7EE006A37EE267A67EE877A1AE0334978
:10288000B1FBFCF307EE903AF8EE677A2E4B1B6C27
:10289000C3F30803DFED2E6A27EE267A06EE903AA0
:1028A000F8EE666A36EE877AF7EE006A37EE267A39
:1028B00067EE877A244A136CC3F34623013307EE8D
:1028C000103AB8EE477AC7EE876AFCEEE66AC0EDCA
:1028D000006A136CC3F30643013307EE103AB8EEF7
:1028E000477AC7EE876AFCEEE66AC0ED016A136CB0
:1028F000C3F30663013307EE103AB8EE477AC7EE2A
:10290000876AFCEEE66AC0ED026AF0BC7047124AC4
:10291000B2FBFCF307EE903AF8EE677A0A4B1B6CB9
:10292000C3F30803DFED0A6A27EE267A06EE903A33
:10293000F8EE666A36EE877AF7EE006A37EE267AA8
:1029400067EE877AB6E700BF0044025800093D00F1
:10295000000000390090D00340787D0108B500F0F8
:1029600013FB084B9B6903F470634FF4807292FA77
:10297000A2F2B2FA82F2D340034AD35CD840034BAE
:10298000186008BD004402582C560008640000205E
:102990007047000050B370B5044615460E4690F8D7
:1029A0004530F3B1214651F8080B01F097FBA268BE
:1029B0003146206801F0D2FBE36AA26829466068CC
:1029C00001F0F8FB2268A16852F8213043F00103BE
:1029D00042F82130064A136843F000431360002098
:1029E00070BD80F84430FFF7D3FFDBE7012070476C
:1029F0000040005238B50446036813F0010F2AD096
:102A0000AE4B1B6903F03803102B1BD0AB4B1B697B
:102A100003F03803182B0FD06368B3F5803F44D020
:102A2000002B5AD1A54B1A6822F480321A601A681A
:102A300022F480221A603DE0A04B9B6A03F003035E
:102A4000022BE9D19D4B1B6813F4003F03D0636850
:102A5000002B00F08782236813F0020F00F09880AB
:102A6000964B1B6913F0380F64D0944B1B6903F02D
:102A70003803182B59D0E368002B00F0C1808F4930
:102A80000A6822F0190213430B6001F019FB054696
:102A90008A4B1B6813F0040F40F0A28001F010FB7A
:102AA000401B0228F4D9032063E2844A136843F4EC
:102AB0008033136063683BB301F002FB05467F4B34
:102AC0001B6813F4003FC6D101F0FAFA401B41F233
:102AD00088339842F3D903204BE2B3F5A02F09D0F5
:102AE000764B1A6822F480321A601A6822F4802227
:102AF0001A60DFE7714B1A6842F480221A601A6884
:102B000042F480321A60D5E701F0DAFA05466B4BE1
:102B10001B6813F4003F9ED001F0D2FA401B41F233
:102B200088339842F3D9032023E2644B9B6A13F065
:102B3000030FA0D1614B1B6813F0040F03D0E368AF
:102B4000002B00F011825D4A136823F01903E1683D
:102B50000B43136001F0B4FA0546584B1B6813F0A1
:102B6000040F06D101F0ACFA401B0228F5D903206E
:102B7000FFE15248436823F47C3321694FF47C32EF
:102B800092FAA2F2B2FA82F201FA02F2134343601D
:102B9000236813F0100F65D0484B1B6903F038030E
:102BA000082B47D0454B1B6903F03803182B3BD04B
:102BB000E369002B00F08480404A136843F08003EF
:102BC000136001F07DFA05463C4B1B6813F4807FCF
:102BD00063D101F075FA401B0228F5D90320C8E142
:102BE0003648436823F47C3321694FF47C3292FAEF
:102BF000A2F2B2FA82F201FA02F213434360C7E78B
:102C00002E4A136823F00103136001F059FA0546B8
:102C10002A4B1B6813F0040FBAD001F051FA401B85
:102C20000228F5D90320A4E1244B9B6A03F0030397
:102C3000012BBDD1214B1B6813F4807F03D0E369C6
:102C4000802B40F093811D48436823F0F843216AAC
:102C50004FF0F84292FAA2F2B2FA82F201FA02F2CC
:102C600013434360236813F0080F51D06369002BAE
:102C70003AD0124A536F43F00103536701F020FA30
:102C800005460E4B5B6F13F0020F41D101F018FAAD
:102C9000401B0228F5D903206BE10848436823F064
:102CA000F843216A4FF0F84292FAA2F2B2FA82F2A5
:102CB00001FA02F213434360D4E700BF0044025814
:102CC000AD4A136823F08003136001F0F9F905465B
:102CD000A94B1B6813F4807FC4D001F0F1F9401BAD
:102CE0000228F5D9032044E1A34A536F23F00103DE
:102CF000536701F0E5F905469F4B5B6F13F0020F38
:102D000006D001F0DDF9401B0228F5D9032030E19F
:102D1000236813F0200F29D0A3699BB1964A13684A
:102D200043F48053136001F0CBF90546924B1B68C6
:102D300013F4005F1AD101F0C3F9401B0228F5D942
:102D4000032016E18C4A136823F48053136001F0CA
:102D5000B7F90546884B1B6813F4005F06D001F0F5
:102D6000AFF9401B0228F5D9032002E1236813F0D4
:102D7000040F21D1636A002B00F0FA807E4A1269A9
:102D800002F03802182A00F0F580022B75D07A4A3A
:102D9000136823F08073136001F092F90446764BB8
:102DA0001B6813F0007F00F0DB8001F089F9001B45
:102DB0000228F4D90320DCE0704A136843F48073DE
:102DC000136001F07DF905466C4B1B6813F4807F9E
:102DD00006D101F075F9401B6428F5D90320C8E03D
:102DE000A368012B0AD00BBB634B1A6F22F00102C0
:102DF0001A671A6F22F004021A6704E05E4A136F22
:102E000043F001031367A36833B301F059F9054692
:102E1000594B1B6F13F0020FACD101F051F9401B5D
:102E200041F288339842F3D90320A2E0052B09D060
:102E3000514B1A6F22F001021A671A6F22F0040236
:102E40001A67E0E74C4B1A6F42F004021A671A6FD8
:102E500042F001021A67D6E701F032F90546464B07
:102E60001B6F13F0020F85D001F02AF9401B41F2CD
:102E700088339842F3D903207BE03F4A136823F05C
:102E80008073136001F01CF905463B4B1B6813F07F
:102E9000007F06D001F014F9401B0228F5D9032069
:102EA00067E0354B996A364A0A40A16AE06A41EA0E
:102EB00000110A439A62226B013AC2F30802616B65
:102EC0000139490289B20A43A16B0139090401F4AD
:102ED000FE010A43E16B0139090601F0FE410A4394
:102EE0001A63596B274A0A40A06C4FF6F87191FAA1
:102EF000A1F1B1FA81F100FA01F10A435A63DA6AE9
:102F000022F00C02216C0A43DA62DA6A22F0020231
:102F1000616C0A43DA62DA6A42F48032DA62DA6AAF
:102F200042F40032DA62DA6A42F48022DA62DA6A61
:102F300042F00102DA621A6842F080721A6001F00F
:102F4000BFF804460C4B1B6813F0007F06D101F05C
:102F5000B7F8001B0228F5D903200AE0002008E09A
:102F6000002006E0012004E0012002E0012000E052
:102F7000002038BD0120FCE70044025800480258F8
:102F80000CFCFFFF0700FFFF6D4B1B6903F03803CC
:102F9000102B00F0D180182B0FD00BB1694870476F
:102FA000674B1B6813F0200F00F0C880644B1B6850
:102FB000C3F3C1036448D840704770B4604DAC6A35
:102FC00004F00304AE6AC6F30516EB6A03F00103CE
:102FD0006D6BC5F3CC0503FB05F307EE903AF8EEF5
:102FE000677A012C60D0F4B1022C00F08980554B37
:102FF000B3FBF6F307EE103AB8EE477A504B1B6B73
:10300000C3F30803DFED516A67EEA67A06EE903A45
:10301000F8EE666A76EEA77AF7EE006A77EEA67AA1
:1030200027EE277A5BE0464B1B6813F0200F1FD07A
:10303000434A1368C3F3C1034348D840B0FBF6F3D7
:1030400007EE103AB8EE477A136BC3F30803DFEDCF
:103050003F6A67EEA67A06EE903AF8EE666A76EE7A
:10306000A77AF7EE006A77EEA67A27EE277A36E09F
:103070003548B0FBF6F307EE103AB8EE477A304B1E
:103080001B6BC3F30803DFED316A67EEA67A06EE29
:10309000903AF8EE666A76EEA77AF7EE006A77EE77
:1030A000A67A27EE277A1AE02649B1FBF6F307EE57
:1030B000103AB8EE477A224B1B6BC3F30803DFEDDF
:1030C000236A67EEA67A06EE903AF8EE666A76EE26
:1030D000A77AF7EE006A77EEA67A27EE277A184BE2
:1030E0001B6BC3F34623013307EE903AF8EE676A91
:1030F000C7EE267AFCEEE77A17EE900A70BC7047AE
:10310000134AB2FBF6F307EE103AB8EE477A0C4BCF
:103110001B6BC3F30803DFED0D6A67EEA67A06EEBC
:10312000903AF8EE666A76EEA77AF7EE006A77EEE6
:10313000A67A27EE277AD2E70548704702487047FB
:103140000044025800093D000090D00300000039FF
:1031500040787D01784B1B6803F007038B420BD24C
:10316000754A136823F007030B431360136803F0D9
:1031700007038B4240F0D98070B5036813F0020F4B
:1031800006D06E4A936923F00F03C468234393610A
:103190000D460446036813F0010F72D0674A936925
:1031A00023F4706381680B4393614368022B0AD058
:1031B000032B2BD0012B30D0604A126812F0040F81
:1031C00006D10120B0E0126812F4003F00F0AF8099
:1031D0005A490A6922F0070213430B6100F070FF9D
:1031E00006466368022B1FD0032B2CD0012B39D04D
:1031F000524B1B6913F0380F43D000F061FF801B66
:1032000041F288339842F3D903208DE04B4A12688B
:1032100012F0007FDCD1012086E0484A126812F4E7
:10322000807FD5D101207FE0444B1B6903F0380338
:10323000102B26D000F044FF801B41F288339842C7
:10324000F2D9032070E03D4B1B6903F03803182BC3
:1032500017D000F035FF801B41F288339842F2D935
:10326000032061E0354B1B6903F03803082B08D0BD
:1032700000F026FF801B41F288339842F2D90320E8
:1032800052E02D4B1B6803F00703AB420AD92A4AD0
:10329000136823F007032B431360136803F007033D
:1032A000AB4246D1236813F0040F06D0234A93693A
:1032B00023F0700321690B439361236813F0080F17
:1032C00006D01E4AD36923F0700361690B43D361B2
:1032D000236813F0100F06D0184AD36923F4E06373
:1032E000A1690B43D361236813F0200F06D0134A62
:1032F000136A23F07003E1690B431362FFF744FE86
:103300000E4B9B6903F470634FF4807292FAA2F241
:10331000B2FA82F2D3400A4AD35CD840094B186013
:103320000F2000F08BFE002070BD012070470120AF
:10333000FAE70120F8E700BF0020005200440258DD
:103340002C5600086400002008B5FFF707FB084B67
:103350009B6903F00F03012292FAA2F2B2FA82F201
:10336000D340044AD35CD840034B186008BD00BF6B
:10337000004402582C5600086800002008B5FFF7EA
:10338000E3FF074BDB6903F07003102292FAA2F20D
:10339000B2FA82F2D340034AD35CD84008BD00BFE2
:1033A000004402582C56000808B5FFF7CDFF074B24
:1033B000DB6903F4E0634FF4807292FAA2F2B2FA8E
:1033C00082F2D340024AD35CD84008BD0044025880
:1033D0002C5600087047022380F83D30026813889D
:1033E00043F001031380012380F83D300020704733
:1033F00070B403889BB2384CA04214BF002401244F
:10340000B0F1804F14BF224644F00102AAB9334DF7
:10341000A84214BF00250125314EB0420DD065B938
:1034200005F1804505F58235A84214BF0025012528
:1034300006F50066B04200D01DB123F070034D6860
:103440002B4312BB254A904214BF00220122244D77
:10345000A8421AD0CAB902F1804202F582329042E3
:1034600014BF0022012205F50065A8420DD062B903
:103470001C4A904214BF0022012205F59A35A84249
:1034800003D012B9184A904203D123F44073CA689A
:10349000134323F080034A6913439BB203808A6875
:1034A000C2620A880285114B984214BF234644F039
:1034B00001035BB90B4B984214BF002301230C4A54
:1034C000904203D013B9084B984201D10B8A03866E
:1034D0000123436170BC70470000014000080040B8
:1034E0000004004000440140004801400004014045
:1034F00000400140B0B110B5044690F83D3063B1D2
:10350000022384F83D30214651F8040BFFF770FF89
:10351000012384F83D30002010BD80F83C30FFF7D7
:1035200059FFEDE701207047704700002DE9F04397
:1035300087B004460168826A836800690343606952
:103540000343E069034313430868874A02401A4370
:103550000A602268536823F44053E1680B435360C8
:10356000A2692168814B994201D0236A1A43A36A58
:10357000B3F1005F2FD088687D4B034013438B600D
:103580002268D36A23F00F03616A0B43D362236876
:10359000784A934224D0784A93425ED0774A934245
:1035A00075D0774A934200F08C80764A934200F0BF
:1035B000A280754A934200F0B880744A934200F0AA
:1035C000F580734A934200F00881684A934200F004
:1035D0001B81802531E1E36A206B03431A43CAE76C
:1035E0006C4A526D02F03802282A2AD8DFE812F01D
:1035F0002401290029002900290029002900290087
:103600002B00290029002900290029002900290070
:103610002D0029002900290029002900290029005E
:103620002F0029002900290029002900290029004C
:10363000310029002900290029002900290029003A
:1036400033008025F9E00425F7E04025F5E0082562
:10365000F3E01025F1E02025EFE04E4A526D02F034
:103660000702052A07D8DFE812F0360108000A0031
:103670000C000E0010008025DFE00425DDE0402571
:10368000DBE00825D9E01025D7E02025D5E0414A28
:10369000526D02F00702052A07D8DFE812F01E017A
:1036A00008000A000C000E0010008025C5E004256B
:1036B000C3E04025C1E00825BFE01025BDE020257E
:1036C000BBE0344A526D02F00702052A07D8DFE852
:1036D00012F0060108000A000C000E001000802500
:1036E000ABE00425A9E04025A7E00825A5E01025CA
:1036F000A3E02025A1E0274A526D02F00702052A27
:1037000007D8DFE812F0EE0008000A000C000E00F7
:103710001000802591E004258FE040258DE00825EC
:103720008BE0102589E0202587E01A4A526D02F0CF
:103730003802282A16D8DFE802F0D6151515151517
:1037400015152F15151515151515311515151515F3
:1037500015153315151515151515351515151515DB
:1037600015153700802568E0F369FFCF000C00587D
:10377000FFF4FF11001001400044004000480040E9
:10378000004C004000500040001401400078004010
:10379000007C00400044025804254EE040254CE0E7
:1037A00008254AE0102548E0202546E0994A526D58
:1037B00002F00702052A04D8DFE802F0970507099E
:1037C0000B0D802539E0042537E0402535E008253C
:1037D00033E0102531E020252FE08E4A526D02F0B3
:1037E0000702052A04D8DFE802F0820507090B0D5D
:1037F000802522E0042520E040251EE008251CE06D
:1038000010251AE0202518E002F50E32926D02F024
:103810000702052A04D8DFE802F06C0507090B0D42
:1038200080250AE0042508E0402506E0082504E09C
:10383000102502E0202500E00125774A93425AD066
:10384000E269B2F5004F00F08381402D00F2EA8278
:10385000DFE815F04C025D02E802E8026F02E802C0
:10386000E802E8029702E802E802E802E802E80259
:10387000E802E802C102E802E802E802E802E8021F
:10388000E802E802E802E802E802E802E802E802E8
:10389000E802E802D102E802E802E802E802E802EF
:1038A000E802E802E802E802E802E802E802E802C8
:1038B000E802E802E802E802E802E802E802E802B8
:1038C000E802E802E802E802E802E802E802E802A8
:1038D000E802E80283020025AFE70025ADE70025F6
:1038E000ABE70025A9E70125A7E70025A5E7002507
:1038F000A3E70225A1E7082D1DD007D9202D26D04A
:10390000402D13D0102D25D001255DE1022D08D0CA
:10391000042D04D103A8FEF755FE049803E0012509
:1039200052E1FEF739FEB0B900254DE16846FEF7D9
:103930002FFF0198F7E7374B1B6813F0200F29D0B2
:10394000344B1B68C3F3C1033448D840EBE74FF452
:10395000004000E03248666806EB4603834200F20E
:103960005B82B0EB063F00F25982082D7BD013D961
:10397000202D00F0D680402D58D0102D00F0B580BD
:103980000125A0F54072274B9A4200F24982236834
:10399000D86019E12148DEE7022D20D0042D1CD18A
:1039A00003A8FEF70FFE0025626A1F4B33F81220B2
:1039B000002304982946FCF793FC0F0247EA10679E
:1039C0000602626850082B4616EB000847F1000912
:1039D00040464946FCF784FCD3E70125D1E7FEF7D2
:1039E000DBFD0025626A104B33F8122000232946C4
:1039F000FCF776FC0F0247EA10670602626850087F
:103A00002B4616EB000847F1000940464946FCF7F3
:103A100067FCB6E700440258000C00580090D00341
:103A200000093D00FFFC0F003C5600086846FEF709
:103A3000AFFE0025626A9F4B33F8122000230198E5
:103A40002946FCF74DFC0F0247EA10670602626840
:103A500050082B4616EB000847F10009404649463E
:103A6000FCF73EFC8DE7944B1B6813F0200F20D031
:103A7000914B1968C1F3C1010025626A8D4B33F87F
:103A8000122000238D48C8402946FCF729FC4FEA44
:103A9000012949EA10694FEA0028700832462B468E
:103AA00018EB000649F1000730463946FCF718FCD0
:103AB00067E7626A7F4B33F8122000237F480021BA
:103AC000FCF70EFC4FEA012949EA10694FEA002889
:103AD0007008002532462B4618EB000649F1000716
:103AE00030463946FCF7FCFB4BE7626A714B33F812
:103AF0001220002372480021FCF7F2FB4FEA012953
:103B000049EA10694FEA00287008002532462B4622
:103B100018EB000649F1000730463946FCF7E0FB98
:103B20002FE7626A634B33F812204FF40043B3FB74
:103B3000F2F34FF000094FEA0328770800253246D8
:103B40002B4618EB070049F10001FCF7C9FB18E709
:103B5000402D00F2C880DFE805F0213BC6C64CC608
:103B6000C6C672C6C6C6C6C6C6C69CC6C6C6C6C673
:103B7000C6C6C6C6C6C6C6C6C6C6B5C6C6C6C6C6F6
:103B8000C6C6C6C6C6C6C6C6C6C6C6C6C6C6C6C6D5
:103B9000C6C6C6C6C6C6C6C6C6C65F00FFF7EEFB2B
:103BA000626A444B33F81230B0FBF3F0626853089A
:103BB00003EB4003B3FBF2F39BB223F00F02C3F31A
:103BC000420313432268D360284607B0BDE8F08360
:103BD000FFF7EAFB626A374B33F81230B0FBF3F0C1
:103BE0006268530803EB4003B3FBF2F39BB200257A
:103BF000E3E703A8FEF7E6FC626A2E4B33F81220D7
:103C0000049BB3FBF2F261684B0803EB4203B3FB86
:103C1000F1F39BB20025D0E76846FEF7B9FD626A72
:103C2000244B33F81220019BB3FBF2F261684B087E
:103C300003EB4203B3FBF1F39BB20025BDE71E4B40
:103C40001B6813F0200F14D01B4B1A68C2F3C1027B
:103C50001A4BD340616A174A32F81120B3FBF2F2D3
:103C600061684B0803EB4203B3FBF1F39BB2002501
:103C7000A3E7626A0F4B33F81220104BB3FBF2F24A
:103C800061684B0803EB4203B3FBF1F39BB20025E1
:103C900093E7626A074B33F81220094BB3FBF2F249
:103CA00061684B0803EB4203B3FBF1F39BB20025C1
:103CB00083E700BF3C560008004402580090D00340
:103CC00000093D00626A584B33F812204FF400435C
:103CD000B3FBF2F261684B0803EB4203B3FBF1F371
:103CE0009BB2002569E70125002366E7FFF746FB45
:103CF000626A4D4B33F81230B0FBF3F3626803EBAA
:103D00005203B3FBF2F322689BB2D3605CE7FFF788
:103D10004BFB626A444B33F81230B0FBF3F362683A
:103D200003EB5203B3FBF2F322689BB2D36000258E
:103D30004AE703A8FEF746FC626A3B4B33F81220C1
:103D4000049BB3FBF2F3626803EB5203B3FBF2F3A1
:103D500022689BB2D360002536E76846FEF718FD5F
:103D6000626A314B33F81220019BB3FBF2F36268B5
:103D700003EB5203B3FBF2F322689BB2D36000253E
:103D800022E72A4A126812F0200F14D0274A11683D
:103D9000C1F3C101264ACA40606A234931F81010B4
:103DA000B2FBF1F2616802EB5102B2FBF1F292B2A6
:103DB000DA60002508E7616A1B4A32F811101C4AD4
:103DC000B2FBF1F2616802EB5102B2FBF1F292B286
:103DD000DA600025F8E6616A134A32F81110154AD4
:103DE000B2FBF1F2616802EB5102B2FBF1F292B266
:103DF000DA600025E8E6616A0B4A32F811104FF4E8
:103E00000042B2FBF1F2616802EB5102B2FBF1F247
:103E100092B2DA600025D7E60125D5E60125D3E682
:103E20000125D1E60125CFE63C56000800440258A2
:103E30000090D00300093D00436B13F0010F06D042
:103E40000268536823F40033816B0B435360436B68
:103E500013F0020F06D00268536823F48033C16B5D
:103E60000B435360436B13F0040F06D00268536892
:103E700023F48023016C0B435360436B13F0080F52
:103E800006D00268536823F40043416C0B4353602F
:103E9000436B13F0100F06D00268936823F480532D
:103EA000816C0B439360436B13F0200F06D00268C4
:103EB000936823F40053C16C0B439360436B13F07E
:103EC000400F0AD00268536823F48013016D0B433E
:103ED0005360036DB3F5801F0BD0436B13F0800F5D
:103EE00006D00268536823F40023816D0B435360AE
:103EF00070470268536823F4C003416D0B4353605D
:103F0000EBE72DE9F04105460F4616469846069C1C
:103F10002B68DB6937EA03030CBF01230023B3429C
:103F20001DD1B4F1FF3FF3D02CB100F0C9F8A0EBE4
:103F30000800A042ECD92A68136823F4D0731360F8
:103F40002A68936823F001039360202385F8793071
:103F500085F87A30002385F87830032000E00020CF
:103F6000BDE8F08130B583B004460023C36700F09C
:103F7000A7F8054623681B6813F0080F0ED12368C5
:103F80001B6813F0040F17D1202384F8793084F8CC
:103F90007A30002084F8780003B030BD6FF07E43A3
:103FA0000093034600224FF400112046FFF7A9FFBB
:103FB0000028E4D00320EFE76FF07E4300932B4608
:103FC00000224FF480012046FFF79BFF0028DBD042
:103FD0000320E1E778B310B5044690F879300BB3CD
:103FE000242384F879302268136823F001031360D6
:103FF0002046FFF79BFA012813D0636BBBB92268F8
:10400000536823F4904353602268936823F02A0393
:1040100093602268136843F0010313602046FFF7A2
:10402000A1FF10BD80F87830FFF77EFAD8E7204670
:10403000FFF702FFE3E701207047704710B5044621
:104040000E4B18784FF47A73B3FBF0F30C4A1068F8
:10405000B0FBF3F0FDF7B4FB68B90F2C01D90120D8
:104060000AE0002221464FF0FF30FDF769FB054BC7
:104070001C60002000E0012010BD00BF6C0000208B
:10408000640000207000002010B50320FDF746FBFF
:104090000F20FFF7D3FF10B10124204610BD0446C6
:1040A000FFF7CBFFF9E70000034B1B78034A1168C9
:1040B0000B441360704700BF6C000020EC1100201F
:1040C000014B1868704700BFEC110020024A136AC8
:1040D00043F00103136270470004005870B40C6889
:1040E00050F824301C4E1E404A688D6842EA050391
:1040F000CA6813430A6913434A6913438A6913431D
:10410000CA6913430A6A13434A6A13438A6A134308
:10411000CA6A13430A6B13438A6B13434A6B1343F4
:104120003343082D0ED040F824300B6BB3F5801FBD
:104130000BD00B681BB103684A6B1343036000206C
:1041400070BC704743F04003EDE70A68002AF0D0E6
:10415000026813430360ECE78004C0FF30B401320F
:1041600050F8224004F040440B684D6843EA0513C0
:104170008D6843EA0523CD6843EA05430D69013D97
:1041800043EA05534D69023D43EA05638D692B43BC
:10419000234340F82230036813F4801F07D043689C
:1041A00023F470030A69013A43EA02534360002092
:1041B00030BC7047B3F5804F05D06FF0704340F8C6
:1041C00022300020704730B450F82230094C1C4097
:1041D0000B684D6843EA05138D6843EA0523CD68F3
:1041E00043EA054389690B43234340F8223000200A
:1041F00030BC70470000F0CF016000207047000025
:10420000F0B58DB00746214C07AD26460FCE0FC541
:1042100033682B6002AD14340FCC0FC523682B60BC
:104220003C680025042D09DC0CAB03EB85022368F8
:1042300052F8141C204698470135F3E70025042D59
:1042400020DC636801A920469847D8B90199104835
:1042500000F058F90135F2E70CAB03EB850353F896
:10426000141C0C4800F04EF90135042D0CDC2268BA
:104270000CAB03EB850353F8281C2046904700281D
:10428000F2D0E9E70025F0E70DB0F0BD08550008D1
:104290005456000858560008F8B5244C204600F043
:1042A00031F9234B1F6804331E6804331D68214B0A
:1042B0001968214BA3FB0131890C204800F022F939
:1042C0003B46324629461E4800F01CF91D4800F0C6
:1042D00019F9204600F016F91B4D1C49284600F03C
:1042E00011F91B49284600F00DF91A49284600F03B
:1042F00009F9194800F08CF9184800F089F91848B4
:1043000000F086F9174800F083F9174800F080F9AB
:10431000164800F07DF9164800F07AF9154800F0CB
:1043200077F9204600F0EEF8F8BD00BF8C56000883
:1043300000E8F11F6400002083DE1B43CC56000818
:10434000F85600080C5700081457000810570008CA
:104350002057000824570008305700085857000815
:104360005C57000874570008845700089C570008E1
:10437000B0570008C857000808B5054800F048F9CC
:10438000044800F0BFF8044800F042F908BD00BF3F
:1043900074560008785600087C56000800B59FB097
:1043A000FDF73CF9FFF778FFFFF7E6FF0120FCF788
:1043B0000EFC6420FCF7D0FC0120FCF72AFC6420F2
:1043C000FCF7CAFC64210020FCF7E4FC4FF4FA710E
:1043D0000120FCF7DFFC14220AA904A800F044F82D
:1043E000C823032201A904A800F06CF804A96846B8
:1043F000FFF702FF6846FFF703FFFDF728F90020EB
:10440000FCF7ECFC70B90120FCF7E8FC0028E2D0D6
:104410000220FCF72EFC0320FCF72BFC0420FCF709
:1044200028FCD8E70120FCF724FCECE7C36802690C
:10443000934209D010B482685C1CC46042F8231017
:1044400000205DF8044B70474FF0FF307047C368A1
:104450003BB18268013BC36052F823300B600020FF
:1044600070474FF0FF30704710B504460023C3601B
:1044700081600261024A034900F03EF8204610BD07
:104480004F4400082D44000883688B4204DB4368D6
:104490008B4203DC012070470020704700207047EA
:1044A00008B50968FFF7D3FF08BD38B504460D46C7
:1044B0004069FFF7E9FF00B938BD29462046FFF7FC
:1044C000B5FFF9E770B5044615461E464161074A37
:1044D000074900F011F80749606900F011F86369B5
:1044E0009E6063695D60204670BD00BFA144000806
:1044F000AB44000889440008016042600020704716
:10450000016070470FB40A4B13B51C6824B1A3694E
:1045100013B9204600F05EFA05AB049AA168019336
:10452000204600F02DFC02B0BDE8104004B07047FA
:104530000000002070B50E46054618B183690BB91E
:1045400000F048FAAB69AC6813B9284600F042FAAB
:104550002C4B9C4220D16C68636EDB0705D4A38989
:10456000980502D4A06D00F0D2FAA38919071DD5D1
:104570002369DBB1013EA36816F8011F013BA3606C
:1045800039BB002B38DA22460A21284600F048F8C9
:10459000013011D00A2511E01B4B9C4201D1AC68BF
:1045A000DAE71A4B9C4208BFEC68D5E7214628465B
:1045B00000F088F80028DDD04FF0FF35636EDA0791
:1045C00005D4A3899B0502D4A06D00F0A1FA28466A
:1045D00070BD002B04DAA2699A4206DC0A2904D0D5
:1045E00023685A1C22601970C5E72246284600F04D
:1045F00017F80130BFD1DFE723680A255A1C226073
:104600001D70DBE70858000828580008E857000824
:10461000024B01461868FFF78DBF00BF0000002065
:10462000F8B50E461446054618B183690BB900F07B
:10463000D1F9214B9C422BD16C68A369A360A3895B
:104640001A072FD523696BB323692068C01A6369E1
:10465000F6B28342374604DC2146284600F026F9AC
:1046600030BBA368013BA36023685A1C22601E7004
:1046700063690130834204D0A389DB0706D50A2E83
:1046800004D12146284600F011F988B93846F8BD12
:104690000A4B9C4201D1AC68CFE7094B9C4208BF52
:1046A000EC68CAE72146284600F00CF80028CBD079
:1046B0004FF0FF37EAE700BF085800082858000805
:1046C000E8570008324B70B51D6806460C4625B108
:1046D000AB6913B9284600F07DF92E4B9C420FD1EF
:1046E0006C68B4F90C309AB215072CD4D00611D4EA
:1046F0000922326043F04003A3814FF0FF303EE0D7
:10470000254B9C4201D1AC68EBE7244B9C4208BF8F
:10471000EC68E6E7510712D5616B41B104F144033F
:10472000994202D0304600F059FA00236363A3890E
:1047300023F02403A3810023636023692360A389FA
:1047400043F00803A38123694BB9A38903F42073C1
:10475000B3F5007F03D02146304600F0FFF9A2896F
:1047600012F001030CD00023A36063695B42A361D4
:10477000236953B9B4F90C3013F08000BAD170BD7D
:10478000920758BF6369A360F2E70020F7E700BF14
:10479000000000200858000828580008E8570008C2
:1047A0008A892DE9F041054610070C4658D44B681C
:1047B000002B05DC0B6C002B02DC0020BDE8F08137
:1047C000E66A002EF9D0002312F480522F682B6085
:1047D00032D0606DA3895A0705D56368C01A636B30
:1047E0000BB1236CC01A00230246E66A216A2846F0
:1047F000B047431CA38906D129681D292CD82A4A11
:10480000CA40D60728D500226260D90422692260F6
:1048100004D5421C01D12B6803B96065616B2F6020
:104820000029CAD004F14403994202D0284600F07E
:10483000D5F900206063C1E7216A01232846B0470B
:10484000411CC7D12B68002BC4D01D2B01D0162BC7
:1048500001D12F60B1E7A38943F04003A381ADE705
:104860000F69002FA9D093070E6808BF4B690F602E
:1048700018BF0023A6EB07088B60B8F1000F9CDD82
:1048800043463A46216AA66A2846B047002806DC15
:10489000A38943F04003A3814FF0FF308EE7074424
:1048A000A8EB0008E9E700BF0100402038B50B691C
:1048B00005460C4613B90025284638BD18B1836952
:1048C0000BB900F087F8144B9C421BD16C68B4F90B
:1048D0000C30002BEFD0626ED00704D4990502D4BF
:1048E000A06D00F014F928462146FFF759FF636ECA
:1048F000DA070546E0D4A3899B05DDD4A06D00F05E
:1049000007F9D9E7054B9C4201D1AC68DFE7044BBE
:104910009C4208BFEC68DAE70858000828580008ED
:10492000E8570008002310B50446C0E9003383604F
:1049300081814366C281C0E904338361194608223C
:104940005C30FBF7C9FE054B6362054BA362054B68
:10495000E362054B2462236310BD00BF05530008CA
:10496000275300085F53000883530008014900F0F3
:10497000AFB800BFAD48000870B54A1E6825554362
:104980000E4605F1740100F077F9044640B10021AC
:10499000C0E900160C30A06005F16802FBF79CFE30
:1049A000204670BD014800F0B2B800BF08120020D8
:1049B000014800F0ADB800BF08120020014800F027
:1049C000A6B800BF03120020014800F0A1B800BF44
:1049D0000312002010B50446FFF7F0FFA3691BB1D6
:1049E000BDE81040FFF7F0BFC4E912332365134B55
:1049F000134A1B68A262A34204BF0123A36120469D
:104A000000F020F86060204600F01CF8A06020460E
:104A100000F018F80022E06004216068FFF782FFD0
:104A200001220921A068FFF77DFF02221221E06820
:104A3000FFF778FF0123A361D2E700BF30550008DC
:104A40006D490008F8B50746FFF7ACFF1E4B1E681E
:104A5000B36913B93046FFF7BDFF4836D6E90134D4
:104A6000013B03D533680BB33668F7E7B4F90C5054
:104A7000D5B9164BE36004F15800656600F046F8BE
:104A8000FFF796FF2560C4E90155C4E90455A56107
:104A90000822294604F15C00FBF71EFEC4E90D550F
:104AA000C4E912552046F8BD6834D9E704213846D8
:104AB000FFF762FF044630600028D5D1FFF778FF8A
:104AC0000C233B60EEE700BF305500080100FFFFFC
:104AD0002DE9F8438046894600F14804002614B9C0
:104AE0003046BDE8F883D4E90175013F01D524685B
:104AF000F5E7AB89012B07D9B5F90E30013303D0A7
:104B000029464046C84706436835EEE77047704778
:104B1000704770B50E46B1F90E10002996B01446D4
:104B20001D4607DA00232B60B3891A0610D44FF410
:104B300080630EE06A4600F04BFC0028F2DB019A2D
:104B400002F47042A2F500535A425A412A60EEE73D
:104B500040230020236016B070BD00008B8973B520
:104B60009D0706460C4607D504F1470323602361E1
:104B70000123636102B070BD01AB6A46FFF7C9FF54
:104B800000990546304600F077F848B9B4F90C3082
:104B90009A05EFD423F0030343F00203A381E3E774
:104BA0000D4BB362A389206043F08003A381009B77
:104BB0006361019B20615BB1B4F90E10304600F0D7
:104BC00019FC28B1A38923F0030343F00103A38157
:104BD000A3891D43A581CDE76D49000838B5054679
:104BE000002945D051F8043C0C1F002BB8BFE41835
:104BF00000F022FC1F4A1368104633B9636014604A
:104C00002846BDE8384000F01DBCA3420CD92168FD
:104C10006218934204BF1A685B68636004BF52184D
:104C200022600460ECE713465A680AB1A242FAD93E
:104C300019685818A0420BD12068014458188242C4
:104C40001960DDD1106852685A6001441960D7E7D5
:104C500002D90C232B60D3E7206821188A4204BFB5
:104C600011685268626004BF091821605C60C7E780
:104C700038BD00BFF0110020F8B5CD1C25F00305AC
:104C800008350C2D38BF0C25002D064601DBA94246
:104C900003D90C2333600020F8BD00F0CDFB21497F
:104CA0000A6814469CB9204F3B6823B92146304618
:104CB00000F018FB38602946304600F013FB431C17
:104CC00023D10C233360304600F0BCFBE3E72368BC
:104CD0005B1B17D40B2B03D923601C44256004E015
:104CE0006368A2420CBF0B605360304600F0AAFB21
:104CF00004F10B00231D20F00700C21ACCD01B1AB0
:104D0000A350C9E722466468CCE7C41C24F003041E
:104D1000A042E3D0211A304600F0E4FA0130DDD1A0
:104D2000CFE700BFF0110020F41100209368013B91
:104D3000002B10B4936008DA9469A34201DB0A29BE
:104D400003D15DF8044BFFF76BBC1368581C10606F
:104D5000197008465DF8044B7047F8B506460F46D3
:104D60001446D518AC4201D1002007E03A4614F8A9
:104D7000011B3046FFF7DAFF431CF3D1F8BD0000FA
:104D80002DE9F04F0D469DB014461E46074618B15A
:104D900083690BB9FFF71EFE854B9D421BD17D68D1
:104DA0006B6ED90705D4AB899A0502D4A86DFFF7BD
:104DB000AEFEAB891B0701D52B69EBB929463846F6
:104DC000FFF780FCC0B16B6ED8070ED54FF0FF30F7
:104DD0001DB0BDE8F08F774B9D4201D1BD68DFE784
:104DE000754B9D4208BFFD68DAE7AB899905EDD4A4
:104DF000A86DFFF78DFEE9E70023099320238DF8C6
:104E00002930DFF8B891039630238DF82A304FF01F
:104E1000010A23461E4613F8012B0AB1252AF9D1AF
:104E2000B6EB040B0BD05B46224629463846FFF70B
:104E300094FF013000F0A380099B5B440993337811
:104E4000002B00F09C8000234FF0FF32CDE90523BA
:104E50000136049307938DF853301A933446052294
:104E600014F8011B5548FBF7C3FB049BC0B9DA06D5
:104E700044BF20228DF85320180744BF2B228DF801
:104E8000532032782A2A13D0079A344600200A2663
:104E9000214611F8013B303B092B4BD970B914E086
:104EA000A0EB09000AFA00F0184304902646D5E763
:104EB000039A111D12680391002A01DB079204E096
:104EC000524243F002030792049323782E2B0CD115
:104ED00063782A2B33D1039B1A1D1B680392002B86
:104EE000B8BF4FF0FF3302340593354E21780322CB
:104EF0003046FBF77DFB38B14023801B03FA00F0FE
:104F0000049B03430134049314F8011B2D488DF8CE
:104F100028100622FBF76CFB00283FD02A4B13BB5E
:104F2000039B073323F0070308330393099B434490
:104F300009936EE706FB023201200C46A8E7002326
:104F40000134059319460A26204610F8012B303A01
:104F5000092A03D9002BC8D00591C6E706FB012119
:104F600001230446F0E703AB00932A46174B04A93C
:104F70003846AFF30080B0F1FF3F8046D6D16B6E6C
:104F8000D90705D4AB899A0502D4A86DFFF7C0FDF7
:104F9000AB895B063FF51AAF099819E703AB00939D
:104FA0002A460A4B04A9384600F088F8E3E700BF18
:104FB0000858000828580008E85700084858000812
:104FC0004E58000852580008000000005B4D0008D1
:104FD0002DE9F04791461F468A680B69DDF820806D
:104FE0009342B8BF1346C9F8003091F843200646F3
:104FF0000C4612B10133C9F800302368990642BF4C
:10500000D9F800300233C9F80030256815F00605DC
:1050100007D104F1190AE368D9F800209B1AAB42C2
:1050200028DC94F843302268003318BF012392062D
:105030002DD404F1430239463046C047013020D018
:105040002368E568D9F8002003F00603042B08BFA5
:10505000AD1AA36822690CBF25EAE57500259342C5
:10506000C4BF9B1AED184FF000091A344D451AD1F0
:10507000002008E00123524639463046C04701303F
:1050800003D14FF0FF30BDE8F0870135C3E7E118E9
:105090005A1C302081F84300224494F8451082F8CD
:1050A00043100233C5E70123224639463046C04744
:1050B0000130E6D009F10109D8E700002DE9F043FD
:1050C00006460C4601F14300097E85B06E299846DC
:1050D00017460C9B00F0BA8024D8632939D00AD82F
:1050E000002900F0C380582900F0918004F14205A6
:1050F00084F8421035E0642901D06929F6D1256889
:105100001A6815F0800F02F104012CD012681960A2
:10511000002A03DA2D23524284F84330DFF8BCC161
:105120000A233FE0732900F0A58008D86F2921D019
:105130007029DBD1226842F02002226003E0752949
:1051400018D07829D2D1782284F84520DFF890C190
:1051500061E01A68111D1960136884F8423004F187
:105160004205012393E01268196015F0400F18BF43
:1051700012B2CDE7D4F800C01A681CF0800F02F11B
:1051800004051D6001D0126803E01CF0400FFAD046
:105190001288DFF848C16F290CBF08230A230021B9
:1051A00084F843106568A560002DA2BF216821F036
:1051B000040121600AB9002D46D00546B2FBF3F187
:1051C00003FB112E93421CF80EE005F801ED39D9CE
:1051D000082B0BD12368DA0708D5236962689A4245
:1051E000DEBF302305F8013C05F1FF35401B20618F
:1051F000CDF800803B4603AA21463046FFF7E8FE83
:10520000013049D14FF0FF3005B0BDE8F083DFF841
:10521000CCC084F845101D68216855F8042B1D602A
:105220000D060BD5CD0744BF41F0200121601AB90E
:10523000236823F0200323601023B0E74B0648BF08
:1052400092B2EFE70A46B9E70546C1E71A68D4F813
:1052500000C06169151D1D601CF0800F136801D02E
:10526000196003E01CF0400FFAD01980002323617D
:105270000546BDE71A68111D1960156862680021AE
:105280002846FBF7B5F908B1401B606063682361ED
:10529000002384F84330ABE723692A463946304679
:1052A000C0470130AED023689B0713D4E068039B4E
:1052B0009842B8BF1846A7E701234A463946304608
:1052C000C04701309ED00135E368039A9B1AAB4278
:1052D000F2DCEBE7002504F11909F5E7595800085D
:1052E0006A58000838B5064C002305460846236076
:1052F00000F0E8F8431C02D1236803B12B6038BDED
:105300000C12002010B50C46B1F90E1000F0A0F8F8
:105310000028ABBF636DA3891B1823F48053ACBF77
:105320006365A38110BD2DE9F0411F468B89DB0524
:1053300005460C46164605D502230022B1F90E108B
:1053400000F068F8A389B4F90E1023F48053A38108
:1053500032463B462846BDE8F04100F017B810B58C
:105360000C46B1F90E1000F055F8431CA38915BF87
:10537000606523F4805343F48053A38118BFA38155
:1053800010BDB1F90E1000F013B8000038B5074C8D
:10539000054608461146002222601A4600F0A0F891
:1053A000431C02D1236803B12B6038BD0C120020CE
:1053B00038B5064C002305460846236000F05AF82D
:1053C000431C02D1236803B12B6038BD0C120020AE
:1053D00038B5074C0023054608461146236000F007
:1053E00051F8431C02D1236803B12B6038BD00BFC4
:1053F0000C12002038B5064C0023054608462360F1
:1054000000F048F8431C02D1236803B12B6038BD7B
:105410000C12002038B5074C0546084611460022FC
:1054200022601A4600F03EF8431C02D1236803B103
:105430002B6038BD0C1200200148FFF768BB00BF8D
:10544000041200200148FFF763BB00BF04120020D4
:1054500038B5074C054608461146002222601A4618
:1054600000F028F8431C02D1236803B12B6038BD3B
:105470000C120020024B58221A604FF0FF30704788
:105480000C120020024B58221A604FF0FF30704778
:105490000C120020024B58221A600020704700BFF7
:1054A0000C120020024B58221A604FF0FF30704758
:1054B0000C120020024B58221A604FF0FF30704748
:1054C0000C120020044A05491368002B08BF0B4644
:1054D0001844106018467047F81100201012002080
:1054E000024B58221A604FF0FF3070470C12002018
:1054F000F8B500BFF8BC08BC9E467047F8B500BFC1
:08550000F8BC08BC9E46704790
:10550800060000000600000006000000060000007B
:105518006400000007000000070000004C000000C5
:10552800430000002E040000040000202F6D6E745C
:105538002F642F64656D6F2F7372632F4253502F42
:105548006273705F666D635F696F2E6300000000B1
:105558000020025800010000000802580020000046
:10556800001C025810000000001802580400000037
:10557800000402580100000000180258080000004A
:10558800001802588000000000200258000800009F
:105598006273705F53746172744175746F54696D8E
:1055A800657200002F6D6E742F642F64656D6F2F08
:1055B8007372632F4253502F6273705F74696D6505
:1055C800722E63004572726F723A2066696C6520AC
:1055D80025732C2066756E6374696F6E2025732899
:1055E800290D0A002F6D6E742F642F64656D6F2F5F
:1055F8007372632F4253502F6273705F75617274B8
:105608005F6669666F2E63002F6D6E742F642F645A
:10561800656D6F2F7372632F4253502F6273702E14
:1056280063000000000000000102030401020304FB
:1056380006070809010002000400060008000A0025
:105648000C001000200040008000000125642000AC
:1056580074686520646174612025642070757368BE
:10566800206661696C64200A000000003A0D0000A1
:10567800312E2000322E204C4544334C4544340D05
:10568800000000002A2A2A2A2A2A2A2A2A2A2A2A1A
:105698002A2A2A2A2A2A2A2A2A2A2A2A2A2A2A2A62
:1056A8002A2A2A2A2A2A2A2A2A2A2A2A2A2A2A2A52
:1056B8002A2A2A2A2A2A2A2A2A2A2A2A2A2A2A2A42
:1056C8002A0A0D000D0A435055203A2053544D33F1
:1056D8003248373433584948362C2042474132340F
:1056E800302C203A2025644D487A0D0A000000002D
:1056F800554944203D202530385820253038582039
:10570800253038580A0D000056372D002A20202051
:10571800203A2025730D0A00312E300032303138FE
:105728002D31322D313200002A2048414C20203AB8
:105738002056312E332E30202853544D33324837DB
:1057480078782048414C20447269766572290D00AA
:105758002A200D002A205151202020203A203132C1
:105768003935373434363330200D00002A20203ABA
:105778002061726D666C790D000000002A20203AC5
:105788002061726D666C794071712E636F6D200DAA
:10579800000000002A203A2061726D666C795F6310
:1057A8006F6D200D000000002A203A2061726D669E
:1057B8006C792E74616F62616F2E636F6D0D0000DE
:1057C8002A20436F70797269676874207777772E1B
:1057D80061726D666C792E636F6D200D000000009C
:1057E80000000000000000000000000000000000B1
:1057F80000000000000000000000000000000000A1
:105808000000000000000000000000000000000090
:105818000000000000000000000000000000000080
:105828000000000000000000000000000000000070
:105838000000000000000000000000000000000060
:10584800232D302B2000686C4C0065666745464761
:1058580000303132333435363738394142434445E4
:105868004600303132333435363738396162636453
:045878006566000061
:08587C0094AAFF7F0100000067
:04588400C502000851
:04588800A102000871
:10588C0004000020000000000858000828580008F8
:10589C00E8570008000000000000000000000000B5
:1058AC0000000000000000000000000000000000EC
:1058BC0000000000000000000000000000000000DC
:1058CC0000000000000000000000000000000000CC
:1058DC0000000000000000000000000000000000BC
:1058EC00000000000090D0030090D00301000000E5
:0458FC001000000098
:04000005080016C910
:00000001FF
