:020000040800F2
:10000000000002204D160008D31500089D160008B8
:10001000D5150008D7150008D91500080000000004
:10002000000000000000000000000000DB150008D8
:10003000DD15000800000000DF150008F70E0008BD
:100040009D1600089D1600089D1600089D160008C4
:100050009D1600089D1600089D1600089D160008B4
:100060009D1600089D1600089D1600089D160008A4
:100070009D1600089D1600089D1600089D16000894
:100080009D1600089D1600089D1600089D16000884
:100090009D1600089D1600089D1600089D16000874
:1000A0009D1600089D1600089D1600089D16000864
:1000B000170F00089D1600089D1600089D160008E1
:1000C0009D1600089D1600089D1600089D16000844
:1000D0009D160008911200089D160008D313000811
:1000E0009D1600089D160008000000009D160008DF
:1000F0009D1600089D1600089D1600089D16000814
:100100009D1600089D1600089D1600089D16000803
:100110009D1600089D1600089D1600089D160008F3
:100120009D1600089D1600089D1600089D160008E3
:100130009D1600089D1600089D1600089D160008D3
:1001400000000000000000000000000000000000AF
:100150009D1600089D1600089D1600089D160008B3
:100160009D1600089D1600089D1600089D160008A3
:100170009D1600089D1600089D160008000000004E
:100180009D1600089D1600089D1600089D16000883
:100190009D1600089D1600089D1600089D16000873
:1001A0009D1600089D1600089D1600089D16000863
:1001B0009D1600089D1600089D1600089D16000853
:1001C0009D1600089D1600089D1600089D16000843
:1001D0009D1600089D1600089D1600089D16000833
:1001E0009D1600089D1600089D1600089D16000823
:1001F0009D1600089D1600089D1600089D16000813
:100200009D1600089D1600089D1600089D16000802
:100210009D1600089D1600089D1600089D160008F2
:100220009D1600089D1600089D160008000000009D
:100230009D1600089D160008000000009D1600088D
:100240009D1600089D1600089D1600089D160008C2
:100250009D1600089D1600089D1600089D160008B2
:100260009D1600089D1600089D1600089D160008A2
:100270009D1600089D1600089D160008000000004D
:100280009D1600089D1600089D160008000000003D
:08029000000000009D160008AB
:1002A00010B5054C237833B9044B13B10448AFF3B0
:1002B00000800123237010BD7400002000000000A6
:1002C000E84F000808B5034B1BB103490348AFF3DF
:1002D000008008BD0000000078000020E84F000802
:1002E00053B94AB9002908BF00281CBF4FF0FF319D
:1002F0004FF0FF3000F074B9ADF1080C6DE904CE99
:1003000000F006F8DDF804E0DDE9022304B07047F0
:100310002DE9F047089E04468846002B40F0858072
:100320008A42154648D9B2FA82F24AB1C2F1200790
:1003300001FA02F320FA07F7954047EA03089440D0
:100340004FEA154E230CB8FBFEF71FFA85FC0EFB97
:10035000178843EA084307FB0CF1994209D9EB18C7
:1003600007F1FF3080F0E380994240F2E080023FE5
:100370002B445B1AA4B2B3FBFEF00EFB103344EA2D
:10038000034400FB0CFCA44509D92C1900F1FF33F0
:1003900080F0CB80A44540F2C88002382C4440EA6B
:1003A0000740A4EB0C0400271EB1D4400023C6E98B
:1003B00000433946BDE8F087002A53D0B2FA82F2F2
:1003C000002A40F0B680491B4FEA154E1FFA85F807
:1003D0000127B1FBFEFC230C0EFB1C1143EA014379
:1003E00008FB0CF1994207D9EB180CF1FF3002D24F
:1003F000994200F2EC808446591AA3B2B1FBFEF098
:100400000EFB101443EA044408FB00F8A04507D98A
:100410002C1900F1FF3302D2A04500F2DC8018460F
:10042000A4EB080440EA0C40BEE78B4208D9002E3A
:1004300078D00027C6E9000138463946BDE8F08784
:10044000B3FA83F77FB98B4202D3824200F2BD80B8
:10045000841A61EB030301209846002EA9D0C6E957
:100460000048A6E7FFDEC7F12005BB4022FA05FCE5
:100470004CEA030C01FA07F420FA05F821FA05F317
:100480004FEA1C4E48EA0404B3FBFEF9210C0EFBB4
:1004900019331FFA8CF841EA034309FB08FA9A451D
:1004A00002FA07F200FA07F10BD91CEB030309F17A
:1004B000FF3080F088809A4540F28580A9F10209DA
:1004C0006344A3EB0A03A4B2B3FBFEF00EFB1033AC
:1004D00044EA034400FB08F8A04508D91CEB0404D7
:1004E00000F1FF336BD2A04569D90238644440EA79
:1004F0000940A4EB0804A0FB02894C45C6464B46C4
:1005000054D351D0002E69D0B1EB0E0264EB03043A
:1005100004FA05F522FA07F3FC401D43C6E900542E
:10052000002746E73746304643E7184637E7074691
:100530001FE7C2F1200320FA03F7954001FA02F009
:1005400021FA03F34FEA154E3843010CB3FBFEF7D3
:100550001FFA85F80EFB173341EA034107FB08F346
:100560008B4204FA02F407D9691807F1FF3C28D23C
:100570008B4226D9023F2944CB1A81B2B3FBFEF04D
:100580000EFB103341EA034100FB08F38B4207D90D
:10059000691800F1FF3C10D28B420ED90238294471
:1005A000C91A40EA074714E74145ABD2B8EB020E3F
:1005B00069EB0C0201381346A4E76046F0E71846E1
:1005C00095E76746D8E781467BE7384645E7ACF1D3
:1005D000020C2B4410E702382C4421E73746E8E6AA
:1005E000704700BF70B4840746D04C1E002941D02C
:1005F000D5B2034602E0611EE4B30C4603F8015B8A
:100600009907F8D1032C2ED9D5B245EA05250F2C30
:1006100045EA054519D9264603F11001103E0F2E73
:1006200041F8105C41F80C5C41F8085C41F8045C4E
:1006300001F11001F2D8A4F1100121F00F0104F032
:100640000F041031032C0B440DD91E4621460439EA
:10065000032946F8045BFAD8211F21F00301043175
:100660000B4404F003042CB1D2B21C4403F8012B58
:10067000A342FBD170BC70470C460346C2E70000A2
:1006800001F0FF01102A2BDB10F0070F08D010F843
:10069000013B013A8B422DD010F0070F42B3F6D147
:1006A000F0B441EA012141EA014122F007047FF060
:1006B00000070023F0E80256083C85EA010586EAB7
:1006C000010685FA47F5A3FA87F586FA47F6A5FAF3
:1006D00087F68EB9EED1F0BC01F0FF0102F00702FF
:1006E00032B110F8013B013A83EA010313B1F8D1AA
:1006F0000020704701387047002D06BF354603388B
:10070000073815F0010F07D1013015F4807F02BFC3
:10071000013015F4C03F0130F0BC0138704700BF14
:1007200070B50D4D0D4C641BA4100026A64209D1D6
:100730000B4D0C4C04F058FC641BA4100026A64280
:1007400005D170BD55F8043B98470136EEE755F8E2
:10075000043B98470136F2E77453000874530008CD
:10076000745300087853000802440346934200D1B2
:10077000704703F8011BF9E780B56F4600F010F8E9
:1007800000F086F841F2F810C2F2000040F6147151
:100790000160006841F20001C6F20001086080BDFE
:1007A000F0B503AF4DF804BD86B044F2E040C5F6A5
:1007B0000200016841F008010160016801F00801D0
:1007C00001910199016841F010010160016801F097
:1007D000100101910199016841F040010160016837
:1007E00001F0400101910199016841F0800101602F
:1007F000016801F0800101910199016841F4807163
:100800000160016801F480710191019950F80C1C9C
:1008100041F4805140F80C1C50F80C0C00F480504E
:1008200000900C20059003260496012003900220DE
:1008300002904CF2B3700190009840F60045C5F666
:10084000020501AC2846214600F0FAFF4FF6807001
:10085000019005F58060214600F0F2FF019605F554
:100860004060214600F0ECFF4FF47F40019005F519
:100870008050214600F0E4FF40F2CF60019005F582
:10088000A050214600F0DCFF06B05DF804BBF0BDCF
:1008900080B56F469AB000201990CDE9170044F258
:1008A0000001C5F2002107914FF48052CDE90F02FB
:1008B000CDE90D002022CDE90B02CDE9090001F5BB
:1008C0008271089106900221CDE904110122039260
:1008D000CDE9011105210091CDE91500CDE9130005
:1008E000CDE9110007A869460A4601F025FF38B195
:1008F00045F20400C0F600004FF4927100F016FEBD
:100900001AB080BD002941F2F811C2F200010A6854
:1009100014BF104322EA00000860086841F2000199
:10092000C6F200010860704741F2F811C2F20001FE
:100930000968084018BF0120704780B56F4600F075
:1009400004F8BDE8804000F034B880B56F4640F24E
:100950009000C2F200004FF0000C80F80CC080F84C
:100960000BC080F80AC040F2A00EC2F2000E642252
:10097000022300200EEB00018A6081F80CC00B718D
:100980001030A028F6D103206421062200F06FF871
:1009900004206421062200F06AF805206421062262
:1009A00000F065F8062064210622BDE8804000F0D2
:1009B0005EB8F0B503AF4DF804BD86B044F2E04038
:1009C000C5F60200016841F002010160016801F012
:1009D000020101910199016841F00401016001687F
:1009E00001F0040101910199016841F040010160A9
:1009F000016801F0400101910199016841F0800115
:100A00000160016801F0800101910199016841F4E0
:100A100080710160006800F48070009003200490F1
:100A20000020CDE9020000986FF0070545F2280686
:100A3000C0F6000601AC70198189019180682146D9
:100A400000F0FEFE0835382DF5D106B05DF804BB88
:100A5000F0BD40F29001C2F20001CA7A8854C87A0F
:100A60000130C2B2092A88BF0020C872704740F224
:100A7000A003C2F2000303EB001000230373C27251
:100A800001817047D0B502AF0024E0B200F005F854
:100A90000134E0B20A28F8D3D0BDB0B502AF0446A5
:100AA00040F2A000C2F2000000EB0415204600F066
:100AB00058F8294611F8042F28B3042A9EBF0520B0
:100AC0000870B0BD092A9EBF501C0870B0BD2846F2
:100AD00010F80A1F39B90121017004EB44000130FC
:100AE000C0B2FFF7B6FF2889D0B3294631F8062FE8
:100AF00082420DD201320A8091B2814230D104EBA0
:100B00004400033013E0062A16D30520087024E0C1
:100B1000E87A28B315F80C1F01312970C9B2814257
:100B200038BFB0BD0020287004EB44000130C0B2D3
:100B3000BDE8B040FFF78DBF12B1501E08700CE049
:100B4000284610F80A1F012907D10021017004EB83
:100B500044000230C0B2FFF77CFF00202873E88019
:100B6000B0BDF0B503AF4DF8048D8046072818D806
:100B70000025FF260024E0B200F034F800281CBF56
:100B80002646012005440134E0B20828F3D386EA62
:100B9000080085F001010843C0B2B0FA80F04409B2
:100BA0001CE0B8F1090F0ED0B8F1080F15D10020E4
:100BB00000F018F888B10124012000F013F8002893
:100BC00008BF00240AE0012000F00CF828B1022040
:100BD00000F008F808B1012400E0002420465DF888
:100BE000048BF0BD45F22801C0F6000101EBC00204
:100BF000938851F830000069184018BF012091799E
:100C0000401AB0FA80F04009704780B56F46012065
:100C100000F00BF8022000F008F8032000F005F8BF
:100C20000420BDE8804000F000B80138C1B20329BB
:100C300088BF704740B245F26801C0F6000151F824
:100C400020000121FFF75EBE0138C1B2032988BF31
:100C5000704740B245F26801C0F6000151F820002B
:100C60000021FFF74FBE0138C1B2032988BF70478A
:100C7000D0B502AF40B245F26801C0F6000151F8AC
:100C800020402046FFF750FEB0FA80F04109204690
:100C9000BDE8D040FFF736BE80B56F466FF00B0061
:100CA00040F24411C2F2000100220B181A615A618D
:100CB0005A731A730C302428F7D140F26400C2F240
:100CC0000000006844F6D351C1F26201A0FB0101AB
:100CD000880900F00AF840F27410C2F20000012105
:100CE0000170BDE8804000F013B8B0B502AF013824
:100CF0000024B4EB106F18BFB0BD4EF21005CEF259
:100D00000005686000F053F9AC6007202860B0BDB2
:100D1000D0B502AF92B002AC04F11C00242103F064
:100D20006AF944F2E840C5F60200016841F00101A9
:100D30000160006800F001000190002006904FF073
:100D4000FF3105914FF0804202928022CDE90702E7
:100D5000049040F26400C2F2000000684DF6836225
:100D6000C4F21B32A0FB020201EBD24080B203901E
:100D70000198204602F02AF938B145F29800C0F6F1
:100D800000004FF40C7100F0D1FB1C200021022266
:100D900000F097FC1C2000F0D9FC02A802F0CEF96C
:100DA00012B0D0BDB0B502AF40F27810C2F2000070
:100DB000016849B101680139016005D140F27C1038
:100DC000C2F2000001210170002440F24415C2F279
:100DD0000005281900F024F80C34302CF9D140F229
:100DE0004010C2F2000001680131016001686FF03B
:100DF0000042914204BF0021016000F09DFB40F2DF
:100E00007510C2F20000017801310170C9B20A29DF
:100E100038BFB0BD00210170BDE8B04000F08ABB12
:100E20004168002908BF704741680139416000D01E
:100E30007047012141700178012904BF8168416038
:100E40007047D0B502AF002808BFD0BD012808BF49
:100E50000220012181F3108840F27811C2F20001D2
:100E6000086040F27C14C2F200040020207080F37D
:100E7000108800F062FB20780128FAD1D0BD80B53F
:100E80006F4604280ED345F27800C0F6000045F204
:100E90009801C0F6000145F2C702C0F6000203F057
:100EA000ADF8FEE74FF0010C8CF3108800EB40002A
:100EB00040F24413C2F2000303EB800251609160E0
:100EC0000021517003F820C081F3108880BD0328F1
:100ED00084BF0020704700EB400040F24411C2F292
:100EE000000101EB800111F8012F0020012A04BF4D
:100EF00008700120704780B56F4602F054FE40F242
:100F00007410C2F20000007800281CBFBDE88040C9
:100F1000FFF748BF80BDD0B502AF0C24C4F2000477
:100F200060682168084080070BD54FF6FD7060604F
:100F300021680840206040F28010C2F20000006882
:100F4000804760682168084040070BD54FF6FB706A
:100F5000606021680840206040F28410C2F2000006
:100F60000068804760682168084000070BD54FF68D
:100F7000F770606021680840206040F28810C2F27B
:100F8000000000688047606821680840C00658BFBC
:100F9000D0BD4FF6EF70606021680840206040F2DD
:100FA0008C10C2F200000068BDE8D04000474EF649
:100FB0002350CEF20000F0210170704780B56F46DB
:100FC00000F006F800F052F8BDE8804000F00FB9DC
:100FD000B0B502AF40F29012C2F2000200201082BF
:100FE0005082D08210835083908240F2BC11C2F2B2
:100FF000000108824882C88208834FF0042340F22F
:10100000E85CC2F2000C40F2E81EC2F2000EC2E937
:101010000700506282F8280044F60004C4F200047D
:1010200004F54845C2E9005EC2E902C3488340F6C0
:10103000E852C2F2000240F6E815C2F20005C1E92A
:101040000045C1E9022381F8280041F28F22C0F651
:10105000000241F28123C0F6000341F27325C0F67D
:101060000005C1E907534A628882B0BDF0B503AFFD
:101070002DE9000FB5B000201F904FF00108CDF80A
:10108000048001A800F0A8FC44F2E045C5F6020582
:10109000286840F001002860286800F001003090C6
:1010A0003098286840F001002860286800F00100AE
:1010B00030903098286940F010002861286900F0CD
:1010C000100000904FF0070ACDF8D0A00320CDE922
:1010D0003280022031904FF400703090009840F23E
:1010E0000009C5F6020930AC4846214600F0A8FBCD
:1010F000CDF8D0A04FF4806BCDF8C0B04846214663
:1011000000F09EFB25200021012200F0DAFA2520C4
:1011100000F01CFB41F20006C4F2010630464FF419
:10112000E13100220C2300F083F8306A40F04000E7
:101130003062308B40F008003083306840F020008F
:101140003060286840F002002860286800F0020043
:1011500000900098286840F002002860286800F09D
:10116000020000900098A86840F48020A860A86859
:1011700000F480200090CDF8C880CDF8D0A00320E6
:1011800033900220CDE930B0009809F580652846FB
:10119000214600F055FBCDF8D0A04FF40060309010
:1011A0002846214600F04CFB27200021032200F0B6
:1011B00088FA272000F0CAFA44F60004C4F20004BA
:1011C00020464FF4165100220C2300F031F8206A1B
:1011D00040F040002062208B40F00800208320680F
:1011E00040F02000206035B0BDE8000FF0BD80B5B4
:1011F0006F4686B044F2E040C5F60200016841F057
:1012000002010160006800F00200009003200490D9
:10121000002003900120029004200190009840F2E9
:101220000040C5F6020001A900F00AFB06B080BD2F
:1012300080B56F46A0B04FF0000CCDE903C28DE839
:101240000310CDE9053CCDE907CCCDE909CCCDE9CA
:101250000BCCCDF834C0684601F07DFF38B145F2C3
:10126000E800C0F6000040F22A3100F05FF920B03B
:1012700080BD40F21840C5F602000421018070478D
:1012800040F21A40C5F60200042101807047704701
:1012900040F29010C2F2000000F000B8F0B503AFC9
:1012A0004DF804BD04460068C56906688168A90652
:1012B00017D5808CE18AA2685054E18A4A1CE282E8
:1012C000E18992B28A4224BF0022E282628B8A4282
:1012D0003EBF618B01316183616A00291CBFC0B2CE
:1012E000884706EA0500010615D5A18A49B3012100
:1012F00084F82810618AD4E90023595C1185618A39
:1013000001316182A28989B2914224BF00216182A8
:10131000A18A0139A18240062BD5A08AE8B1608A52
:10132000D4E90012105C0885608A01306082A189CE
:1013300080B2884224BF00206082A08A0138A08247
:1013400017E021680A6822F080020A600A6842F009
:1013500040020A604006E0D40BE02068016821F0FA
:1013600040010160206A002818BF8047002084F8EF
:1013700028002068016A41F001010162016A41F020
:1013800002010162016A41F004010162016A41F057
:1013900008010162016A41F010010162016A41F035
:1013A00040010162016A41F480710162016A41F405
:1013B00000710162016A41F400310162016A41F485
:1013C00080110162016A41F0200101625DF804BBF5
:1013D000F0BD40F2BC10C2F20000FFF75FBF80B565
:1013E0006F4600F012F800F03DF802F0A4FB00F0A8
:1013F00041F8FFF7A2FAFFF74FFCFFF7DFFDFFF719
:10140000BBF9BDE88040FFF700BCD0B502AF84B0A7
:1014100000F0C9F94FF0105001900120ADF8000024
:101420000020C0F2011003901220C0F2013002909F
:101430006C46204600F0D4F94FF0C040019040F2D5
:101440000110ADF800004FF0807003900F20C0F243
:1014500000300290204600F0C3F9042000F0B0F9FB
:1014600004B0D0BD80B56F4600F068F8BDE880409C
:1014700000F07CB8B0B502AF9CB044F61800C5F6D9
:10148000020050F80C1C21F0040140F80C1C002153
:101490000191016841F440410160016801F440415B
:1014A0000191019901688904FCD5022010900E90E9
:1014B000A0210D9105210C91CDE90A00002408948A
:1014C00004944FF480300290012001901294042083
:1014D0000F900825119501A801F067F940201B9095
:1014E0004FF480611A91CDE91800CDE9164503202B
:1014F00015903F20149014A8042101F0A6FB44F29B
:10150000F440C5F6020050F8F41C41F0800140F8A8
:10151000F41C016841F002010160006800F0020063
:101520000090009802F052FB1CB0B0BD002908BF2B
:101530007047FEE7FFF7A6BA70477047BFF34F8FBB
:10154000BFF36F8F4EF61450CEF200000021C0F8AA
:101550003C12BFF34F8FBFF36F8F016841F400312E
:101560000160BFF34F8FBFF36F8F7047F0B503AFCC
:101570004DF804BD4EF61450CEF200000021016774
:10158000BFF34F8FC26EC2F34E31C2F3C9024FEAAE
:10159000827E531C43F6E07C0CEA411274461D46E1
:1015A00044EA0206C0F84C6204F14044013DF7D120
:1015B0004A1E00291146EFD1BFF34F8F016841F455
:1015C00080310160BFF34F8FBFF36F8F5DF804BBB5
:1015D000F0BD7047FEE7FEE7FEE7704770477047D3
:1015E0004EF6885CCEF2000CDCF8001041F470017D
:1015F000CCF8001044F20041C5F602010A6842F03E
:1016000001020A6000220A610B684EF67F50CEF696
:10161000F620184008608A61CA610A628A62CA625A
:101620000A634A638A63CA630A644A64086820F4E6
:10163000802008600A6648F20810C5F200100121F7
:1016400001604FF000604CF8800C7047DFF834D038
:10165000002103E00C4B5B584350091D0B480C4B19
:1016600042189A42F6D30B4A02E0002342F8043BA8
:10167000094B9A42F9D3FFF7B3FFFFF751F802F095
:10168000A5FB7047000002207C53000800000020EA
:1016900074000020740000200C120020FEE700F00F
:1016A00000B84EF60C51CEF200010A684FF6FF0367
:1016B0001A4060F30A2242F0806040F0FD7008603A
:1016C0007047F0B503AF4DF804BD14460D4606460D
:1016D00000F00CF82946224600F021F80146304679
:1016E0005DF804BBBDE8F04000F008B84EF60C50C1
:1016F000CEF200000068C0F30220704700F1604C99
:1017000000F00F034EF61452CEF200021A44B0F16C
:10171000FF3FC8BF0CF5644208011070704700F02D
:101720000700C31E38BF002380F00700042828BF2D
:1017300004204FF0FF3C0CFA00F021EA0000984032
:101740000CFA03F122EA01010843704700F000B8E7
:10175000002848BF704700F01F01012202FA01F182
:1017600040094EF20012CEF2000242F820107047FB
:1017700000F000B8B0B502AF01380024B4EB106F30
:101780001EBF01242046B0BD4EF21005CEF200056A
:1017900068604FF0FF300F21FFF7B0FFAC6007200B
:1017A00028602046B0BDBFF35F8F4EF62450CEF2C6
:1017B0000000016821F48031016000210167704759
:1017C00040F001004EF62451CEF20001086708688F
:1017D00040F480300860BFF34F8FBFF36F8F7047C6
:1017E000D0B502AF42784EF69C5ECEF2000E4EF8B7
:1017F000042C0278F2B14368CEF80030037B42EA51
:10180000037290F808C0437A817AC47A42EA04628B
:1018100042EAC141427B41EA8241827B41EA424144
:10182000C07B41EA004040EA032040EA4C00CEF889
:101830000400D0BD0020CEF80000CEF80400D0BDDA
:10184000F0B503AF2DE9000F83B042F20042C5F6B8
:1018500002020A23904208BF0923019300F12642A5
:1018600002F1FF724FEAB222009200224FF0010E05
:101870004FF000084FF0000A08E0023208F10408B7
:101880000AF1010ABAF1100F00F0A1800EFA0AFB6A
:101890000E6816EA0B09F0D04E6846F01006122EBC
:1018A00010D108F01C060F2303FA06F46FF00303AF
:1018B00003EA5A0303441D6AA5430C6904FA06F6B9
:1018C0002E431E6203239340066826EA03054E68F2
:1018D00006F003049440254305606FEA030C122EC2
:1018E00016D80EFA06F313F0061F1FBF836803EA2B
:1018F0000C03CC6894401FBF23438360C6F30013DE
:1019000003FA0AF31FBF446824EA0B04234343602D
:10191000C36803EA0C038D6895402B43C360F30052
:10192000ABD544F2F443C5F602031E461B6843F0F0
:1019300002033360336803F002030293029B2AF030
:10194000030340F20846C5F60006B3469E5908F068
:101950000C050F24AC4026EA040C009E092E019CC5
:1019600038BF344604FA05F545EA0C0643F80B6027
:101970000423C5F600039C46DB6F43EA09064D6865
:10198000EC0358BF23EA0906CCF87C60DCF8803011
:1019900043EA0906AC0358BF23EA0906CCF8806085
:1019A0004FF0B04BDBF8003043EA0906EC0258BFB9
:1019B00023EA0906CBF80060DCF8003043EA0906A8
:1019C000AD0258BF23EA0906CCF8006055E703B022
:1019D000BDE8000FF0BD0000F0B503AF2DE9000732
:1019E0000446C078000744F22C49C5F6020926D502
:1019F000606E4FEA305003280AD8DFE800F0020C8E
:101A00001118D9F8000040F40030C9F800000EE0C9
:101A10004FF0010815E0201D022100F05AFC04E0FF
:101A200004F12400022100F0D4FC804648B9D9F822
:101A30002400616E20F440100843C9F824004FF0E0
:101A400000086078C00701D146462DE0606D04288B
:101A500007D84646DFE800F007191E0303000EBB57
:101A600009E001261EE0D9F8000040F40030C9F872
:101A700000004646B6B9D9F82400616D20F0070091
:101A80000843C9F8240000260EE0201D002100F0C4
:101A900020FC04E004F12400002100F09AFC06463A
:101AA000002EE8D048EA0608607880072DD5A06DA2
:101AB0004FEAB010042806D8DFE800F007181D032D
:101AC000030006BB08E001261DE0D9F8000040F441
:101AD0000030C9F80000B6B9D9F82400A16D20F48F
:101AE000E0700843C9F8240000260EE0201D002104
:101AF00000F0EFFB04E004F12400002100F069FC99
:101B00000646002EE8D048EA0608607840072FD540
:101B1000D4F8A4004FEA7050042806D8DFE800F09B
:101B200007191E0303000EBB08E001261EE0D9F8CA
:101B3000000040F40030C9F80000BEB9D9F82C000C
:101B4000D4F8A41020F460000843C9F82C00002643
:101B50000EE0201D002100F0BCFB04E004F1240095
:101B6000002100F036FC0646002EE7D048EA0608C1
:101B7000607800072FD5D4F8A8004FEA3060042819
:101B800006D8DFE800F007191E0303000EBB08E0CB
:101B900001261EE0D9F8000040F40030C9F800002A
:101BA000BEB9D9F82C00D4F8A81020F0E0600843A2
:101BB000C9F82C0000260EE0201D002100F089FB52
:101BC00004E004F12400002100F003FC0646002E8E
:101BD000E7D048EA0608E078800726D5A06C4FEAEF
:101BE0003010032805D8DFE800F0020610024EB9D5
:101BF00012E0012606E0D9F8000040F40030C9F8F0
:101C000000004EB148EA06080FE0201D022100F056
:101C100060FB0646002EF5D1D9F82000A16C20F01B
:101C200030000843C9F8200000266078C0062DD592
:101C3000E06D4FEA3030042806D8DFE800F00718DE
:101C40001D03030006BB08E001261DE0D9F80000D3
:101C500040F40030C9F80000B6B9D9F82400E16DAD
:101C600020F4E0400843C9F8240000260EE0201DBF
:101C7000002100F02EFB04E004F12400002100F01C
:101C8000A8FB0646002EE8D048EA060860788006E1
:101C900025D5206E4FEA3040052806D8DFE800F051
:101CA00003070C03030376B910E001260BE0201DA7
:101CB000012100F00EFB04E004F12400012100F0FA
:101CC00088FB064616B148EA060808E0D9F8240061
:101CD000216E20F4E0200843C9F824000026607833
:101CE000400627D5D4F8AC004FEA3070052806D856
:101CF000DFE800F003070C03030376B910E00126C8
:101D00000BE0201D012100F0E4FA04E004F12400BE
:101D1000012100F05EFB064616B148EA060809E01C
:101D2000D9F82C00D4F8AC1020F0E0400843C9F8F2
:101D30002C0000266078000622D5E06E58B1B0F184
:101D4000005F0AD0B0F1805F17D1D9F8000040F4ED
:101D50000030C9F800008EB905E0201D012100F017
:101D6000B8FA064656B9D9F82400E16E20F0405082
:101D70000843C9F82400002602E0012648EA0608C4
:101D8000E078C00724D0606C032805D8DFE800F0B5
:101D9000020610024EB912E0012606E0D9F8000052
:101DA00040F40030C9F800004EB148EA06080FE0E0
:101DB000201D022100F08DFA0646002EF5D1D9F83B
:101DC0002000616C20F003000843C9F820000026C1
:101DD000A078400616D5D9F8D40340F48070C9F82D
:101DE000D40301F0EDFE0546D9F8D403C00506D4AE
:101DF00001F0E6FE401B6428F6D9032600E086B118
:101E000048EA06082078C00753D0A06F4FEAF000D8
:101E1000052834D8DFE800F003353A030303E6BBB6
:101E20003EE0D9F84410D4F8B000414011F4407FAE
:101E300011D0D9F84410D9F8442042F48032C9F8BE
:101E40004420D9F8442022F48032C9F8442021F4F7
:101E50004071C9F84410B0F5807F40F01D8201F058
:101E6000AFFE054641F2883AD9F84400800700F1F8
:101E7000108201F0A5FE401B5045F5D9BDE70126B3
:101E80000BE0201D012100F024FA04E004F12400FD
:101E9000012100F09EFA064616B148EA060808E05D
:101EA000D9F82800A16F20F038000843C9F82800AD
:101EB00000262078800723D5606F052806D8DFE844
:101EC00000F003070C03030376B910E001260BE0D2
:101ED000201D012100F0FDF904E004F1240001219E
:101EE00000F077FA064616B148EA060808E0D9F885
:101EF0002800616F20F007000843C9F82800002679
:101F00002078400725D5D4F89000052806D8DFE8CA
:101F100000F003070C03030376B910E001260BE081
:101F2000201D012100F0D5F904E004F12400012175
:101F300000F04FFA064616B148EA060809E0D9F85B
:101F40002C00D4F8901020F007000843C9F82C00AA
:101F500000262078800627D5D4F88C004FEA307010
:101F6000052806D8DFE800F003070C03030376B961
:101F700010E001260BE0201D002100F0AAF904E08A
:101F800004F12400022100F024FA064616B148EAC2
:101F9000060809E0D9F82800D4F88C1020F0E040B9
:101FA0000843C9F8280000262078400627D5D4F831
:101FB00098004FEAB020052806D8DFE800F00307B4
:101FC0000C03030376B910E001260BE0201D00216D
:101FD00000F07FF904E004F12400022100F0F9F997
:101FE000064616B148EA060809E0D9F82C00D4F8EC
:101FF000981020F4E0500843C9F82C0000262078FF
:10200000000627D5D4F89C004FEA7030052806D882
:10201000DFE800F003070C03030376B910E00126A4
:102020000BE0201D002100F054F904E004F124002D
:10203000022100F0CEF9064616B148EA060809E08A
:10204000D9F82C00D4F89C1020F460400843C9F85B
:102050002C0000262078000713D5D4F88000B0F5B6
:10206000805F07D104F12400022100F0B2F948EAB0
:10207000000806E0D9F8281021F440510843C9F8B7
:1020800028002078C00613D5D4F89400B0F5807FDE
:1020900007D104F12400022100F09BF948EA00086E
:1020A00006E0D9F82C1021F440710843C9F82C003F
:1020B000A078000722D5D4F8A000B0F5003F0ED0DC
:1020C000B0F5803F05D0B0B9201D002100F001F926
:1020D00004E004F12400022100F07BF906465EB919
:1020E000D9F82C00D4F8A01020F440300843C9F8E7
:1020F0002C00002602E0012648EA0608A0784007E6
:1021000027D5D4F88400B0F5401F0BD0B0F5001FE0
:102110000AD0B0F5801F19D1D9F8000040F4003082
:10212000C9F800009EB906E004F12400012100F086
:1021300050F906465EB9D9F82800D4F8841020F486
:1021400040100843C9F82800002602E0012648EAAA
:102150000608A078C0071FD0E06CB0F5803F08D01B
:10216000B8B9D9F8000040F40030C9F800008EB9C1
:1021700005E0201D022100F0ACF8064656B9D9F85A
:102180002000E16C20F480300843C9F820000026CC
:1021900002E0012648EA06082068810015D4810380
:1021A0001DD4C1023DD4C10045D481024ED44100AA
:1021B00056D4B0F1FF3F63DDB8F1000F18BF4FF008
:1021C00001084046BDE80007F0BD04F124000221EB
:1021D00000F0FFF848EA000820688103E1D5E16FCC
:1021E0006FF0010202EB3122022A0AD34FEA3122B8
:1021F0003AB1012A10D1D9F8002042F40032C9F8CE
:10220000002056B9D9F8282022F440721143C9F8A9
:102210002810C102C7D504E0012648EA0608C10219
:10222000C1D5D9F82410226F21F000411143C9F81B
:102230002410C100B9D559F81C1CD4F8B42021F4DD
:102240008041114349F81C1C8102B0D5D9F82410F3
:10225000A26E21F080711143C9F824104100A8D565
:1022600059F81C1C21F4004149F81C1CD4F8B81082
:1022700059F81C2C114349F81C1CB0F1FF3F9BDCA2
:10228000D9F82000216D20F040500843C9F8200003
:1022900092E7002E7FF4B4ADD4F8B00059F81C1CBE
:1022A00021F47C5100F44072B2F5407F01BF4FF63B
:1022B000CF72C0F2FF0202EA1012114349F81C1C4F
:1022C000D9F844106FF31F300843C9F844000026C2
:1022D00098E5F0B503AF4DF8048D044644F22C4563
:1022E000C5F6020555F8040C00F00300032802BFF0
:1022F00001205DF8048BF0BD884655F82C0C20F0C9
:10230000806045F82C0C01F05BFC064655F82C0C5F
:10231000000105D501F054FC801B0228F6D950E0DD
:1023200055F8040C216820F47C3040EA013045F86F
:10233000040C231D0FCB4FF47E4606EB412189B2DE
:1023400001386FF35F2008444FF4FE0101EB0241B6
:1023500001F4FE0108444FF0FE4101EB036101F07E
:10236000FE410844E8602868616920F0C000084325
:1023700028602868A16920F0200008432860B8F18F
:10238000000F08D02868B8F1010F14BF40F4001006
:1023900040F4801002E0286840F40020286055F8DE
:1023A0002C0C40F0806045F82C0C01F009FC044630
:1023B00055F82C0C000108D401F002FC001B032886
:1023C000F6D303205DF8048BF0BD00205DF8048B8C
:1023D000F0BDF0B503AF4DF8048D044644F22C4532
:1023E000C5F6020555F8040C00F00300032802BFEF
:1023F00001205DF8048BF0BD884655F82C0C20F0C8
:10240000805045F82C0C01F0DBFB064655F82C0CEF
:10241000800005D501F0D4FB801B0228F6D950E0DE
:1024200055F8040C216820F07C7040EA015045F812
:10243000040C231D0FCB4FF47E4606EB412189B2DD
:1024400001386FF35F2008444FF4FE0101EB0241B5
:1024500001F4FE0108444FF0FE4101EB036101F07D
:10246000FE41084468612868616920F440600843BF
:1024700028602868A16920F4007008432860B8F13A
:10248000000F08D02868B8F1010F14BF40F0807029
:1024900040F4000002E0286840F48000286055F80D
:1024A0002C0C40F0805045F82C0C01F089FB0446C0
:1024B00055F82C0C800008D401F082FB001B032887
:1024C000F6D303205DF8048BF0BD00205DF8048B8B
:1024D000F0BD000080B56F4644F2384CC5F6020CE2
:1024E0005CF8102C5CF810EC5CF80C3C03F010036A
:1024F000DCF80410C1F3CC01594302F00303CEF31E
:10250000053200EE101AB8EE400A022B0ED093B935
:102510005CF8381C890649F20003C0F2D03342BF90
:102520005CF8381CC1F3C101CB4008E047F640031A
:10253000C0F27D1303E040F60013C0F23D03DCF867
:1025400000106FF35F2101EE101A9FED202AB3FBFC
:10255000F2F1DCF80020B8EE411AC2F34622B7EEE1
:10256000003A04EE101A00EE021A511CB8EE440AAA
:1025700031EE031A02EE101AB8EE422A21EE000ADA
:1025800080EE021ABCEEC11A80ED001ADCF80010D1
:10259000C1F30641013101EE101AB8EE411A80EE86
:1025A000011ABCEEC11A80ED011ADCF80010C1F36B
:1025B0000661013101EE101AB8EE411A80EE010AEF
:1025C000BCEEC00A80ED020A80BD00BF00000039E9
:1025D00080B56F4644F2404CC5F6020C5CF8182CEE
:1025E0005CF818EC5CF8143C03F48073DCF804101D
:1025F000C1F3CC01594302F00303CEF3055200EEC0
:10260000101AB8EE400A022B0ED093B95CF8401CA9
:10261000890649F20003C0F2D03342BF5CF8401C87
:10262000C1F3C101CB4008E047F64003C0F27D137F
:1026300003E040F60013C0F23D03DCF800106FF336
:102640005F2101EE101A9FED202AB3FBF2F1DCF8B6
:102650000020B8EE411AC2F34622B7EE003A04EE6B
:10266000101A00EE021A511CB8EE440A31EE031A99
:1026700002EE101AB8EE422A21EE000A80EE021A8B
:10268000BCEEC11A80ED001ADCF80010C1F306415F
:10269000013101EE101AB8EE411A80EE011ABCEEBB
:1026A000C11A80ED011ADCF80010C1F30661013196
:1026B00001EE101AB8EE411A80EE010ABCEEC00A13
:1026C00080ED020A80BD00BF0000003980B56F4672
:1026D00000F02EFC44F22041C5F6020109681022E8
:1026E00092FAA2F2B2FA82F201F07001D14045F200
:1026F0000C12C0F60002515CC84080BD80B56F4628
:1027000000F0A2FB44F21841C5F6020109684FF43B
:10271000807292FAA2F2B2FA82F201F47061D140B0
:1027200045F20C12C0F60002515CC84040F2640150
:10273000C2F20001086080BD002804BF012070477C
:10274000F0B503AF4DF804BD15460E46044690F8AB
:10275000450028B9002084F84400204600F024F801
:10276000206804F1080101F03AFA2068A2683146B5
:1027700001F07FFAD4E90102E36A294601F0AEFADA
:102780002068A16850F8212042F0010240F8212081
:1027900044F20000C5F20020016841F000410160F0
:1027A00000205DF804BBF0BD7047F0B503AF2DE924
:1027B000000B81460078C00744F20046C5F60206C9
:1027C00052D0306900F03800102807D130688003FB
:1027D0004AD5D9F80400002846D158E1306900F004
:1027E0003800182804D1B06A00F003000228EDD0A8
:1027F000D9F8040068B1B0F5803F06D03168B0F573
:10280000A02F1CD141F480203060306840F480302B
:102810001BE0306820F480303060306820F4802085
:10282000306001F0CDF9054641F28834306880030C
:102830001AD501F0C5F9401BA042F7D93DE121F4BA
:1028400080303060306820F48020306001F0B8F9CA
:10285000054641F288343068800305D401F0B0F9B0
:10286000401BA042F7D928E199F80000800760D505
:10287000306910F0380F1CD0306900F0380018288B
:1028800004BFB06A5FEA807013D0D9F80C003168D9
:1028900050B321F019010843306001F091F9054669
:1028A0003068400737D401F08BF9401B0228F7D974
:1028B00003E13068400704D5D9F80C00002800F087
:1028C000E6803068D9F80C1020F019000843306019
:1028D00001F076F905463068400714D401F070F92C
:1028E000401B0228F7D9E8E021F00100306001F038
:1028F00067F90546306840071BD501F061F9401BB8
:102900000228F7D9D9E07068D9F810104FF47C325A
:1029100092FAA2F206E07068D9F810104FF47C32F7
:1029200092FAA2F2B2FA82F2914020F47C3008438B
:10293000706099F80000C0064FD5306900F038008B
:1029400008280FD13068C00504D5D9F81C008028AC
:1029500040F09D807068D9F820104FF0F84292FA4C
:10296000A2F233E0306900F03800182804D1B06AD0
:1029700000F003000128E5D0D9F81C10306871B1CF
:1029800040F08000306001F01BF905463068C0055A
:1029900015D401F015F9401B0228F7D98DE020F07D
:1029A0008000306001F00CF905463068C00514D590
:1029B00001F006F9411B03200229F6D942E17068B3
:1029C000D9F820104FF0F84292FAA2F2B2FA82F24D
:1029D000914020F0F8400843706099F8000000072B
:1029E00021D5D9F81410706F71B140F001007067F3
:1029F00001F0E6F80546706F800714D401F0E0F8A6
:102A0000401B0228F7D958E020F00100706701F060
:102A1000D7F80546706F800705D501F0D1F8401B47
:102A20000228F7D949E099F80000800621D5D9F8A5
:102A30001810306871B140F48050306001F0C0F877
:102A400005463068800414D401F0BAF8401B02280F
:102A5000F7D932E020F48050306001F0B1F805463B
:102A60003068800405D501F0ABF8401B0228F7D987
:102A700023E099F8000040070DD4D9F82440002C39
:102A800000F0C680306900F03800182829D10120F4
:102A9000BDE8000BF0BDD6F8000440F48070C6F825
:102AA000000401F08DF80546D6F80004C00508D4EE
:102AB00001F086F8401B6428F6D90320BDE8000B1E
:102AC000F0BDD9F8080050B3012806D0316F0528B1
:102AD00040F0A28041F004003067306F40F0010008
:102AE000A0E0306820F08070306001F069F80546A1
:102AF000022C09D13068800128D501F061F8411B12
:102B000003200229F6D99DE03068800140F18080E1
:102B100001F056F8411B03200329F5D392E0306FF2
:102B200020F001003067306F20F00400306701F0C2
:102B300047F8054641F28838306F80079DD501F08F
:102B40003FF8411B03204145F6D97BE0B06A40F2D3
:102B5000F3318843D9E90A12084340EA0210B0620F
:102B600009F130030FCB4FF47E4505EB412189B2CB
:102B700001386FF35F2008444FF4FE0101EB02417E
:102B800001F4FE0108444FF0FE4101EB036101F046
:102B9000FE4108443063706B4FF6F8718843D9F8F2
:102BA000482091FAA1F1B1FA81F102FA01F108434A
:102BB0007063F06AD9F8401020F00C000843F0620E
:102BC000F06AD9F8441020F002000843F062F06A7D
:102BD00040F48030F062F06A40F40030F062F06A55
:102BE00040F48020F062F06A40F00100F06230684A
:102BF00040F08070306000F0E3FF044630688001F0
:102C000006D400F0DDFF011B03200229F6D919E0EC
:102C10000020BDE8000BF0BD21F001003067306FEF
:102C200020F00400306700F0CBFF054641F2883801
:102C3000306F80073FF521AF00F0C2FF411B03203A
:102C40004145F5D9BDE8000BF0BDF0B503AF2DE966
:102C500000070D46044642F20009C5F20029D9F8E2
:102C6000000000F0070088420CD2D9F8000020F0E4
:102C700007002843C9F80000D9F8000000F0070059
:102C8000A84264D12068810744F21848C5F60208BA
:102C900007D5D8F80010E26821F00F011143C8F8F9
:102CA0000010C00742D1D9F8000000F00700A84288
:102CB0000CD9D9F8000020F007002843C9F800001B
:102CC000D9F8000000F00700A84240D12068410771
:102CD00041D4010749D4C10651D4800607D5D8F89C
:102CE0000800E16920F070000843C8F8080000F00F
:102CF000ABF8D8F800104FF4807292FAA2F2B2FA50
:102D000082F201F47061D14045F20C12C0F600026B
:102D1000515CC84040F26401C2F2000108600F201B
:102D200000F019FF0020BDE80007F0BDD8F8000052
:102D3000A16820F470600843C8F8000060680328A8
:102D400028D0022873D158F8181C890326D40120F2
:102D5000BDE80007F0BDD8F80010226921F070012D
:102D60001143C8F800100107B5D5D8F804106269FE
:102D700021F070011143C8F80410C106ADD5D8F890
:102D80000410A26921F4E0611143C8F80410800620
:102D9000A5D4ACE758F8181C8901D8D558F8081CF8
:102DA00021F00701084348F8080C00F009FF064627
:102DB000606841F2883A032824D0022830D00128E4
:102DC0000DD158F8080C00F0380008283FF46BAF1C
:102DD00000F0F6FE811B03205145F2D9A3E758F815
:102DE000080C10F0380F3FF45EAF00F0E9FE811BD5
:102DF00003205145F3D996E700F0E2FE811B032042
:102E0000514590D858F8080C00F038001828F3D134
:102E100049E700F0D5FE811B032051453FF683AF03
:102E200058F8080C00F038001028F2D13BE758F8A9
:102E3000181C012803D1C9057FF589AFAEE7490702
:102E40007FF585AFAAE7000080B56F4644F20041E8
:102E5000C5F602010869C0F3C20240F60010C0F2D4
:102E60003D00032A16D0022A02BF47F64000C0F2F6
:102E70007D1080BD002A18BF80BD0868800649F219
:102E80000000C0F2D03041BF0968C1F3C101C840A1
:102E900080BD80BDD1F828E0D1F828C0CB6A03F00E
:102EA00001034A6BC2F3CC025A430EF0030300EE57
:102EB000102ACCF30512B8EE400A022B0CD07BB9D5
:102EC0000868800649F20000C0F2D03042BF0B68AB
:102ED000C3F3C103D84003E047F64000C0F27D10C1
:102EE0000B6B6FF35F2301EE103A9FED102AB0FBDE
:102EF000F2F0096BB8EE411AC1F34621B7EE003A81
:102F000004EE100A00EE021A481CB8EE440A31EE34
:102F1000031A02EE100AB8EE422A21EE000A80EEF1
:102F2000020ABCEEC00A10EE100A80BD0000003993
:102F300080B56F46FFF7E2FB44F21841C5F6020187
:102F40000968012292FAA2F2B2FA82F201F00F01AC
:102F5000D14045F20C12C0F60002515CC84040F26C
:102F60006801C2F20001086080BD80B56F46FFF7BE
:102F7000DFFF44F21C41C5F602010968102292FAF3
:102F8000A2F2B2FA82F201F07001D14045F20C12C5
:102F9000C0F60002515CC84080BD80B56F46FFF7A7
:102FA000C7FF44F21C41C5F6020109684FF4807264
:102FB00092FAA2F2B2FA82F201F4E061D14045F253
:102FC0000C12C0F60002515CC84080BD002804BF4E
:102FD00001207047D0B502AF044690F83D0028B9F3
:102FE000002084F83C00204600F00CF8022084F811
:102FF0003D002068211D00F006F8012084F83D0006
:103000000020D0BD7047028840F6FF33C4F20003B1
:1030100098420FDCB0F1804F1EBF40F20043C4F273
:103020000003984212D040F60003C4F20003984215
:103030000CD00FE040F60043C4F2000398421EBFDC
:1030400040F20043C4F20103984270D14B6822F071
:1030500070021A434FF6FF73C4F20003984243F61E
:10306000FF7CC4F2010C10DD60451ADD44F2000360
:10307000C4F2010398421EBF44F60003C4F20103E8
:10308000984226D044F2004312E040F2FF73C4F2AB
:103090000003984211DCB0F1804F1AD040F2004397
:1030A00013E00023C4F20103984212D040F200431F
:1030B000C4F2010398420CD00FE040F60003C4F2C2
:1030C0000003984205D040F60043C4F20003984242
:1030D00003D1CB6822F440721A434B6922F080027C
:1030E0001A4302808A68C2620A68028560450EDD62
:1030F00044F20002C4F2010290421EBF44F60002F4
:10310000C4F2010290420DD044F2004206E00022D7
:10311000C4F20102904205D040F20042C4F2010222
:10312000904201D109690186012141617047002364
:10313000C4F2010398423FF489AF8BE7022180F883
:103140003D1001680A8842F001020A80012180F8DE
:103150003D1000207047D0B502AFB0B1044690F8E2
:10316000790028B9002084F87800204600F027F87C
:10317000242084F879002068016821F001010160B1
:10318000204600F01DF8012801D10120D0BD606B60
:1031900000281CBF204600F0E1FB2068416821F4B4
:1031A00090414160816821F02A018160016841F00D
:1031B000010101602046BDE8D04000F043BC7047EB
:1031C000F0B503AF2DE9000F87B08346C069DBF887
:1031D00028C0DBF80010DBF80830DBE904650C6878
:1031E00046F6F312CCF6FF72224043EA0C03334357
:1031F0002B431843104308604868DBF80C2020F488
:10320000405010434860DBF8183040F60040C5F6E7
:10321000000081421CBFDBF820201343BCF1005F9B
:1032200002BFDBE90B261A4342EA06038A684FF223
:10323000FF46C1F2FF1632401A438A60CA6ADBF8C1
:10324000243022F00F021A43CA624FF0800A44F27F
:103250000048C5F6020847F2FF72C4F2000291422C
:1032600025DD40F6FF72C4F2010291423FDD81424A
:1032700000F0718041F20042C4F20102914200F07C
:10328000788041F20002C4F20102914240F0B48021
:10329000D8F85410C1F3C201052900F29F80DFE87D
:1032A00011F07300A000A300A600A9009A0044F644
:1032B000FF32C4F20002914233DC44F20042C4F215
:1032C0000002914200F0638044F60002C4F2000262
:1032D000914240F09180D8F8541001F0070105297F
:1032E00000F27C80DFE801F0747D8083867747F60A
:1032F0000002C4F20002914200F0548047F60042FE
:10330000C4F20002914240F07780D8F8541001F0E6
:103310000701052900F26280DFE801F05A6366695F
:103320006C5D44F60042C4F20002914200F0458018
:1033300045F20002C4F20002914240F05D80D8F8EC
:10334000541001F00701052900F24880DFE801F080
:1033500040494C4F5243D8F8581001F00701052955
:103360003CD8DFE801F0033E414447384FF0020A01
:1033700042E0D8F85410C1F3C20105292ED8DFE885
:1033800001F003303336392A4FF0010A34E0D8F81F
:10339000541001F00701052920D8DFE801F01922B7
:1033A00025282B1CD8F8541001F00701052915D841
:1033B000DFE801F00E171A1D2011D8F8541001F0A3
:1033C000070105290AD8DFE801F0030C0F121506E2
:1033D0004FF0000A10E04FF0200A0DE04FF0800A95
:1033E0000AE04FF0040A07E04FF0400A04E04FF013
:1033F000080A01E04FF0100ADBF80010814200F0EB
:103400005280DBF81C000125B0F5004F40F07A80B7
:103410000020BAF1400F00F27C81DFE81AF0410091
:1034200012017A017A0121017A017A017A013001CF
:103430007A017A017A017A017A017A017A014401EA
:103440007A017A017A017A017A017A017A017A01A4
:103450007A017A017A017A017A017A017A015301BB
:103460007A017A017A017A017A017A017A017A0184
:103470007A017A017A017A017A017A017A017A0174
:103480007A017A017A017A017A017A017A017A0164
:103490007A017A017A017A017A017A017A0164016A
:1034A000FFF763FDCFE0AAF10206012540F60019FF
:1034B000C0F23D091E2E00F26F804846DFE816F08C
:1034C0001F00A6017500A601A601A6017B00A601AA
:1034D000A601A601A601A601A601A6018B00A601D0
:1034E000A601A601A601A601A601A601A601A601A4
:1034F000A601A601A601A601A601A6018900FFF763
:10350000E5F856E0BAF1400F00F28081DFE81AF0EA
:1035100041000B017E017E0120017E017E017E01C2
:103520002F017E017E017E017E017E017E017E01F2
:1035300043017E017E017E017E017E017E017E01CE
:103540007E017E017E017E017E017E017E017E0183
:1035500052017E017E017E017E017E017E017E019F
:103560007E017E017E017E017E017E017E017E0163
:103570007E017E017E017E017E017E017E017E0153
:103580007E017E017E017E017E017E017E017E0143
:103590006701FFF7EAFCC8E0BAF1400F40F036815E
:1035A00001A8FFF715F8029803E004A8FEF792FFC0
:1035B000059880B929E1D8F80000800649F200009A
:1035C000C0F2D03042BFD8F80010C1F3C101C840EA
:1035D00001E04FF40040DBF8042002EB420101253A
:1035E0008842C0F013811103884200F20F81012547
:1035F0001E2E00F21081DFE816F01F00A601580110
:10360000A601A601A6016901A601A601A601A601BF
:10361000A601A601A6017C01A601A601A601A6019C
:10362000A601A601A601A601A601A601A601A60162
:10363000A601A601A6012101FFF748F8DBF8042046
:103640004CE1FFF7AAFCDBF80410DBF8242045F27C
:103650001C13C0F6000333F81220B0FBF2F052E066
:1036600004A8FEF737FFDBF80410DBF8240045F26E
:103670001C12C0F6000232F81000059A41E0D8F89A
:103680000000800600F1E780DBF80410DBF824007E
:1036900045F21C12C0F6000232F8100049F2000296
:1036A000C0F2D0322DE0DBF80410DBF8240045F244
:1036B0001C12C0F6000232F8100040F60012C0F2F0
:1036C0003D021EE0DBF80410DBF8240045F21C127A
:1036D000C0F6000232F810004FF40042B2FBF0F0E6
:1036E0004200480811E001A8FEF772FFDBF8041061
:1036F000DBF8240045F21C12C0F6000232F810007C
:10370000029AB2FBF0F040004A081044B0FBF1F01E
:1037100000254FF6F0710140C0F342000844DBF889
:103720000010C86072E0FFF738FCDBF80010DBF82F
:103730000420DBF8243045F21C16C0F6000636F8EB
:103740001330B0FBF3F000EB5200B0FBF2F043E0BB
:1037500004A8FEF7BFFEDBE90001DBF8242045F2F8
:103760001C13C0F6000333F81220059B45E0D8F87F
:103770000000800600F18480DBF80400DBF82420E0
:1037800045F21C13C0F6000333F8122049F200037F
:10379000C0F2D0331AE0DBF80400DBF8242045F255
:1037A0001C13C0F6000333F8122040F60013C0F2D9
:1037B0003D030BE0DBF80400DBF8242045F21C138A
:1037C000C0F6000333F812204FF40043B3FBF2F2CB
:1037D00002EB5002B2FBF0F080B2C86015E001A825
:1037E000FEF7F6FEDBE90001DBF8242045F21C13AE
:1037F000C0F6000333F81220029BB3FBF2F202EB97
:103800005102B2FBF1F189B2C1600025284607B030
:10381000BDE8000FF0BDBAF1400F40F0948001A860
:10382000FEF7D6FEDBF80420DBF8240045F21C117D
:10383000C0F6000131F81000029944E0DBF82400E2
:1038400045F21C11C0F6000131F810004FF40041A0
:10385000B1FBF0F057E0D8F80000DBF80410DBF81B
:10386000242045F21C13C0F6000333F81220C0F3E5
:10387000C10049F20003C0F2D03323FA00F0ECE6B5
:10388000D8F80000DBF80420DBF8243045F21C16E1
:10389000C0F6000636F81330C0F3C10049F2000646
:1038A000C0F2D03626FA00F04BE704A8FEF712FE6D
:1038B000DBF80420DBF8240045F21C11C0F60001FF
:1038C00031F810000599B1FBF0F032E0D8F80000B3
:1038D000800649F20000C0F2D0301BD4DBF824107F
:1038E00045F21C13C0F6000333F81110B0FBF1F0E1
:1038F0001FE0DBF8240045F21C11C0F6000131F88E
:103900001000B9FBF0F0000200EB5200B0FBF2F047
:10391000002518E0D8F80010DBF8243045F21C161A
:10392000C0F6000636F81330C1F3C101C840B0FB41
:10393000F3F0010E000210EB520041F100010025EE
:103940000023FCF7CDFCA0F540714FF6FF42C0F21A
:103950000F0291427FF6E3AE012557E780B56F462F
:10396000416BCA070CD18A0715D44A071ED40A072F
:1039700027D4CA0630D48A0639D44A0642D456E03F
:1039800002685368D0F838C023F4003343EA0C03CC
:1039900053608A07E9D502685368D0F83CC023F425
:1039A000803343EA0C0353604A07E0D5026853684A
:1039B000D0F840C023F4802343EA0C0353600A0785
:1039C000D7D502685368D0F844C023F4004343EAD3
:1039D0000C035360CA06CED502689368D0F848C07D
:1039E00023F4805343EA0C0393608A06C5D502682A
:1039F0009368D0F84CC023F4005343EA0C0393605F
:103A00004A0614D5D0F800E0DEF804C0036D2CF4AB
:103A100080121A43CEF80420B3F5801F07D1DEF8D8
:103A20000420436D22F4C0021A43CEF80420090694
:103A300058BF80BD01684A68806D22F4002210439F
:103A4000486080BDB0B502AF82B004460020E06798
:103A500000F0B6F805462068006800070AD56FF048
:103A60007E40009020464FF4001100222B4600F0CB
:103A70001DF870B92068006840070DD56FF07E40D2
:103A8000009020464FF4800100222B4600F00EF8F3
:103A900010B1032002B0B0BD202184F879100020BD
:103AA00084F8780084F87A1002B0B0BDF0B503AFA6
:103AB0002DE9000782460068C0690840401AB0FA44
:103AC00080F04009904232D1984616460D46D7F80C
:103AD000089009F101045CB9DAF80000C0692840D7
:103AE000401BB0FA80F04009B04220D1002CF3D046
:103AF000B9F1000F05D000F063F8A0EB08004845CD
:103B0000EAD9DAF80000016821F4D0710160816817
:103B100021F00101816020208AF8790000218AF8D3
:103B200078108AF87A000320BDE80007F0BD002075
:103B3000BDE80007F0BD80B56F460320FDF7AFFD7F
:103B40000F2000F008F800281CBF012080BD00F005
:103B500029F8002080BDB0B502AF044640F26C00E9
:103B6000C2F2000000784FF47A71B1FBF0F040F23D
:103B70006401C2F200010968B1FBF0F0FDF7F8FD45
:103B800001250F2C0CD858B900254FF0FF302146E5
:103B90000022FDF796FD40F27000C2F200000460C2
:103BA0002846B0BD704740F26C00C2F200000078B9
:103BB00041F2E811C2F200010A681044086070473F
:103BC00041F2E810C2F200000068704740F2204065
:103BD000C5F60000016841F0010101607047F0B5D1
:103BE00003AF2DE90007D1E900C9D1E902EA01F1EB
:103BF000100898E8700150F82C2040F28043CFF66E
:103C0000C0731A4042EA090242EA0E0242EA0A027C
:103C100022432A43324348EA020801F1200A9AE883
:103C20007804D1E90D9243EA080323432B4333433D
:103C300043EA0A031A4342EA0902BEF1080F08BF29
:103C400042F0400240F82C200A6BB2F5801F05D1EB
:103C50000A6852B1026842F4801202600A68002ABF
:103C60001FBF496B0268114301600020BDE80007D7
:103C7000F0BDF0B503AF2DE9000F00EB8203D3F8E0
:103C80000480D1E900EAD1E902B6D1E904298C69BE
:103C900040F2000CCFF6F07C0CEB025208F04045ED
:103CA00045EA0E0545EA0A1545EA0B2545EA0646AA
:103CB0003243224309F1FE0642EA06625A60026874
:103CC000D20207D5426809690CEB015122F4700257
:103CD000114341600020BDE8000FF0BDB0B502AF58
:103CE000B3F5804F15D150F822C00023CCF6F07305
:103CF0000CEA030CD1E9003ED1E9024543EA0C038A
:103D000043EA0E1343EA042343EA0543896919434E
:103D100001E06FF0704140F822100020B0BD01605A
:103D200000207047F0B503AF2DE9000B82B00468A6
:103D3000002545F23419C0F6000945F25C18C0F6BA
:103D4000000802E00135052D0CD059F82560204609
:103D5000314600F036F80028F4D04046314600F0F5
:103D60004DF9EFE7052501AE45F27518C0F60008DC
:103D70002046314600F027F828B90199404600F066
:103D80003DF9013DF4D1002645F24815C0F6000585
:103D900045F25C18C0F6000802E00136052E0CD092
:103DA00055F82610204600F00CF80028F5D059F8F8
:103DB0002610404600F022F9EFE702B0BDE8000B04
:103DC000F0BD0268104709684268104780B56F4629
:103DD0009AB0FDF704FB00F03FF800F0C3F80120B3
:103DE000FCF732FF6420FDF72CF80120FCF71DFFE3
:103DF0006420FDF726F800206421FDF740F801203B
:103E00004FF4FA71FDF73BF86C4606AD05AE20465F
:103E10002946142200F0BCF801463046FFF77FFF28
:103E20003046FFF77FFFFDF788FB0020FDF74FF8D6
:103E300000281CBF0120FCF716FF0120FDF747F802
:103E40000028E4D00220FCF70EFF0320FCF70BFF54
:103E50000420FCF708FFDAE7F0B503AF4DF8048D56
:103E600045F27D18C0F60008404600F0C7F84EF64F
:103E70000000C1F6F17005684668846840F264008D
:103E8000C2F2000000684DF68361C4F21B31A0FB52
:103E90000101890C45F2BD10C0F6000000F0AEF83B
:103EA00045F2E610C0F60000214632462B4600F0EF
:103EB000A5F845F2BA10C0F6000000F09FF84046A1
:103EC00000F09CF845F2FD14C0F6000445F209210B
:103ED000C0F60001204600F091F845F20D21C0F631
:103EE0000001204600F08AF845F21121C0F60001D9
:103EF000204600F083F845F21C20C0F6000000F0D8
:103F000003F945F24420C0F6000000F0FDF845F248
:103F10004820C0F6000000F0F7F845F25F20C0F638
:103F2000000000F0F1F845F26C20C0F6000000F04F
:103F3000EBF845F28120C0F6000000F0E5F845F20C
:103F40009220C0F6000000F0DFF845F2A920C0F68C
:103F5000000000F0D9F840465DF8048BBDE8F04061
:103F600000F04CB880B56F4645F2C620C0F60000A0
:103F700000F0CAF845F27910C0F6000000F03EF8F3
:103F800045F2C920C0F60000BDE8804000F0BCB892
:103F9000D0B502AF04460020C4E9021022612046D9
:103FA00000F002F82046D0BD43F6DB71C0F60001F8
:103FB00043F6BF72C0F60002C0E900217047D0E9A5
:103FC00003239A4204BF4FF0FF307047531CC36075
:103FD000806840F8221000207047C268002A04BFA1
:103FE0004FF0FF307047013AC260806850F82200FD
:103FF0000860002070470022FCF7F4BA0FB40A4BA7
:1040000013B51C6824B1A36913B9204600F05EFA09
:1040100005AB049AA1680193204600F02DFC02B084
:10402000BDE8104004B070470000002070B50E4697
:10403000054618B183690BB900F048FAAB69AC6862
:1040400013B9284600F042FA2C4B9C4220D16C68F0
:10405000636EDB0705D4A389980502D4A06D00F038
:10406000D2FAA38919071DD52369DBB1013EA368E4
:1040700016F8011F013BA36039BB002B38DA22463A
:104080000A21284600F048F8013011D00A2511E035
:104090001B4B9C4201D1AC68DAE71A4B9C4208BF2B
:1040A000EC68D5E72146284600F088F80028DDD0E6
:1040B0004FF0FF35636EDA0705D4A3899B0502D460
:1040C000A06D00F0A1FA284670BD002B04DAA269A9
:1040D0009A4206DC0A2904D023685A1C226019700F
:1040E000C5E72246284600F017F80130BFD1DFE7C8
:1040F00023680A255A1C22601D70DBE7F85200086D
:1041000018530008D8520008024B01461868FFF700
:104110008DBF00BF00000020F8B50E4614460546CE
:1041200018B183690BB900F0D1F9214B9C422BD116
:104130006C68A369A360A3891A072FD523696BB3A1
:1041400023692068C01A6369F6B28342374604DCEB
:104150002146284600F026F930BBA368013BA36046
:1041600023685A1C22601E7063690130834204D0A8
:10417000A389DB0706D50A2E04D12146284600F084
:1041800011F988B93846F8BD0A4B9C4201D1AC6898
:10419000CFE7094B9C4208BFEC68CAE72146284696
:1041A00000F00CF80028CBD04FF0FF37EAE700BF53
:1041B000F852000818530008D8520008324B70B566
:1041C0001D6806460C4625B1AB6913B9284600F0B8
:1041D0007DF92E4B9C420FD16C68B4F90C309AB229
:1041E00015072CD4D00611D40922326043F04003C5
:1041F000A3814FF0FF303EE0254B9C4201D1AC68DB
:10420000EBE7244B9C4208BFEC68E6E7510712D568
:10421000616B41B104F14403994202D0304600F091
:1042200059FA00236363A38923F02403A3810023A5
:10423000636023692360A38943F00803A381236992
:104240004BB9A38903F42073B3F5007F03D0214653
:10425000304600F0FFF9A28912F001030CD00023D0
:10426000A36063695B42A361236953B9B4F90C305D
:1042700013F08000BAD170BD920758BF6369A36084
:10428000F2E70020F7E700BF00000020F852000826
:1042900018530008D85200088A892DE9F0410546D4
:1042A00010070C4658D44B68002B05DC0B6C002B18
:1042B00002DC0020BDE8F081E66A002EF9D0002380
:1042C00012F480522F682B6032D0606DA3895A0798
:1042D00005D56368C01A636B0BB1236CC01A002349
:1042E0000246E66A216A2846B047431CA38906D1E4
:1042F00029681D292CD82A4ACA40D60728D5002269
:104300006260D9042269226004D5421C01D12B6865
:1043100003B96065616B2F600029CAD004F14403C2
:10432000994202D0284600F0D5F900206063C1E729
:10433000216A01232846B047411CC7D12B68002BB6
:10434000C4D01D2B01D0162B01D12F60B1E7A3895A
:1043500043F04003A381ADE70F69002FA9D0930775
:104360000E6808BF4B690F6018BF0023A6EB070853
:104370008B60B8F1000F9CDD43463A46216AA66A7D
:104380002846B047002806DCA38943F04003A381F8
:104390004FF0FF308EE70744A8EB0008E9E700BFC5
:1043A0000100402038B50B6905460C4613B90025BD
:1043B000284638BD18B183690BB900F087F8144B53
:1043C0009C421BD16C68B4F90C30002BEFD0626EAC
:1043D000D00704D4990502D4A06D00F014F9284642
:1043E0002146FFF759FF636EDA070546E0D4A3893B
:1043F0009B05DDD4A06D00F007F9D9E7054B9C4281
:1044000001D1AC68DFE7044B9C4208BFEC68DAE7F7
:10441000F852000818530008D8520008002310B5BD
:104420000446C0E90033836081814366C281C0E9EC
:1044300004338361194608225C30FCF795F9054B7B
:104440006362054BA362054BE362054B2462236361
:1044500010BD00BFFD4D00081F4E0008574E00085C
:104460007B4E0008014900F0AFB800BFA54300082B
:1044700070B54A1E682555430E4605F1740100F0DB
:1044800077F9044640B10021C0E900160C30A06065
:1044900005F16802FCF768F9204670BD014800F09C
:1044A000B2B800BF04120020014800F0ADB800BF50
:1044B00004120020014800F0A6B800BFFF11002040
:1044C000014800F0A1B800BFFF11002010B504465C
:1044D000FFF7F0FFA3691BB1BDE81040FFF7F0BF85
:1044E000C4E912332365134B134A1B68A262A3422B
:1044F00004BF0123A361204600F020F8606020463D
:1045000000F01CF8A060204600F018F80022E060DF
:1045100004216068FFF782FF01220921A068FFF7EC
:104520007DFF02221221E068FFF778FF0123A361DB
:10453000D2E700BF0050000865440008F8B5074600
:10454000FFF7ACFF1E4B1E68B36913B93046FFF787
:10455000BDFF4836D6E90134013B03D533680BB3C0
:104560003668F7E7B4F90C50D5B9164BE36004F19F
:104570005800656600F046F8FFF796FF2560C4E92D
:104580000155C4E90455A5610822294604F15C00DF
:10459000FCF7EAF8C4E90D55C4E912552046F8BD08
:1045A0006834D9E704213846FFF762FF04463060DB
:1045B0000028D5D1FFF778FF0C233B60EEE700BF62
:1045C000005000080100FFFF2DE9F84380468946AE
:1045D00000F14804002614B93046BDE8F883D4E958
:1045E0000175013F01D52468F5E7AB89012B07D997
:1045F000B5F90E30013303D029464046C84706437B
:104600006835EEE770477047704770B50E46B1F9F0
:104610000E10002996B014461D4607DA00232B60C1
:10462000B3891A0610D44FF480630EE06A4600F096
:104630004BFC0028F2DB019A02F47042A2F5005311
:104640005A425A412A60EEE740230020236016B008
:1046500070BD00008B8973B59D0706460C4607D5D3
:1046600004F14703236023610123636102B070BD3D
:1046700001AB6A46FFF7C9FF00990546304600F0D6
:1046800077F848B9B4F90C309A05EFD423F0030356
:1046900043F00203A381E3E70D4BB362A3892060DB
:1046A00043F08003A381009B6361019B20615BB1A8
:1046B000B4F90E10304600F019FC28B1A38923F09C
:1046C000030343F00103A381A3891D43A581CDE723
:1046D0006544000838B50546002945D051F8043C2A
:1046E0000C1F002BB8BFE41800F022FC1F4A13680F
:1046F000104633B9636014602846BDE8384000F0C6
:104700001DBCA3420CD921686218934204BF1A68E9
:104710005B68636004BF521822600460ECE71346D4
:104720005A680AB1A242FAD919685818A0420BD1A6
:1047300020680144581882421960DDD1106852681F
:104740005A6001441960D7E702D90C232B60D3E7E4
:10475000206821188A4204BF11685268626004BF51
:10476000091821605C60C7E738BD00BFEC1100206C
:10477000F8B5CD1C25F0030508350C2D38BF0C25E8
:10478000002D064601DBA94203D90C23336000202B
:10479000F8BD00F0CDFB21490A6814469CB9204FB2
:1047A0003B6823B92146304600F018FB38602946A3
:1047B000304600F013FB431C23D10C2333603046FA
:1047C00000F0BCFBE3E723685B1B17D40B2B03D97A
:1047D00023601C44256004E06368A2420CBF0B60A8
:1047E0005360304600F0AAFB04F10B00231D20F0BB
:1047F0000700C21ACCD01B1AA350C9E7224664682E
:10480000CCE7C41C24F00304A042E3D0211A3046B4
:1048100000F0E4FA0130DDD1CFE700BFEC11002059
:10482000F01100209368013B002B10B4936008DA6C
:104830009469A34201DB0A2903D15DF8044BFFF719
:104840006BBC1368581C1060197008465DF8044B67
:104850007047F8B506460F461446D518AC4201D14C
:10486000002007E03A4614F8011B3046FFF7DAFF54
:10487000431CF3D1F8BD00002DE9F04F0D469DB06B
:1048800014461E46074618B183690BB9FFF71EFE92
:10489000854B9D421BD17D686B6ED90705D4AB89D2
:1048A0009A0502D4A86DFFF7AEFEAB891B0701D5B0
:1048B0002B69EBB929463846FFF780FCC0B16B6E17
:1048C000D8070ED54FF0FF301DB0BDE8F08F774B05
:1048D0009D4201D1BD68DFE7754B9D4208BFFD6871
:1048E000DAE7AB899905EDD4A86DFFF78DFEE9E70E
:1048F0000023099320238DF82930DFF8B89103961F
:1049000030238DF82A304FF0010A23461E4613F853
:10491000012B0AB1252AF9D1B6EB040B0BD05B466B
:10492000224629463846FFF794FF013000F0A38065
:10493000099B5B4409933378002B00F09C80002393
:104940004FF0FF32CDE905230136049307938DF82C
:1049500053301A933446052214F8011B5548FBF7CF
:104960008FFE049BC0B9DA0644BF20228DF8532085
:10497000180744BF2B228DF8532032782A2A13D0EF
:10498000079A344600200A26214611F8013B303BA5
:10499000092B4BD970B914E0A0EB09000AFA00F01A
:1049A000184304902646D5E7039A111D1268039117
:1049B000002A01DB079204E0524243F0020307920F
:1049C000049323782E2B0CD163782A2B33D1039BAD
:1049D0001A1D1B680392002BB8BF4FF0FF3302343F
:1049E0000593354E217803223046FBF749FE38B156
:1049F0004023801B03FA00F0049B0343013404931B
:104A000014F8011B2D488DF828100622FBF738FEFC
:104A100000283FD02A4B13BB039B073323F0070327
:104A200008330393099B434409936EE706FB023264
:104A300001200C46A8E700230134059319460A26F5
:104A4000204610F8012B303A092A03D9002BC8D090
:104A50000591C6E706FB012101230446F0E703ABFD
:104A600000932A46174B04A93846AFF30080B0F1F3
:104A7000FF3F8046D6D16B6ED90705D4AB899A0526
:104A800002D4A86DFFF7C0FDAB895B063FF51AAFF6
:104A9000099819E703AB00932A460A4B04A9384644
:104AA00000F088F8E3E700BFF85200081853000848
:104AB000D8520008385300083E53000842530008FB
:104AC00000000000534800082DE9F04791461F46BA
:104AD0008A680B69DDF820809342B8BF1346C9F895
:104AE000003091F8432006460C4612B10133C9F854
:104AF00000302368990642BFD9F800300233C9F864
:104B00000030256815F0060507D104F1190AE3689D
:104B1000D9F800209B1AAB4228DC94F84330226875
:104B2000003318BF012392062DD404F14302394605
:104B30003046C047013020D02368E568D9F800200E
:104B400003F00603042B08BFAD1AA36822690CBF4B
:104B500025EAE57500259342C4BF9B1AED184FF076
:104B600000091A344D451AD1002008E001235246AD
:104B700039463046C047013003D14FF0FF30BDE821
:104B8000F0870135C3E7E1185A1C302081F8430053
:104B9000224494F8451082F843100233C5E70123FC
:104BA000224639463046C0470130E6D009F10109B6
:104BB000D8E700002DE9F04306460C4601F143001A
:104BC000097E85B06E29984617460C9B00F0BA8086
:104BD00024D8632939D00AD8002900F0C380582985
:104BE00000F0918004F1420584F8421035E0642918
:104BF00001D06929F6D125681A6815F0800F02F1F5
:104C000004012CD012681960002A03DA2D235242C5
:104C100084F84330DFF8BCC10A233FE0732900F079
:104C2000A58008D86F2921D07029DBD1226842F0F5
:104C30002002226003E0752918D07829D2D1782289
:104C400084F84520DFF890C161E01A68111D1960F1
:104C5000136884F8423004F14205012393E012689E
:104C6000196015F0400F18BF12B2CDE7D4F800C09C
:104C70001A681CF0800F02F104051D6001D0126853
:104C800003E01CF0400FFAD01288DFF848C16F290A
:104C90000CBF08230A23002184F843106568A5602F
:104CA000002DA2BF216821F0040121600AB9002D66
:104CB00046D00546B2FBF3F103FB112E93421CF8DC
:104CC0000EE005F801ED39D9082B0BD12368DA077E
:104CD00008D5236962689A42DEBF302305F8013C9B
:104CE00005F1FF35401B2061CDF800803B4603AA4B
:104CF00021463046FFF7E8FE013049D14FF0FF3042
:104D000005B0BDE8F083DFF8CCC084F845101D681D
:104D1000216855F8042B1D600D060BD5CD0744BF47
:104D200041F0200121601AB9236823F02003236099
:104D30001023B0E74B0648BF92B2EFE70A46B9E747
:104D40000546C1E71A68D4F800C06169151D1D60E9
:104D50001CF0800F136801D0196003E01CF0400FB5
:104D6000FAD01980002323610546BDE71A68111D9A
:104D700019601568626800212846FBF781FC08B1BC
:104D8000401B606063682361002384F84330ABE715
:104D900023692A4639463046C0470130AED02368E1
:104DA0009B0713D4E068039B9842B8BF1846A7E757
:104DB00001234A4639463046C04701309ED001356E
:104DC000E368039A9B1AAB42F2DCEBE7002504F19F
:104DD0001909F5E7495300085A53000838B5064C3D
:104DE000002305460846236000F0E8F8431C02D182
:104DF000236803B12B6038BD0812002010B50C46A3
:104E0000B1F90E1000F0A0F80028ABBF636DA389C4
:104E10001B1823F48053ACBF6365A38110BD2DE93B
:104E2000F0411F468B89DB0505460C46164605D525
:104E300002230022B1F90E1000F068F8A389B4F93A
:104E40000E1023F48053A38132463B462846BDE82A
:104E5000F04100F017B810B50C46B1F90E1000F093
:104E600055F8431CA38915BF606523F4805343F4B0
:104E70008053A38118BFA38110BDB1F90E1000F0BB
:104E800013B8000038B5074C054608461146002205
:104E900022601A4600F0A0F8431C02D1236803B137
:104EA0002B6038BD0812002038B5064C002305469B
:104EB0000846236000F05AF8431C02D1236803B16E
:104EC0002B6038BD0812002038B5074C002305467A
:104ED00008461146236000F051F8431C02D12368B4
:104EE00003B12B6038BD00BF0812002038B5064C56
:104EF000002305460846236000F048F8431C02D111
:104F0000236803B12B6038BD0812002038B5074C68
:104F1000054608461146002222601A4600F03EF877
:104F2000431C02D1236803B12B6038BD0812002056
:104F30000148FFF768BB00BF001200200148FFF7DF
:104F400063BB00BF0012002038B5074C0546084679
:104F50001146002222601A4600F028F8431C02D1B4
:104F6000236803B12B6038BD08120020024B582281
:104F70001A604FF0FF30704708120020024B582291
:104F80001A604FF0FF30704708120020024B582281
:104F90001A600020704700BF08120020024B582200
:104FA0001A604FF0FF30704708120020024B582261
:104FB0001A604FF0FF30704708120020044A05497C
:104FC0001368002B08BF0B46184410601846704742
:104FD000F411002010120020024B58221A604FF0EA
:104FE000FF30704708120020F8B500BFF8BC08BCBD
:104FF0009E467047F8B500BFF8BC08BC9E46704797
:10500000040000202F6D6E742F642F64656D6F2F68
:105010007372632F4253502F6273705F666D635FCC
:10502000696F2E630000000000200258000100009C
:105030000008025800200000001C02581000000068
:10504000001802580400000000040258010000008B
:1050500000180258080000000018025880000000E4
:1050600000200258000800000001000000020000BB
:1050700000040000000800004572726F723A20665A
:10508000696C652025732C2066756E6374696F6E7C
:1050900020257328290D0A002F6D6E742F642F644C
:1050A000656D6F2F7372632F4253502F6273705F61
:1050B00074696D65722E63006273705F5374617200
:1050C0007454696D6572006273705F5374617274B9
:1050D0004175746F54696D6572006273705F5374CB
:1050E0006F7054696D6572002F6D6E742F642F643C
:1050F000656D6F2F7372632F4253502F6273705F11
:10510000756172745F6669666F2E6300000000004F
:10511000010203040102030406070809010002005A
:105120000400060008000A000C00100020004000E7
:1051300080000001060000000600000006000000DC
:1051400006000000640000000700000007000000E7
:105150004C000000430000002E040000746865202D
:1051600064617461202564207075736820666169CC
:105170006C64200A0025642000312E20002A2A2A8F
:105180002A2A2A2A2A2A2A2A2A2A2A2A2A2A2A2A7F
:105190002A2A2A2A2A2A2A2A2A2A2A2A2A2A2A2A6F
:1051A0002A2A2A2A2A2A2A2A2A2A2A2A2A2A2A2A5F
:1051B0002A2A2A2A2A2A2A2A2A2A0A0D000D0A43DA
:1051C0005055203A2053544D3332483734335849E0
:1051D00048362C204247413234302C203A20256476
:1051E0004D487A0D0A00554944203D202530385855
:1051F000202530385820253038580A0D002A202024
:1052000020203A2025730D0A0056372D00312E300C
:1052100000323031382D31322D3132002A204841D0
:105220004C20203A2056312E332E30202853544D16
:105230003332483778782048414C2044726976658B
:1052400072290D002A200D002A20515120202020F3
:105250003A2031323935373434363330200D002A94
:1052600020203A2061726D666C790D002A20203A68
:105270002061726D666C794071712E636F6D200DC7
:10528000002A203A2061726D666C795F636F6D2031
:105290000D002A203A2061726D666C792E74616F60
:1052A00062616F2E636F6D0D002A20436F707972FB
:1052B00069676874207777772E61726D666C792ED6
:1052C000636F6D200D003A0D00322E204C454433A3
:1052D0004C4544340D0000000000000000000000B8
:1052E00000000000000000000000000000000000BE
:1052F00000000000000000000000000000000000AE
:10530000000000000000000000000000000000009D
:10531000000000000000000000000000000000008D
:10532000000000000000000000000000000000007D
:105330000000000000000000232D302B2000686CCE
:105340004C006566674546470030313233343536A8
:1053500037383941424344454600303132333435E1
:0C5360003637383961626364656600000E
:08536C00A4AFFF7F0100000067
:04537400C502000866
:04537800A102000886
:10537C000400002000000000F85200081853000838
:10538C00D8520008000000000000000000000000DF
:10539C000000000000000000000000000000000001
:1053AC0000000000000000000000000000000000F1
:1053BC0000000000000000000000000000000000E1
:1053CC0000000000000000000000000000000000D1
:1053DC00000000000090D0030090D00301000000FA
:0453EC0010000000AD
:040000050800164D8C
:00000001FF
