:020000040800F2
:1000000000000220E519000831180008C7030008A5
:1000100033180008351800083718000800000000E1
:100020000000000000000000000000003918000877
:100030003B180008000000000F030008070F00082D
:10004000351A0008351A0008351A0008351A000854
:10005000351A0008351A0008351A0008351A000844
:10006000351A0008351A0008351A0008351A000834
:10007000351A0008351A0008351A0008351A000824
:10008000351A0008351A0008351A0008351A000814
:10009000351A0008351A0008351A0008351A000804
:1000A000351A0008351A0008351A0008351A0008F4
:1000B000330F0008351A0008351A0008351A0008F1
:1000C000351A0008351A0008351A0008351A0008D4
:1000D000351A000807140008351A000855150008DD
:1000E000351A0008351A000800000000351A00080B
:1000F000351A0008351A0008351A0008351A0008A4
:10010000351A0008351A0008351A0008351A000893
:10011000351A0008351A0008351A0008351A000883
:10012000351A0008351A0008351A0008351A000873
:10013000351A0008351A0008351A0008351A000863
:1001400000000000000000000000000000000000AF
:10015000351A0008351A0008351A0008351A000843
:10016000351A0008351A0008351A0008351A000833
:10017000351A0008351A0008351A0008000000007A
:10018000351A0008351A0008351A0008351A000813
:10019000351A0008351A0008351A0008351A000803
:1001A000351A0008351A0008351A0008351A0008F3
:1001B000351A0008351A0008351A0008351A0008E3
:1001C000351A0008351A0008351A0008351A0008D3
:1001D000351A00083D180008351A0008351A0008BD
:1001E000351A0008351A0008351A0008351A0008B3
:1001F000351A0008351A0008351A0008351A0008A3
:10020000351A0008351A0008351A0008351A000892
:10021000351A0008351A0008351A0008351A000882
:10022000351A0008351A0008351A000800000000C9
:10023000351A0008351A000800000000351A0008B9
:10024000351A0008351A0008351A0008351A000852
:10025000351A0008351A0008351A0008351A000842
:10026000351A0008351A0008351A0008351A000832
:10027000351A0008351A0008351A00080000000079
:10028000351A000800000000351A000800000000C0
:0802900000000000351A00080F
:1002A00010B5054C237833B9044B13B10448AFF3B0
:1002B00000800123237010BDF80100200000000021
:1002C000CC99000808B5034B1BB103490348AFF3B1
:1002D000008008BD00000000FC010020CC9900084F
:1002E000EFF3108072B6704780F310887047444A6D
:1002F0001368012B04D04FF001031360414A1060D2
:10030000414A116041484FF0805101607047EFF35E
:10031000108272B63E48016851B34FF0000101608F
:100320003C48016891B1EFF309811EF0100F08BF3E
:1003300021ED108B21E9F00F4FF000041EF0100F9B
:1003400008BF012441F8044D006801603249096882
:10035000096808C9B1E8F00F002B18BFB1EC108B89
:1003600081F309884EF0100E002B18BF2EF0100EEE
:1003700082F310884EF0040E704728490860EFF3AE
:10038000148222F0040282F3148825494FF0000001
:10039000086024494FF00100086023484FF47F01B2
:1003A000D0F8002041EA0201016018484FF0805166
:1003B00001601E480068006800BF80F3088861B6CD
:1003C00062B6704700BFEFF308801EF0040F01D043
:1003D000EFF3098020E9F00F40F804ED40F804ED58
:1003E0001EF0040F02D080F3098801E080F3088832
:1003F00000B505F030F95DF804EB4EF0040E7047DF
:10040000301900202C1900202819002004ED00E0EC
:10041000301900202C19002028190020281900204C
:100420002C1900203019002020ED00E008ED00E03C
:1004300053B94AB9002908BF00281CBF4FF0FF314B
:100440004FF0FF3000F074B9ADF1080C6DE904CE47
:1004500000F006F8DDF804E0DDE9022304B070479F
:100460002DE9F047089E04468846002B40F0858021
:100470008A42154648D9B2FA82F24AB1C2F120073F
:1004800001FA02F320FA07F7954047EA030894407F
:100490004FEA154E230CB8FBFEF71FFA85FC0EFB46
:1004A000178843EA084307FB0CF1994209D9EB1876
:1004B00007F1FF3080F0E380994240F2E080023F94
:1004C0002B445B1AA4B2B3FBFEF00EFB103344EADC
:1004D000034400FB0CFCA44509D92C1900F1FF339F
:1004E00080F0CB80A44540F2C88002382C4440EA1A
:1004F0000740A4EB0C0400271EB1D4400023C6E93A
:1005000000433946BDE8F087002A53D0B2FA82F2A0
:10051000002A40F0B680491B4FEA154E1FFA85F8B5
:100520000127B1FBFEFC230C0EFB1C1143EA014327
:1005300008FB0CF1994207D9EB180CF1FF3002D2FD
:10054000994200F2EC808446591AA3B2B1FBFEF046
:100550000EFB101443EA044408FB00F8A04507D939
:100560002C1900F1FF3302D2A04500F2DC801846BE
:10057000A4EB080440EA0C40BEE78B4208D9002EE9
:1005800078D00027C6E9000138463946BDE8F08733
:10059000B3FA83F77FB98B4202D3824200F2BD8067
:1005A000841A61EB030301209846002EA9D0C6E906
:1005B0000048A6E7FFDEC7F12005BB4022FA05FC94
:1005C0004CEA030C01FA07F420FA05F821FA05F3C6
:1005D0004FEA1C4E48EA0404B3FBFEF9210C0EFB63
:1005E00019331FFA8CF841EA034309FB08FA9A45CC
:1005F00002FA07F200FA07F10BD91CEB030309F129
:10060000FF3080F088809A4540F28580A9F1020988
:100610006344A3EB0A03A4B2B3FBFEF00EFB10335A
:1006200044EA034400FB08F8A04508D91CEB040485
:1006300000F1FF336BD2A04569D90238644440EA27
:100640000940A4EB0804A0FB02894C45C6464B4672
:1006500054D351D0002E69D0B1EB0E0264EB0304E9
:1006600004FA05F522FA07F3FC401D43C6E90054DD
:10067000002746E73746304643E7184637E7074640
:100680001FE7C2F1200320FA03F7954001FA02F0B8
:1006900021FA03F34FEA154E3843010CB3FBFEF782
:1006A0001FFA85F80EFB173341EA034107FB08F3F5
:1006B0008B4204FA02F407D9691807F1FF3C28D2EB
:1006C0008B4226D9023F2944CB1A81B2B3FBFEF0FC
:1006D0000EFB103341EA034100FB08F38B4207D9BC
:1006E000691800F1FF3C10D28B420ED90238294420
:1006F000C91A40EA074714E74145ABD2B8EB020EEE
:1007000069EB0C0201381346A4E76046F0E718468F
:1007100095E76746D8E781467BE7384645E7ACF181
:10072000020C2B4410E702382C4421E73746E8E658
:10073000704700BF70B4840746D04C1E002941D0DA
:10074000D5B2034602E0611EE4B30C4603F8015B38
:100750009907F8D1032C2ED9D5B245EA05250F2CDF
:1007600045EA054519D9264603F11001103E0F2E22
:1007700041F8105C41F80C5C41F8085C41F8045CFD
:1007800001F11001F2D8A4F1100121F00F0104F0E1
:100790000F041031032C0B440DD91E462146043999
:1007A000032946F8045BFAD8211F21F00301043124
:1007B0000B4404F003042CB1D2B21C4403F8012B07
:1007C000A342FBD170BC70470C460346C2E7034608
:1007D00013F8012B002AFBD1181A013870470000CA
:1007E00001F0FF01102A2BDB10F0070F08D010F8E2
:1007F000013B013A8B422DD010F0070F42B3F6D1E6
:10080000F0B441EA012141EA014122F007047FF0FE
:1008100000070023F0E80256083C85EA010586EA55
:10082000010685FA47F5A3FA87F586FA47F6A5FA91
:1008300087F68EB9EED1F0BC01F0FF0102F007029D
:1008400032B110F8013B013A83EA010313B1F8D148
:100850000020704701387047002D06BF3546033829
:10086000073815F0010F07D1013015F4807F02BF62
:10087000013015F4C03F0130F0BC0138704700BFB3
:1008800080B56F4600F010F800F086F841F62410AD
:10089000C2F2000040F614710160006841F20001EC
:1008A000C6F20001086080BDF0B503AF4DF804BD8D
:1008B00086B044F2E040C5F60200016841F008014C
:1008C0000160016801F0080101910199016841F09E
:1008D00010010160016801F01001019101990168A6
:1008E00041F040010160016801F04001019101996E
:1008F000016841F080010160016801F0800101910F
:100900000199016841F480710160016801F480710E
:100910000191019950F80C1C41F4805140F80C1CD5
:1009200050F80C0C00F4805000900C200590032629
:10093000049601200390022002904CF2B3700190C3
:10094000009840F60045C5F6020501AC2846214650
:1009500001F042F94FF68070019005F58060214664
:1009600001F03AF9019605F54060214601F034F9AD
:100970004FF47F40019005F58050214601F02CF99D
:1009800040F2CF60019005F5A050214601F024F916
:1009900006B05DF804BBF0BD80B56F469AB000208C
:1009A0001990CDE9170044F20001C5F2002107912A
:1009B0004FF48052CDE90F02CDE90D002022CDE9A0
:1009C0000B02CDE9090001F5827108910690022120
:1009D000CDE9041101220392CDE901110521009115
:1009E000CDE91500CDE91300CDE9110007A869464E
:1009F0000A4602F06DF838B149F6A020C0F60000B2
:100A00004FF4927100F0B7FE1AB080BD002941F694
:100A10002411C2F200010A6814BF104322EA000048
:100A20000860086841F20001C6F2000108607047E2
:100A300080B56F4600F004F8BDE8804000F034B89F
:100A400080B56F4640F21420C2F200004FF0000C57
:100A500080F80CC080F80BC080F80AC040F2242E49
:100A6000C2F2000E6422022300200EEB00018A6015
:100A700081F80CC00B711030A028F6D1032064213E
:100A8000062200F06FF804206421062200F06AF8C4
:100A900005206421062200F065F806206421062264
:100AA000BDE8804000F05EB8F0B503AF4DF804BD7E
:100AB00086B044F2E040C5F60200016841F0020150
:100AC0000160016801F0020101910199016841F0A2
:100AD00004010160016801F00401019101990168BC
:100AE00041F040010160016801F04001019101996C
:100AF000016841F080010160016801F0800101910D
:100B00000199016841F480710160006800F480700F
:100B10000090032004900020CDE9020000986FF0BF
:100B2000070549F6C426C0F6000601AC7019818994
:100B300001918068214601F04FF80835382DF5D134
:100B400006B05DF804BBF0BD40F21421C2F2000112
:100B5000CA7A8854C87A0130C2B2092A88BF0020F4
:100B6000C872704740F22423C2F2000303EB001066
:100B700000230373C27201817047D0B502AF002415
:100B8000E0B200F005F80134E0B20A28F8D3D0BD95
:100B9000B0B502AF044640F22420C2F2000000EBE0
:100BA0000415204600F058F8294611F8042F28B300
:100BB000042A9EBF05200870B0BD092A9EBF501CA4
:100BC0000870B0BD284610F80A1F39B9012101701C
:100BD00004EB44000130C0B2FFF7B6FF2889D0B360
:100BE000294631F8062F82420DD201320A8091B295
:100BF000814230D104EB4400033013E0062A16D3BF
:100C00000520087024E0E87A28B315F80C1F01319C
:100C10002970C9B2814238BFB0BD0020287004EBF2
:100C200044000130C0B2BDE8B040FFF78DBF12B143
:100C3000501E08700CE0284610F80A1F012907D141
:100C40000021017004EB44000230C0B2FFF77CFFCA
:100C500000202873E880B0BDF0B503AF4DF8048DD7
:100C60008046072818D80025FF260024E0B200F0AF
:100C700034F800281CBF2646012005440134E0B2A8
:100C80000828F3D386EA080085F001010843C0B2C2
:100C9000B0FA80F044091CE0B8F1090F0ED0B8F1A9
:100CA000080F15D1002000F018F888B101240120A8
:100CB00000F013F8002808BF00240AE0012000F02B
:100CC0000CF828B1022000F008F808B1012400E077
:100CD000002420465DF8048BF0BD49F6C421C0F61F
:100CE000000101EBC002938851F830000069184000
:100CF00018BF01209179401AB0FA80F0400970477E
:100D000080B56F46012000F00BF8022000F008F8D3
:100D1000032000F005F80420BDE8804000F000B892
:100D20000138C1B2032988BF704740B249F6043187
:100D3000C0F6000151F820000121FFF767BE01381D
:100D4000C1B2032988BF704740B249F60431C0F6EA
:100D5000000151F820000021FFF758BE80B56F4612
:100D60006FF00B0040F2C821C2F2000100220B1804
:100D70001A615A615A731A730C302428F7D140F261
:100D80000000C2F20000006844F6D351C1F26201D3
:100D9000A0FB0101880900F00AF840F2F820C2F235
:100DA000000001210170BDE8804000F013B8B0B52B
:100DB00002AF01380024B4EB106F18BFB0BD4EF283
:100DC0001005CEF20005686000F0FFF8AC60072067
:100DD0002860B0BDD0B502AF92B002AC04F11C00E7
:100DE000242107F00BFE44F2E840C5F6020001683A
:100DF00041F001010160006800F001000190002055
:100E000006904FF0FF3105914FF080420292802210
:100E1000CDE90702049040F20000C2F20000006831
:100E20004DF68362C4F21B32A0FB020201EBD240FA
:100E300080B203900198204602F094FA38B149F646
:100E40003430C0F6000040F2392100F094FC1C2040
:100E50000021022200F001FE1C2000F043FE02A847
:100E600002F038FB12B0D0BDB0B502AF40F2FC20AA
:100E7000C2F20000016849B101680139016005D181
:100E800040F20030C2F2000001210170002440F263
:100E9000C825C2F20005281900F024F80C34302CC3
:100EA000F9D140F2C420C2F20000016801310160B2
:100EB00001686FF00042914204BF0021016000F020
:100EC0006BFC40F2F920C2F20000017801310170A0
:100ED000C9B20A2938BFB0BD00210170BDE8B040D9
:100EE00000F058BC4168002908BF704741680139CB
:100EF000416000D07047012141700178012904BF91
:100F000081684160704780B56F4604F0B5FE03F01C
:100F100038F840F2F820C2F200000078002808BF3C
:100F200080BDFFF7A1FF04F062FDBDE8804004F042
:100F3000B2BED0B502AF0C24C4F2000460682168D0
:100F4000084080070BD54FF6FD70606021680840AF
:100F5000206040F20430C2F2000000688047606800
:100F60002168084040070BD54FF6FB706060216890
:100F70000840206040F20830C2F20000006880475C
:100F800060682168084000070BD54FF6F770606075
:100F900021680840206040F20C30C2F20000006876
:100FA0008047606821680840C00658BFD0BD4FF632
:100FB000EF70606021680840206040F21030C2F29B
:100FC00000000068BDE8D04000474EF62350CEF246
:100FD0000000F0210170704780B56F4600F006F800
:100FE00000F052F8BDE8804000F00FB9B0B502AF94
:100FF00040F21432C2F20002002010825082D082ED
:1010000010835083908240F24031C2F20001088286
:101010004882C88208834FF0042340F26D7CC2F2FC
:10102000000C40F26D3EC2F2000EC2E907005062B1
:1010300082F8280044F60004C4F2000404F5484590
:10104000C2E9005EC2E902C3488340F66D72C2F293
:10105000000240F66D35C2F20005C1E90045C1E964
:10106000022381F8280041F20542C0F6000241F255
:10107000F733C0F6000341F2E935C0F60005C1E9D7
:1010800007534A628882B0BDF0B503AF2DE9000F67
:10109000B5B000201F904FF00108CDF8048001A8E2
:1010A00000F066FE44F2E045C5F60205286840F00F
:1010B00001002860286800F001003090309828680E
:1010C00040F001002860286800F00100309030985E
:1010D000286940F010002861286900F01000009095
:1010E0004FF0070ACDF8D0A00320CDE932800220CE
:1010F00031904FF400703090009840F20009C5F62E
:10110000020930AC4846214600F066FDCDF8D0A07B
:101110004FF4806BCDF8C0B04846214600F05CFD2E
:1011200025200021012200F098FC252000F0DAFCA7
:1011300041F20006C4F2010630464FF4E1310022CC
:101140000C2300F030F9306A40F040003062308B00
:1011500040F008003083306840F02000306028689C
:1011600040F002002860286800F00200009000981B
:10117000286840F002002860286800F00200009013
:101180000098A86840F48020A860A86800F4802037
:101190000090CDF8C880CDF8D0A003203390022075
:1011A000CDE930B0009809F580652846214600F069
:1011B00013FDCDF8D0A04FF40060309028462146B2
:1011C00000F00AFD27200021032200F046FC272022
:1011D00000F088FC44F60004C4F2000420464FF4FA
:1011E000165100220C2300F0DEF8206A40F0400087
:1011F0002062208B40F008002083206840F020000F
:10120000206035B0BDE8000FF0BD80B56F4686B0F8
:1012100044F2E040C5F60200016841F002010160BD
:10122000006800F00200009003200490002003906A
:101230000120029004200190009840F20040C5F681
:10124000020001A900F0C8FC06B080BD80B56F4661
:10125000082807D240B249F6A831C0F6000151F87B
:10126000200080BD49F68430C0F6000040F21D1118
:1012700000F081FA002080BDF0B503AF4DF804BD49
:1012800014460D46FFF7E2FF002804BF5DF804BBDB
:10129000F0BD0646C069002818BF80473046294681
:1012A00022465DF804BBBDE8F04000F000B8F0B5A0
:1012B00003AF2DE9000B82B00546BAB31446894648
:1012C0004FF00008002617E019F8060069682A8A1E
:1012D0008854FFF705F8298A01312982AA8989B241
:1012E000914228BFA5F81080A98A0131A982FEF792
:1012F000FBFF0136A64219D0FEF7F2FFA98A27F8B4
:101300001A1CFEF7F1FF37F81A1CA8898142DBD3BB
:1013100080B237F81A1C8142EED1286801680906AC
:101320005EBF016841F080010160E5E7286801685F
:1013300041F08001016002B0BDE8000BF0BD80B556
:101340006F4682B007F8011C791E0122FFF794FF57
:1013500002B080BDF0B503AF4DF804BD0D460446A4
:10136000FEF7BEFF668BFEF7BFFF002E02BF002018
:101370005DF804BBF0BD208BA168085C2870FEF707
:10138000AFFF218B01312183E28989B2914224BFD1
:1013900000212183618B01396183FEF7A5FF0120C4
:1013A0005DF804BBF0BD80B56F46A0B04FF0000CF7
:1013B000CDE903C28DE80310CDE9053CCDE907CCAA
:1013C000CDE909CCCDE90BCCCDF834C0684602F0AC
:1013D0008EF838B149F68430C0F6000040F22A3168
:1013E00000F0C9F920B080BD40F21840C5F60200F7
:1013F00004210180704740F21A40C5F60200042122
:1014000001807047704780B56F4604F035FC40F2AC
:101410001430C2F2000000F004F8BDE8804004F08F
:101420003ABCD0B502AF82B004460268D069D2F8A7
:1014300000C09368830616D5928C07F8092C17F81C
:10144000092CE38AA168CA54E18A0131E182E28968
:1014500089B2914224BF0021E182618B91423EBF5B
:10146000618B0131618300EA0C00010615D5A18A68
:1014700049B3012184F82810618AD4E90023595C1A
:101480001185618A01316182A28989B2914224BFAA
:1014900000216182A18A0139A18240062BD5A08A50
:1014A000E8B1608AD4E90012105C0885608A0130D6
:1014B0006082A18980B2884224BF00206082A08A15
:1014C0000138A08217E021680A6822F080020A60D1
:1014D0000A6842F040020A604006E0D40BE020684F
:1014E000016821F040010160206A002818BF804790
:1014F000002084F828002068016A41F0010101629F
:10150000016A41F002010162016A41F004010162D5
:10151000016A41F008010162016A41F010010162B3
:10152000016A41F040010162016A41F48071016287
:10153000016A41F400710162016A41F40031016203
:10154000016A41F480110162016A41F020010162E7
:1015500002B0D0BD40F24030C2F20000FFF761BFE0
:10156000D0B502AF40F21430C2F2000040F26C3449
:10157000C2F200042146FFF7EDFE2178002808BFE3
:10158000FF210846D0BDD0B502AF1046012A22DBAC
:1015900091F800E0BEF1000F1DD0002441F21C03C1
:1015A000C4F201034FF00D0C5FFA8EF20A2A04D147
:1015B000A3F80CC01A685206FCD50A789A811A68FA
:1015C0005206FCD501348442A8BFD0BD11F801EF0A
:1015D000BEF1000FE8D1D0BD80B56F4600F012F823
:1015E00000F03DF802F073FC00F041F8FFF720FA3C
:1015F000FFF7B4FBFFF7F0FCFFF742F9BDE88040CE
:10160000FFF77EBBD0B502AF84B000F098FA4FF080
:10161000105001900120ADF800000020C0F2011030
:1016200003901220C0F2013002906C46204600F078
:10163000A3FA4FF0C040019040F20110ADF8000055
:101640004FF0807003900F20C0F2003002902046CF
:1016500000F092FA042000F07FFA04B0D0BD80B50B
:101660006F4600F09AF8BDE8804000F0AEB8B0B523
:1016700002AFCCB002A8BC2107F0C0F944F61800B4
:10168000C5F6020050F80C1C21F0040140F80C1CB7
:1016900000213191016841F440410160016801F489
:1016A00040413191319901688904FCD50220409074
:1016B0003E90C0213D9105213C91CDE93A000024A6
:1016C000389434944FF48030329001203190429419
:1016D00014203F9043940825419531A801F031FA38
:1016E00030B149F6CE30C0F60000A82100F043F832
:1016F00040204B904FF480614A91CDE94800CDE9FC
:101700004645032045903F20449044A8042101F021
:1017100068FC30B149F6CE30C0F60000C22100F0BE
:101720002AF84FF4801023904FF48020029002A8F2
:1017300000F01EFB30B149F6CE30C0F60000C821E3
:1017400000F019F803F028FF44F2F440C5F6020057
:1017500050F8F41C41F0800140F8F41C016841F09D
:1017600002010160006800F002000190019802F09F
:101770002FFC4CB0B0BDD0B502AF0C46014649F6C7
:10178000C830C0F60000224607F03EFA002C08BF21
:10179000D0BDFEE7FFF7F1B97047BFF34F8FBFF33E
:1017A0006F8F4EF61450CEF200000021C0F83C12AC
:1017B000BFF34F8FBFF36F8F016841F400310160B9
:1017C000BFF34F8FBFF36F8F7047F0B503AF4DF886
:1017D00004BD4EF61450CEF2000000210167BFF3A5
:1017E0004F8FC26EC2F34E31C2F3C9024FEA827EFE
:1017F000531C43F6E07C0CEA411274461D4644EA51
:101800000206C0F84C6204F14044013DF7D14A1E83
:1018100000291146EFD1BFF34F8F016841F48031A9
:101820000160BFF34F8FBFF36F8F5DF804BBF0BD56
:101830007047FEE7FEE7FEE77047704780B56F46EA
:1018400004F01AFA42F26800C2F2000002F02EFD23
:10185000BDE8804004F01FBA80B56F4600F03CF848
:10186000FFF7BAFEBDE8804004F0FEB84EF6885C93
:10187000CEF2000CDCF8001041F47001CCF800103E
:1018800044F20041C5F602010A6842F001020A6012
:1018900000220A610B684EF67F50CEF6F620184003
:1018A00008608A61CA610A628A62CA620A634A631C
:1018B0008A63CA630A644A64086820F48020086066
:1018C0000A6648F20810C5F20010012101604FF0CD
:1018D00000604CF8800C704780B56F4644F20040C1
:1018E000C5F602000169C1F3C20240F60011C0F260
:1018F0003D01032A0DD0022A2BD0002A57D10168BE
:10190000C1F3C10149F20002C0F2D03222FA01F162
:101910004DE0D0F828E0D0F828C0C36A03F00103F6
:10192000426BC2F3CC025A430EF0030300EE102ABE
:10193000CCF30512B8EE400A022B0FD093B9016820
:10194000C1F3C10149F20003C0F2D03323FA01F11F
:1019500008E047F64001C0F27D1128E047F640015B
:10196000C0F27D11036B6FF35F2301EE103A9FED20
:101970001C2AB1FBF2F1026BB8EE411AC2F3462207
:10198000B7EE003A04EE101A00EE021A511CB8EE3F
:10199000440A31EE031A02EE101AB8EE422A21EE82
:1019A000000A80EE020ABCEEC00A10EE101A40F2E5
:1019B0000002C2F20002116080694FF4807191FA56
:1019C000A1F1B1FA81F100F47060C84049F6E83144
:1019D000C0F60001085C116821FA00F0106080BDBB
:1019E00000000039DFF834D0002103E00C4B5B58D5
:1019F0004350091D0B480C4B42189A42F6D30B4A30
:101A000002E0002342F8043B094B9A42F9D3FFF766
:101A10002DFF06F0F9FF04F055F870470000022092
:101A200070A6000800000020F8010020F801002046
:101A300080260020FEE700F000B84EF60C51CEF2F2
:101A400000010A684FF6FF031A4060F30A2242F0D1
:101A5000806040F0FD7008607047F0B503AF4DF84E
:101A600004BD14460D46064600F00CF829462246F1
:101A700000F021F8014630465DF804BBBDE8F040B7
:101A800000F008B84EF60C50CEF200000068C0F32B
:101A90000220704700F1604C00F00F034EF6145224
:101AA000CEF200021A44B0F1FF3FC8BF0CF5644209
:101AB00008011070704700F00700C31E38BF0023F4
:101AC00080F00700042828BF04204FF0FF3C0CFAE8
:101AD00000F021EA000098400CFA03F122EA01012B
:101AE0000843704700F000B8002848BF704700F076
:101AF0001F01012202FA01F140094EF20012CEF25A
:101B0000000242F82010704700F000B8B0B502AFF4
:101B100001380024B4EB106F1EBF01242046B0BD75
:101B20004EF21005CEF2000568604FF0FF300F2135
:101B3000FFF7B0FFAC60072028602046B0BDBFF3C0
:101B40005F8F4EF62450CEF20000016821F4803100
:101B5000016000210167704740F001004EF62451FA
:101B6000CEF200010867086840F480300860BFF3D7
:101B70004F8FBFF36F8F7047D0B502AF42784EF6EC
:101B80009C5ECEF2000E4EF8042C0278F2B143684F
:101B9000CEF80030037B42EA037290F808C0437A23
:101BA000817AC47A42EA046242EAC141427B41EA54
:101BB0008241827B41EA4241C07B41EA004040EAE7
:101BC000032040EA4C00CEF80400D0BD0020CEF83F
:101BD0000000CEF80400D0BDF0B503AF2DE9000F32
:101BE00083B042F20042C5F602020A23904208BFC7
:101BF0000923019300F1264202F1FF724FEAB2225B
:101C0000009200224FF0010E4FF000084FF0000A42
:101C100008E0023208F104080AF1010ABAF1100FD3
:101C200000F0A1800EFA0AFB0E6816EA0B09F0D04C
:101C30004E6846F01006122E10D108F01C060F2335
:101C400003FA06F46FF0030303EA5A0303441D6A20
:101C5000A5430C6904FA06F62E431E620323934043
:101C6000066826EA03054E6806F0030494402543FF
:101C700005606FEA030C122E16D80EFA06F313F065
:101C8000061F1FBF836803EA0C03CC6894401FBF84
:101C900023438360C6F3001303FA0AF31FBF4468AB
:101CA00024EA0B0423434360C36803EA0C038D68F2
:101CB00095402B43C360F300ABD544F2F443C5F623
:101CC00002031E461B6843F002033360336803F0CF
:101CD00002030293029B2AF0030340F20846C5F672
:101CE0000006B3469E5908F00C050F24AC4026EAC6
:101CF000040C009E092E019C38BF344604FA05F5F9
:101D000045EA0C0643F80B600423C5F600039C4625
:101D1000DB6F43EA09064D68EC0358BF23EA090666
:101D2000CCF87C60DCF8803043EA0906AC0358BF8D
:101D300023EA0906CCF880604FF0B04BDBF80030A6
:101D400043EA0906EC0258BF23EA0906CBF8006013
:101D5000DCF8003043EA0906AD0258BF23EA090661
:101D6000CCF8006055E703B0BDE8000FF0BD0000FF
:101D7000F0B503AF2DE900070446C078000744F230
:101D80002C49C5F6020926D5606E4FEA305003286B
:101D90000AD8DFE800F0020C1118D9F8000040F46E
:101DA0000030C9F800000EE04FF0010815E0201DDA
:101DB000022100F05AFC04E004F12400022100F0AA
:101DC000D4FC804648B9D9F82400616E20F4401054
:101DD0000843C9F824004FF000086078C00701D11B
:101DE00046462DE0606D042807D84646DFE800F03F
:101DF00007191E0303000EBB09E001261EE0D9F8F7
:101E0000000040F40030C9F800004646B6B9D9F8E1
:101E10002400616D20F007000843C9F82400002663
:101E20000EE0201D002100F020FC04E004F124005D
:101E3000002100F09AFC0646002EE8D048EA060889
:101E4000607880072DD5A06D4FEAB010042806D821
:101E5000DFE800F007181D03030006BB08E00126B9
:101E60001DE0D9F8000040F40030C9F80000B6B910
:101E7000D9F82400A16D20F4E0700843C9F82400CB
:101E800000260EE0201D002100F0EFFB04E004F12D
:101E90002400002100F069FC0646002EE8D048EA44
:101EA0000608607840072FD5D4F8A4004FEA705098
:101EB000042806D8DFE800F007191E0303000EBB54
:101EC00008E001261EE0D9F8000040F40030C9F80F
:101ED0000000BEB9D9F82C00D4F8A41020F460009A
:101EE0000843C9F82C0000260EE0201D002100F058
:101EF000BCFB04E004F12400002100F036FC06469F
:101F0000002EE7D048EA0608607800072FD5D4F8FD
:101F1000A8004FEA3060042806D8DFE800F007196F
:101F20001E0303000EBB08E001261EE0D9F80000E6
:101F300040F40030C9F80000BEB9D9F82C00D4F83C
:101F4000A81020F0E0600843C9F82C0000260EE03D
:101F5000201D002100F089FB04E004F12400002191
:101F600000F003FC0646002EE7D048EA0608E078B9
:101F7000800726D5A06C4FEA3010032805D8DFE88B
:101F800000F0020610024EB912E0012606E0D9F870
:101F9000000040F40030C9F800004EB148EA0608DD
:101FA0000FE0201D022100F060FB0646002EF5D157
:101FB000D9F82000A16C20F030000843C9F82000B7
:101FC00000266078C0062DD5E06D4FEA3030042839
:101FD00006D8DFE800F007181D03030006BB08E081
:101FE00001261DE0D9F8000040F40030C9F80000D7
:101FF000B6B9D9F82400E16D20F4E0400843C9F8EF
:10200000240000260EE0201D002100F02EFB04E03D
:1020100004F12400002100F0A8FB0646002EE8D0C1
:1020200048EA06086078800625D5206E4FEA3040E1
:10203000052806D8DFE800F003070C03030376B990
:1020400010E001260BE0201D012100F00EFB04E052
:1020500004F12400012100F088FB064616B148EA8D
:10206000060808E0D9F82400216E20F4E020084397
:10207000C9F8240000266078400627D5D4F8AC00C3
:102080004FEA3070052806D8DFE800F003070C039C
:10209000030376B910E001260BE0201D012100F0BA
:1020A000E4FA04E004F12400012100F05EFB06469E
:1020B00016B148EA060809E0D9F82C00D4F8AC10AB
:1020C00020F0E0400843C9F82C00002660780006A4
:1020D00022D5E06E58B1B0F1005F0AD0B0F1805F58
:1020E00017D1D9F8000040F40030C9F800008EB9CB
:1020F00005E0201D012100F0B8FA064656B9D9F8CE
:102100002400E16E20F040500843C9F82400002666
:1021100002E0012648EA0608E078C00724D0606C97
:10212000032805D8DFE800F0020610024EB912E0DD
:10213000012606E0D9F8000040F40030C9F800009C
:102140004EB148EA06080FE0201D022100F08DFA8A
:102150000646002EF5D1D9F82000616C20F003006E
:102160000843C9F820000026A078400616D5D9F803
:10217000D40340F48070C9F8D40301F00FFF054682
:10218000D9F8D403C00506D401F008FF401B642829
:10219000F6D9032600E086B148EA06082078C00791
:1021A00053D0A06F4FEAF000052834D8DFE800F0E4
:1021B00003353A030303E6BB3EE0D9F84410D4F8F4
:1021C000B000414011F4407F11D0D9F84410D9F843
:1021D000442042F48032C9F84420D9F8442022F443
:1021E0008032C9F8442021F44071C9F84410B0F598
:1021F000807F40F01D8201F0D1FE054641F2883A11
:10220000D9F84400800700F1108201F0C7FE401B9E
:102210005045F5D9BDE701260BE0201D012100F056
:1022200024FA04E004F12400012100F09EFA06469D
:1022300016B148EA060808E0D9F82800A16F20F096
:1022400038000843C9F8280000262078800723D5E5
:10225000606F052806D8DFE800F003070C030303CE
:1022600076B910E001260BE0201D012100F0FDF9F8
:1022700004E004F12400012100F077FA064616B1CB
:1022800048EA060808E0D9F82800616F20F0070046
:102290000843C9F8280000262078400725D5D4F83F
:1022A0009000052806D8DFE800F003070C030303BD
:1022B00076B910E001260BE0201D012100F0D5F9D0
:1022C00004E004F12400012100F04FFA064616B1A3
:1022D00048EA060809E0D9F82C00D4F8901020F05C
:1022E00007000843C9F82C0000262078800627D56F
:1022F000D4F88C004FEA3070052806D8DFE800F0EB
:1023000003070C03030376B910E001260BE0201D40
:10231000002100F0AAF904E004F12400022100F0F9
:1023200024FA064616B148EA060809E0D9F828005A
:10233000D4F88C1020F0E0400843C9F828000026AB
:102340002078400627D5D4F898004FEAB020052819
:1023500006D8DFE800F003070C03030376B910E0AA
:1023600001260BE0201D002100F07FF904E004F1BC
:102370002400022100F0F9F9064616B148EA0608E1
:1023800009E0D9F82C00D4F8981020F4E050084364
:10239000C9F82C0000262078000627D5D4F89C0028
:1023A0004FEA7030052806D8DFE800F003070C0379
:1023B000030376B910E001260BE0201D002100F098
:1023C00054F904E004F12400022100F0CEF906469D
:1023D00016B148EA060809E0D9F82C00D4F89C1098
:1023E00020F460400843C9F82C000026207800073C
:1023F00013D5D4F88000B0F5805F07D104F1240034
:10240000022100F0B2F948EA000806E0D9F82810E5
:1024100021F440510843C9F828002078C00613D59C
:10242000D4F89400B0F5807F07D104F12400022194
:1024300000F09BF948EA000806E0D9F82C1021F4D6
:1024400040710843C9F82C00A078000722D5D4F8C1
:10245000A000B0F5003F0ED0B0F5803F05D0B0B978
:10246000201D002100F001F904E004F12400022104
:1024700000F07BF906465EB9D9F82C00D4F8A0101C
:1024800020F440300843C9F82C00002602E0012661
:1024900048EA0608A078400727D5D4F88400B0F5AC
:1024A000401F0BD0B0F5001F0AD0B0F5801F19D126
:1024B000D9F8000040F40030C9F800009EB906E0E9
:1024C00004F12400012100F050F906465EB9D9F864
:1024D0002800D4F8841020F440100843C9F82800DC
:1024E000002602E0012648EA0608A078C0071FD0AF
:1024F000E06CB0F5803F08D0B8B9D9F8000040F4DE
:102500000030C9F800008EB905E0201D022100F05E
:10251000ACF8064656B9D9F82000E16C20F48030BA
:102520000843C9F82000002602E0012648EA060810
:102530002068810015D481031DD4C1023DD4C1009F
:1025400045D481024ED4410056D4B0F1FF3F63DD43
:10255000B8F1000F18BF4FF001084046BDE8000772
:10256000F0BD04F12400022100F0FFF848EA000861
:1025700020688103E1D5E16F6FF0010202EB3122A7
:10258000022A0AD34FEA31223AB1012A10D1D9F8EE
:10259000002042F40032C9F8002056B9D9F82820AA
:1025A00022F440721143C9F82810C102C7D504E0D3
:1025B000012648EA0608C102C1D5D9F82410226FC5
:1025C00021F000411143C9F82410C100B9D559F8D0
:1025D0001C1CD4F8B42021F48041114349F81C1C80
:1025E0008102B0D5D9F82410A26E21F08071114378
:1025F000C9F824104100A8D559F81C1C21F4004149
:1026000049F81C1CD4F8B81059F81C2C114349F88F
:102610001C1CB0F1FF3F9BDCD9F82000216D20F09D
:1026200040500843C9F8200092E7002E7FF4B4AD73
:10263000D4F8B00059F81C1C21F47C5100F440720D
:10264000B2F5407F01BF4FF6CF72C0F2FF0202EA3F
:102650001012114349F81C1CD9F844106FF31F30B5
:102660000843C9F84400002698E5F0B503AF4DF8DB
:10267000048D044644F22C45C5F6020555F8040CB9
:1026800000F00300032802BF01205DF8048BF0BDB9
:10269000884655F82C0C20F0806045F82C0C01F091
:1026A0007DFC064655F82C0C000105D501F076FCA2
:1026B000801B0228F6D950E055F8040C216820F45C
:1026C0007C3040EA013045F8040C231D0FCB4FF459
:1026D0007E4606EB412189B201386FF35F20084442
:1026E0004FF4FE0101EB024101F4FE0108444FF0FA
:1026F000FE4101EB036101F0FE410844E8602868F7
:10270000616920F0C000084328602868A16920F0B2
:10271000200008432860B8F1000F08D02868B8F1FD
:10272000010F14BF40F4001040F4801002E028684C
:1027300040F40020286055F82C0C40F0806045F8EB
:102740002C0C01F02BFC044655F82C0C000108D48D
:1027500001F024FC001B0328F6D303205DF8048B52
:10276000F0BD00205DF8048BF0BDF0B503AF4DF86F
:10277000048D044644F22C45C5F6020555F8040CB8
:1027800000F00300032802BF01205DF8048BF0BDB8
:10279000884655F82C0C20F0805045F82C0C01F0A0
:1027A000FDFB064655F82C0C800005D501F0F6FB24
:1027B000801B0228F6D950E055F8040C216820F05F
:1027C0007C7040EA015045F8040C231D0FCB4FF4F8
:1027D0007E4606EB412189B201386FF35F20084441
:1027E0004FF4FE0101EB024101F4FE0108444FF0F9
:1027F000FE4101EB036101F0FE4108446861286875
:10280000616920F44060084328602868A16920F4C9
:10281000007008432860B8F1000F08D02868B8F1AC
:10282000010F14BF40F0807040F4000002E02868FF
:1028300040F48000286055F82C0C40F0805045F89A
:102840002C0C01F0ABFB044655F82C0C800008D48E
:1028500001F0A4FB001B0328F6D303205DF8048BD2
:10286000F0BD00205DF8048BF0BD000080B56F4620
:1028700044F2384CC5F6020C5CF8102C5CF810ECF5
:102880005CF80C3C03F01003DCF80410C1F3CC013D
:10289000594302F00303CEF3053200EE101AB8EEEE
:1028A000400A022B0ED093B95CF8381C890649F215
:1028B0000003C0F2D03342BF5CF8381CC1F3C10141
:1028C000CB4008E047F64003C0F27D1303E040F63A
:1028D0000013C0F23D03DCF800106FF35F2101EE3E
:1028E000101A9FED202AB3FBF2F1DCF80020B8EEBD
:1028F000411AC2F34622B7EE003A04EE101A00EE77
:10290000021A511CB8EE440A31EE031A02EE101AF4
:10291000B8EE422A21EE000A80EE021ABCEEC11A7D
:1029200080ED001ADCF80010C1F30641013101EE20
:10293000101AB8EE411A80EE011ABCEEC11A80EDF1
:10294000011ADCF80010C1F30661013101EE101A22
:10295000B8EE411A80EE010ABCEEC00A80ED020A10
:1029600080BD00BF0000003980B56F4644F2404C86
:10297000C5F6020C5CF8182C5CF818EC5CF8143CFA
:1029800003F48073DCF80410C1F3CC01594302F066
:102990000303CEF3055200EE101AB8EE400A022BE4
:1029A0000ED093B95CF8401C890649F20003C0F2CE
:1029B000D03342BF5CF8401CC1F3C101CB4008E0FA
:1029C00047F64003C0F27D1303E040F60013C0F267
:1029D0003D03DCF800106FF35F2101EE101A9FED4C
:1029E000202AB3FBF2F1DCF80020B8EE411AC2F362
:1029F0004622B7EE003A04EE101A00EE021A511CFD
:102A0000B8EE440A31EE031A02EE101AB8EE422A6A
:102A100021EE000A80EE021ABCEEC11A80ED001A07
:102A2000DCF80010C1F30641013101EE101AB8EED6
:102A3000411A80EE011ABCEEC11A80ED011ADCF8D1
:102A40000010C1F30661013101EE101AB8EE411A0F
:102A500080EE010ABCEEC00A80ED020A80BD00BF14
:102A60000000003980B56F4600F02EFC44F2204192
:102A7000C5F602010968102292FAA2F2B2FA82F2B5
:102A800001F07001D14049F6E832C0F60002515C15
:102A9000C84080BD80B56F4600F0A2FB44F21841EB
:102AA000C5F6020109684FF4807292FAA2F2B2FAF6
:102AB00082F201F47061D14049F6E832C0F60002BA
:102AC000515CC84040F20001C2F20001086080BDC4
:102AD000002804BF01207047F0B503AF4DF804BDD6
:102AE00015460E46044690F8450028B9002084F8A3
:102AF0004400204600F024F8206804F1080101F0A9
:102B000070FA2068A268314601F0B5FAD4E90102F2
:102B1000E36A294601F0E4FA2068A16850F8212010
:102B200042F0010240F8212044F20000C5F20020EA
:102B3000016841F00041016000205DF804BBF0BD78
:102B40007047F0B503AF2DE9000B81460078C00750
:102B500044F20046C5F6020652D0306900F0380053
:102B6000102807D1306880034AD5D9F8040000281E
:102B700046D158E1306900F03800182804D1B06A15
:102B800000F003000228EDD0D9F8040068B1B0F5D8
:102B9000803F06D03168B0F5A02F1CD141F48020D1
:102BA0003060306840F480301BE0306820F48030C2
:102BB0003060306820F48020306001F0EFF9054685
:102BC00041F28834306880031AD501F0E7F9401BE0
:102BD000A042F7D93DE121F480303060306820F424
:102BE0008020306001F0DAF9054641F2883430681F
:102BF000800305D401F0D2F9401BA042F7D928E1A7
:102C000099F80000800760D5306910F0380F1CD0AB
:102C1000306900F03800182804BFB06A5FEA80709D
:102C200013D0D9F80C00316850B321F019010843D2
:102C3000306001F0B3F905463068400737D401F041
:102C4000ADF9401B0228F7D903E13068400704D5ED
:102C5000D9F80C00002800F0E6803068D9F80C1094
:102C600020F019000843306001F098F905463068FB
:102C7000400714D401F092F9401B0228F7D9E8E08C
:102C800021F00100306001F089F905463068400705
:102C90001BD501F083F9401B0228F7D9D9E07068F1
:102CA000D9F810104FF47C3292FAA2F206E0706864
:102CB000D9F810104FF47C3292FAA2F2B2FA82F2F2
:102CC000914020F47C300843706099F80000C00601
:102CD0004FD5306900F0380008280FD13068C005A2
:102CE00004D5D9F81C00802840F09D807068D9F880
:102CF00020104FF0F84292FAA2F233E0306900F06F
:102D00003800182804D1B06A00F003000128E5D08B
:102D1000D9F81C10306871B140F08000306001F0CB
:102D20003DF905463068C00515D401F037F9401B60
:102D30000228F7D98DE020F08000306001F02EF9F4
:102D400005463068C00514D501F028F9411B032061
:102D50000229F6D942E17068D9F820104FF0F84204
:102D600092FAA2F2B2FA82F2914020F0F8400843BF
:102D7000706099F80000000721D5D9F81410706F21
:102D800071B140F00100706701F008F90546706FFD
:102D9000800714D401F002F9401B0228F7D958E04B
:102DA00020F00100706701F0F9F80546706F8007A8
:102DB00005D501F0F3F8401B0228F7D949E099F84E
:102DC0000000800621D5D9F81810306871B140F4A0
:102DD0008050306001F0E2F805463068800414D479
:102DE00001F0DCF8401B0228F7D932E020F48050D3
:102DF000306001F0D3F805463068800405D501F055
:102E0000CDF8401B0228F7D923E099F800004007CD
:102E10000DD4D9F82440002C00F0C680306900F0B1
:102E20003800182829D10120BDE8000BF0BDD6F8E4
:102E3000000440F48070C6F8000401F0AFF80546C5
:102E4000D6F80004C00508D401F0A8F8401B642897
:102E5000F6D90320BDE8000BF0BDD9F8080050B347
:102E6000012806D0316F052840F0A28041F004000F
:102E70003067306F40F00100A0E0306820F08070D3
:102E8000306001F08BF80546022C09D130688001D2
:102E900028D501F083F8411B03200229F6D99DE0D3
:102EA0003068800140F1808001F078F8411B0320F8
:102EB0000329F5D392E0306F20F001003067306FC6
:102EC00020F00400306701F069F8054641F28838C7
:102ED000306F80079DD501F061F8411B032041450B
:102EE000F6D97BE0B06A40F2F3318843D9E90A129F
:102EF000084340EA0210B06209F130030FCB4FF4EF
:102F00007E4505EB412189B201386FF35F2008440B
:102F10004FF4FE0101EB024101F4FE0108444FF0C1
:102F2000FE4101EB036101F0FE4108443063706B28
:102F30004FF6F8718843D9F8482091FAA1F1B1FA17
:102F400081F102FA01F108437063F06AD9F8401088
:102F500020F00C000843F062F06AD9F8441020F029
:102F600002000843F062F06A40F48030F062F06AD8
:102F700040F40030F062F06A40F48020F062F06AC1
:102F800040F00100F062306840F08070306001F085
:102F900005F804463068800106D400F0FFFF011BED
:102FA00003200229F6D919E00020BDE8000BF0BD8E
:102FB00021F001003067306F20F00400306700F02E
:102FC000EDFF054641F28838306F80073FF521AFAD
:102FD00000F0E4FF411B03204145F5D9BDE8000B9B
:102FE000F0BDF0B503AF2DE900070D46044642F2EF
:102FF0000009C5F20029D9F8000000F00700884256
:103000000CD2D9F8000020F007002843C9F80000CE
:10301000D9F8000000F00700A84264D120688107B9
:1030200044F21848C5F6020807D5D8F80010E2683F
:1030300021F00F011143C8F80010C00742D1D9F8A0
:10304000000000F00700A8420CD9D9F8000020F0D9
:1030500007002843C9F80000D9F8000000F0070075
:10306000A84240D12068410741D4010749D4C10694
:1030700051D4800607D5D8F80800E16920F0700027
:103080000843C8F8080000F0ABF8D8F800104FF477
:10309000807292FAA2F2B2FA82F201F47061D14027
:1030A00049F6E832C0F60002515CC84040F2000127
:1030B000C2F2000108600F2000F03BFF0020BDE8D5
:1030C0000007F0BDD8F80000A16820F47060084344
:1030D000C8F800006068032828D0022873D158F887
:1030E000181C890326D40120BDE80007F0BDD8F8DC
:1030F0000010226921F070011143C8F80010010787
:10310000B5D5D8F80410626921F070011143C8F8F0
:103110000410C106ADD5D8F80410A26921F4E0610D
:103120001143C8F804108006A5D4ACE758F8181C61
:103130008901D8D558F8081C21F00701084348F840
:10314000080C00F02BFF0646606841F2883A03281D
:1031500024D0022830D001280DD158F8080C00F0F6
:10316000380008283FF46BAF00F018FF811B0320E4
:103170005145F2D9A3E758F8080C10F0380F3FF486
:103180005EAF00F00BFF811B03205145F3D996E79A
:1031900000F004FF811B0320514590D858F8080C1B
:1031A00000F038001828F3D149E700F0F7FE811B42
:1031B000032051453FF683AF58F8080C00F0380063
:1031C0001028F2D13BE758F8181C012803D1C90593
:1031D0007FF589AFAEE749077FF585AFAAE7000025
:1031E00080B56F4644F20041C5F602010869C0F39C
:1031F000C20240F60010C0F23D00032A16D0022A97
:1032000002BF47F64000C0F27D1080BD002A18BF03
:1032100080BD0868800649F20000C0F2D03041BF8E
:103220000968C1F3C101C84080BD80BDD1F828E064
:10323000D1F828C0CB6A03F001034A6BC2F3CC0279
:103240005A430EF0030300EE102ACCF30512B8EE39
:10325000400A022B0CD07BB90868800649F20000B6
:10326000C0F2D03042BF0B68C3F3C103D84003E0C3
:1032700047F64000C0F27D100B6B6FF35F2301EE49
:10328000103A9FED102AB0FBF2F0096BB8EE411A2C
:10329000C1F34621B7EE003A04EE100A00EE021A1E
:1032A000481CB8EE440A31EE031A02EE100AB8EEDA
:1032B000422A21EE000A80EE020ABCEEC00A10EE9D
:1032C000100A80BD0000003980B56F46FFF7E2FBB1
:1032D00044F21841C5F602010968012292FAA2F2ED
:1032E000B2FA82F201F00F01D14049F6E832C0F69D
:1032F0000002515CC84040F20401C2F200010860C3
:1033000080BD80B56F46FFF7DFFF44F21C41C5F674
:1033100002010968102292FAA2F2B2FA82F201F0D6
:103320007001D14049F6E832C0F60002515CC84055
:1033300080BD80B56F46FFF7C7FF44F21C41C5F65C
:10334000020109684FF4807292FAA2F2B2FA82F294
:1033500001F4E061D14049F6E832C0F60002515C68
:10336000C84080BD002804BF01207047D0B502AF1F
:10337000044690F83D0028B9002084F83C0020461F
:1033800000F00CF8022084F83D002068211D00F0B8
:1033900006F8012084F83D000020D0BD7047028867
:1033A00040F6FF33C4F2000398420FDCB0F1804FC7
:1033B0001EBF40F20043C4F20003984212D040F610
:1033C0000003C4F2000398420CD00FE040F6004323
:1033D000C4F2000398421EBF40F20043C4F201034E
:1033E000984270D14B6822F070021A434FF6FF7377
:1033F000C4F20003984243F6FF7CC4F2010C10DDD6
:1034000060451ADD44F20003C4F2010398421EBF76
:1034100044F60003C4F20103984226D044F200436C
:1034200012E040F2FF73C4F20003984211DCB0F1E5
:10343000804F1AD040F2004313E00023C4F201038E
:10344000984212D040F20043C4F2010398420CD0DB
:103450000FE040F60003C4F20003984205D040F6A6
:103460000043C4F20003984203D1CB6822F44072B7
:103470001A434B6922F080021A4302808A68C262B2
:103480000A68028560450EDD44F20002C4F20102C2
:1034900090421EBF44F60002C4F2010290420DD0D9
:1034A00044F2004206E00022C4F20102904205D03C
:1034B00040F20042C4F20102904201D10969018642
:1034C0000121416170470023C4F2010398423FF497
:1034D00089AF8BE7022180F83D1001680A8842F02D
:1034E00001020A80012180F83D1000207047D0B50C
:1034F00002AFB0B1044690F8790028B9002084F8F2
:103500007800204600F027F8242084F8790020680D
:10351000016821F001010160204600F01DF801283A
:1035200001D10120D0BD606B00281CBF204600F0F7
:10353000E1FB2068416821F490414160816821F0FD
:103540002A018160016841F0010101602046BDE867
:10355000D04000F043BC7047F0B503AF2DE9000F39
:1035600087B08346C069DBF828C0DBF80010DBF8C1
:103570000830DBE904650C6846F6F312CCF6FF72FE
:10358000224043EA0C0333432B43184310430860A3
:103590004868DBF80C2020F4405010434860DBF80A
:1035A000183040F60040C5F6000081421CBFDBF831
:1035B00020201343BCF1005F02BFDBE90B261A4356
:1035C00042EA06038A684FF2FF46C1F2FF16324014
:1035D0001A438A60CA6ADBF8243022F00F021A43C9
:1035E000CA624FF0800A44F20048C5F6020847F26A
:1035F000FF72C4F20002914225DD40F6FF72C4F270
:10360000010291423FDD814200F0718041F20042AF
:10361000C4F20102914200F0788041F20002C4F24B
:103620000102914240F0B480D8F85410C1F3C201B5
:10363000052900F29F80DFE811F07300A000A300CD
:10364000A600A9009A0044F6FF32C4F2000291429B
:1036500033DC44F20042C4F20002914200F0638085
:1036600044F60002C4F20002914240F09180D8F882
:10367000541001F00701052900F27C80DFE801F019
:10368000747D8083867747F60002C4F2000291427F
:1036900000F0548047F60042C4F20002914240F02C
:1036A0007780D8F8541001F00701052900F26280F4
:1036B000DFE801F05A6366696C5D44F60042C4F2CB
:1036C0000002914200F0458045F20002C4F200027F
:1036D000914240F05D80D8F8541001F007010529AF
:1036E00000F24880DFE801F040494C4F5243D8F8DF
:1036F000581001F0070105293CD8DFE801F0033E2E
:10370000414447384FF0020A42E0D8F85410C1F360
:10371000C20105292ED8DFE801F003303336392AFB
:103720004FF0010A34E0D8F8541001F007010529E0
:1037300020D8DFE801F0192225282B1CD8F85410D6
:1037400001F00701052915D8DFE801F00E171A1D51
:103750002011D8F8541001F0070105290AD8DFE834
:1037600001F0030C0F1215064FF0000A10E04FF0A5
:10377000200A0DE04FF0800A0AE04FF0040A07E04B
:103780004FF0400A04E04FF0080A01E04FF0100A41
:10379000DBF80010814200F05280DBF81C000125AC
:1037A000B0F5004F40F07A800020BAF1400F00F2EF
:1037B0007C81DFE81AF0410012017A017A012101CF
:1037C0007A017A017A0130017A017A017A017A016B
:1037D0007A017A017A0144017A017A017A017A0147
:1037E0007A017A017A017A017A017A017A017A0101
:1037F0007A017A017A0153017A017A017A017A0118
:103800007A017A017A017A017A017A017A017A01E0
:103810007A017A017A017A017A017A017A017A01D0
:103820007A017A017A017A017A017A017A017A01C0
:103830007A017A017A016401FFF763FDCFE0AAF112
:103840000206012540F60019C0F23D091E2E00F2C5
:103850006F804846DFE816F01F00A6017500A6013C
:10386000A601A6017B00A601A601A601A601A6014C
:10387000A601A6018B00A601A601A601A601A6012C
:10388000A601A601A601A601A601A601A601A60100
:10389000A601A6018900FFF7E5F856E0BAF1400F4E
:1038A00000F28081DFE81AF041000B017E017E0109
:1038B00020017E017E017E012F017E017E017E01BD
:1038C0007E017E017E017E0143017E017E017E013B
:1038D0007E017E017E017E017E017E017E017E01F0
:1038E0007E017E017E017E0152017E017E017E010C
:1038F0007E017E017E017E017E017E017E017E01D0
:103900007E017E017E017E017E017E017E017E01BF
:103910007E017E017E017E017E017E017E017E01AF
:103920007E017E017E017E016701FFF7EAFCC8E0AF
:10393000BAF1400F40F0368101A8FFF715F8029860
:1039400003E004A8FEF792FF059880B929E1D8F8B2
:103950000000800649F20000C0F2D03042BFD8F823
:103960000010C1F3C101C84001E04FF40040DBF892
:10397000042002EB420101258842C0F013811103AB
:10398000884200F20F8101251E2E00F21081DFE82F
:1039900016F01F00A6015801A601A601A6016901A3
:1039A000A601A601A601A601A601A601A6017C0109
:1039B000A601A601A601A601A601A601A601A601CF
:1039C000A601A601A601A601A601A601A601210144
:1039D000FFF748F8DBF804204CE1FFF7AAFCDBF81E
:1039E0000410DBF8242049F6F833C0F6000333F85E
:1039F0001220B0FBF2F052E004A8FEF737FFDBF82C
:103A00000410DBF8240049F6F832C0F6000232F860
:103A10001000059A41E0D8F80000800600F1E78028
:103A2000DBF80410DBF8240049F6F832C0F6000297
:103A300032F8100049F20002C0F2D0322DE0DBF87B
:103A40000410DBF8240049F6F832C0F6000232F820
:103A5000100040F60012C0F23D021EE0DBF8041038
:103A6000DBF8240049F6F832C0F6000232F8100004
:103A70004FF40042B2FBF0F04200480811E001A808
:103A8000FEF772FFDBF80410DBF8240049F6F83289
:103A9000C0F6000232F81000029AB2FBF0F04000CB
:103AA0004A081044B0FBF1F000254FF6F0710140D8
:103AB000C0F342000844DBF80010C86072E0FFF772
:103AC00038FCDBF80010DBF80420DBF8243049F682
:103AD000F836C0F6000636F81330B0FBF3F000EB12
:103AE0005200B0FBF2F043E004A8FEF7BFFEDBE9B2
:103AF0000001DBF8242049F6F833C0F6000333F860
:103B00001220059B45E0D8F80000800600F1848073
:103B1000DBF80400DBF8242049F6F833C0F6000394
:103B200033F8122049F20003C0F2D0331AE0DBF878
:103B30000400DBF8242049F6F833C0F6000333F81C
:103B4000122040F60013C0F23D030BE0DBF8040046
:103B5000DBF8242049F6F833C0F6000333F81220CE
:103B60004FF40043B3FBF2F202EB5002B2FBF0F071
:103B700080B2C86015E001A8FEF7F6FEDBE900019F
:103B8000DBF8242049F6F833C0F6000333F812209E
:103B9000029BB3FBF2F202EB5102B2FBF1F189B2EC
:103BA000C1600025284607B0BDE8000FF0BDBAF19E
:103BB000400F40F0948001A8FEF7D6FEDBF8042009
:103BC000DBF8240049F6F831C0F6000131F81000A6
:103BD000029944E0DBF8240049F6F831C0F6000110
:103BE00031F810004FF40041B1FBF0F057E0D8F885
:103BF0000000DBF80410DBF8242049F6F833C0F6A7
:103C0000000333F81220C0F3C10049F20003C0F2F0
:103C1000D03323FA00F0ECE6D8F80000DBF80420FB
:103C2000DBF8243049F6F836C0F6000636F81330D3
:103C3000C0F3C10049F20006C0F2D03626FA00F007
:103C40004BE704A8FEF712FEDBF80420DBF82400A3
:103C500049F6F831C0F6000131F810000599B1FBC2
:103C6000F0F032E0D8F80000800649F20000C0F21F
:103C7000D0301BD4DBF8241049F6F833C0F600032B
:103C800033F81110B0FBF1F01FE0DBF8240049F627
:103C9000F831C0F6000131F81000B9FBF0F0000275
:103CA00000EB5200B0FBF2F0002518E0D8F800104D
:103CB000DBF8243049F6F836C0F6000636F8133043
:103CC000C1F3C101C840B0FBF3F0010E000210EBDC
:103CD000520041F1000100250023FCF7A9FBA0F5EB
:103CE00040714FF6FF42C0F20F0291427FF6E3AE01
:103CF000012557E780B56F46416BCA070CD18A078B
:103D000015D44A071ED40A0727D4CA0630D48A0617
:103D100039D44A0642D456E002685368D0F838C015
:103D200023F4003343EA0C0353608A07E9D50268A1
:103D30005368D0F83CC023F4803343EA0C0353604B
:103D40004A07E0D502685368D0F840C023F48023C6
:103D500043EA0C0353600A07D7D502685368D0F8CA
:103D600044C023F4004343EA0C035360CA06CED593
:103D700002689368D0F848C023F4805343EA0C03E8
:103D800093608A06C5D502689368D0F84CC023F4C6
:103D9000005343EA0C0393604A0614D5D0F800E0C0
:103DA000DEF804C0036D2CF480121A43CEF8042010
:103DB000B3F5801F07D1DEF80420436D22F4C00262
:103DC0001A43CEF80420090658BF80BD01684A682E
:103DD000806D22F400221043486080BDB0B502AF70
:103DE00082B004460020E06700F0D8F8054620685D
:103DF000006800070AD56FF07E40009020464FF41F
:103E0000001100222B4600F01DF870B920680068F0
:103E100040070DD56FF07E40009020464FF48001A2
:103E200000222B4600F00EF810B1032002B0B0BD06
:103E3000202184F87910002084F8780084F87A1022
:103E400002B0B0BDF0B503AF2DE9000782460068AF
:103E5000C0690840401AB0FA80F04009904232D15F
:103E6000984616460D46D7F8089009F101045CB94A
:103E7000DAF80000C0692840401BB0FA80F0400921
:103E8000B04220D1002CF3D0B9F1000F05D000F0E2
:103E900085F8A0EB08004845EAD9DAF80000016887
:103EA00021F4D0710160816821F00101816020203E
:103EB0008AF8790000218AF878108AF87A000320BD
:103EC000BDE80007F0BD0020BDE80007F0BD80B5EB
:103ED0006F460320FDF7AFFDFFF782F944F218416A
:103EE000C5F602010A68C2F3032249F6E833C0F6B8
:103EF00000039A5C02F01F02D040096840F2000201
:103F0000C2F20002106001F00F01595C01F01F01C4
:103F1000C84040F20401C2F2000108600F2000F026
:103F200008F800281CBF012080BD00F029F80020FF
:103F300080BDB0B502AF044640F20800C2F20000F6
:103F400000784FF47A71B1FBF0F040F20001C2F258
:103F500000010968B1FBF0F0FDF7D6FD01250F2C3B
:103F60000CD858B900254FF0FF3021460022FDF74C
:103F700074FD40F20C00C2F2000004602846B0BD9F
:103F8000704740F20800C2F20000007841F2703140
:103F9000C2F200010A6810440860704741F27030B4
:103FA000C2F2000000687047B0B502AF0446FFF7E8
:103FB000F5FF054640F20800C2F200000078611CDF
:103FC00018BF0444FFF7EAFF401BA042FAD3B0BD7C
:103FD00040F22040C5F60000016841F00101016097
:103FE0007047F0B503AF2DE90007D1E900C9D1E969
:103FF00002EA01F1100898E8700150F82C2040F214
:104000008043CFF6C0731A4042EA090242EA0E0228
:1040100042EA0A0222432A43324348EA020801F1F3
:10402000200A9AE87804D1E90D9243EA0803234371
:104030002B43334343EA0A031A4342EA0902BEF11F
:10404000080F08BF42F0400240F82C200A6BB2F57E
:10405000801F05D10A6852B1026842F480120260E2
:104060000A68002A1FBF496B0268114301600020E3
:10407000BDE80007F0BDF0B503AF2DE9000F00EB80
:104080008203D3F80480D1E900EAD1E902B6D1E98C
:1040900004298C6940F2000CCFF6F07C0CEB025244
:1040A00008F0404545EA0E0545EA0A1545EA0B25A4
:1040B00045EA06463243224309F1FE0642EA066219
:1040C0005A600268D20207D5426809690CEB0151B7
:1040D00022F47002114341600020BDE8000FF0BDE2
:1040E000B0B502AFB3F5804F15D150F822C0002310
:1040F000CCF6F0730CEA030CD1E9003ED1E902459D
:1041000043EA0C0343EA0E1343EA042343EA05435C
:104110008969194301E06FF0704140F822100020D6
:10412000B0BDF0B503AF2DE9000F8DB0002800F051
:1041300087800446056890F8BD0328B9002084F8FC
:10414000BC03204604F092F9032084F8BD03E86B19
:10415000C0055CBF00202061206800F039FE2068A7
:104160000C9060680B9004F1080E9EE82C5004F14E
:104170001C0B9BE8400FD4E90C01CDE908018DE848
:10418000205003A880E8400FDDE90B1000F037FD58
:10419000002852D120680025002100F01FFE606831
:1041A00070B36068012100230022C3EBC30304EB5A
:1041B0008303D6B2A3F8426083F83C2083F83D1015
:1041C0001D65C3E9115583F83F500132D3B29842BF
:1041D000EBD80025A0B100220021C2EBC20204EB03
:1041E0008202C2F81052C2E9815582F8FF5182F86A
:1041F000FC1182F8FD510131CAB29042EDD805465A
:104200002368A0680C90E0680B9004F1100E9EE803
:10421000445004F1200B9BE8000FD4E90C01CDE9D8
:1042200008018DE8445004A880E8000F184629468C
:10423000DDE90B3200F0EBFD38B1022084F8BD035C
:1042400001200DB0BDE8000FF0BD002084F838005B
:10425000012084F8BD03606A012804BF204600F0F5
:10426000BAFC206801F013F90020EAE7D0B502AFEC
:10427000044690F8BC03012804BF0220D0BD20688A
:10428000012184F8BC13A16A012906D1A169012981
:104290001EBF816B41F48031816301F0EBF820682F
:1042A00000F090FD002084F8BC03D0BDF0B503AF52
:1042B0002DE9000F83B082460668304601F020F9F0
:1042C00018B103B0BDE8000FF0BDDAF8000001F04E
:1042D000EBF80028F5D0DAF8000001F0E5F88007E7
:1042E00041BFDAF80000416901F002014161DAF8EA
:1042F000000001F0D9F8C00640D5DAF80000816965
:1043000021F010018161346AC4F3434004F00F05C9
:1043100006281CD002282BD147F6F070044027D085
:10432000C5EBC5000AEB8005D5F808122209304616
:1043300001F047F8D5F80802D5F8141200EB141074
:10434000C5F8080201EB1410C5F8140210E00AF5D4
:1043500071713046082201F034F8C5EBC5000AEB54
:104360008000D0F81412C4F30A121144C0F81412D9
:10437000DAF80000816941F0100181610296DAF8F3
:10438000000001F091F800033BD5DAF8000001F0DD
:104390008FF8B0B3029901F530654FF000084FF087
:1043A0000109002613E0E00644BF1020A860A00623
:1043B00044BF2020A860A00444BF4FF40050A86070
:1043C00020354FEA5B000136B8EB5B0F19D083460E
:1043D000C007F5D0DAF80000F1B201F077F8044632
:1043E000C00705D0C5F808905046314600F0A7F93F
:1043F0002007D8D50820A8605046314600F005FABD
:10440000D1E7DAF8000001F04FF8400367D5DAF899
:10441000000001F054F8002861D00AF14404029928
:1044200001F510680AF5717101910025002608E078
:104430001C3408F120084FEA59000136B5EB590F3A
:104440004DD08146C007F3D0DAF800005FFA86FB52
:10445000594601F043F80546C00723D006F00F0087
:10446000012303FA00F002990A46D1F8341821EA30
:104470000000C2F83408C8F80830DAF81000012843
:104480000CD1D4E90001084460603EB9E06828B965
:10449000DAF800000121019A01F051F8504659461E
:1044A00004F04DF8280744BF0820C8F80800E806C3
:1044B00044BF1020C8F80800680644BF4020C8F870
:1044C0000800A80744BF0220C8F8080028064FF0DB
:1044D0000005ADD55046314600F0C4F9A8E7DAF83A
:1044E000000000F0E1FFB0F1FF3F029C1ADCD4F8BD
:1044F000040820F00100C4F804089AF8F403012825
:1045000007D100208AF8F4035046002100F076FB22
:1045100002E0504604F056F8DAF80000416901F074
:1045200000414161DAF8000000F0BEFF00050CD543
:10453000D4F80808C0071CBF504604F028F8DAF881
:104540000000416901F400614161DAF8000000F007
:10455000ABFF000118D5DAF80000416901F00061F5
:1045600041619AF8F41319B1504604F010F80BE0C9
:1045700001218AF8F413406DC0F38300CAF8F803F0
:104580005046012100F03AFBDAF8000000F08CFF01
:10459000C0045ED5D4F8040820F00100C4F8040873
:1045A000DAF80000102100F0FFFC04F50060DAF8F2
:1045B000041009B304F51061DAF8042000234FF663
:1045C0007F368E600D6825F400150D600D6845F08E
:1045D00000650D60C1F80862D1F8005225F400159D
:1045E000C1F80052D1F8005245F00065C1F8005200
:1045F000203101339342E4D3C16941F00111C1611B
:10460000DAF8301041B1D0F8841041F00B01C0F855
:10461000841000F1440106E0416942F22B0211438B
:10462000416100F110010A6842F00B020A60016862
:1046300021F4FE6101609AF81010DAF800000AF522
:10464000717200F07CFFDAF80000416901F48051DA
:104650004161DAF8000000F027FF80041CD5DAF889
:10466000000000F051FFDAF8000000F0BEFCCAF8CC
:104670000C00DAF80040FEF727FE01469AF80C20FD
:10468000204600F018FB504603F066FFDAF8000001
:10469000416901F400514161DAF8000000F004FFC3
:1046A000000708D5504603F053FFDAF800004169CF
:1046B00001F008014161DAF8000000F0F5FEC002E7
:1046C00009D55046002103F085FFDAF80000416962
:1046D00001F480114161DAF8000000F0E5FE80028B
:1046E00009D55046002103F071FFDAF80000416956
:1046F00001F400114161DAF8000000F0D5FE40003D
:1047000008D5504603F06AFFDAF80000416901F06D
:1047100080414161DAF8000000F0C6FE40077FF5F5
:10472000D0ADDAF800004468600744BF504603F09B
:1047300059FFDAF80000416821434160C1E5B0B596
:1047400002AF0D460446006800EB4111036CD1F83E
:10475000082B01F5306C2169012928D1110735D4C6
:1047600091064ED412F0280F18BFB0BD43F20B01D2
:10477000C4F654718B4202D312F400412FD1C5EB21
:10478000C50104EB8102D2E9811EDCF810306FF321
:10479000DF43CB1AC2F814327144C2F8081255BB79
:1047A000D2F8101239BB04F57172012121E043F2F5
:1047B0000B01C4F65471FF318B4213D110040ED497
:1047C000900644BF2020CCF8080014E043F20B0010
:1047D000C4F65470834217D312F4004014D04FF43F
:1047E00000400FE03DB9D4F8101221B904F5717200
:1047F000002100F0A4FEE9B22046BDE8B04003F07D
:1048000094BE2020CCF80800B0BDF0B503AF4DF841
:1048100004BD0446026802EB4110156CD0F8081B79
:10482000090443F20B06C4F6547606D5B54222BFFE
:1048300000F530604FF400418160204603F06EFEC9
:10484000B5420CD32069012809D1206804F57172A2
:1048500001215DF804BBBDE8F04000F070BE5DF8DA
:1048600004BBF0BDF0B503AF2DE9000F85B0804665
:10487000C1EBC10008EB8000044654F8503F2546C8
:1048800055F8042F93424FD3D8F800609B1A834603
:104890005BF8442F934288BF1346DA1C02910496BA
:1048A00006EB4111D1F818399BB2B3EB920F2AD322
:1048B00001F51061039100F1480902985FFA80FA4E
:1048C00022682868824220D9D9F80010DBF800302D
:1048D00098F810600096161A9E4288BF1E46B3B222
:1048E0000498524600F0D6FCD9F800003044C9F8CC
:1048F0000000286830442860F01C0399896989B257
:10490000B1EB900FDCD228682268824202980BD863
:1049100000F00F00012101FA00F0049AD2F83418D7
:1049200021EA0000C2F8340805B0BDE8000FF0BD70
:10493000D0B502AF044690F8BC03012804BF0220A2
:10494000D0BD84F83810012084F8BC03206800F042
:1049500081FD002084F8BC03D0BDD0B502AF044671
:1049600001F00F00090609D4C0EBC00104EB810C73
:1049700000218CF8FD110CF5FE7108E0C0EBC001C0
:1049800004EB810C01218CF83D100CF13C018A6094
:10499000CB7008704A78002A18BFC880022B04BF69
:1049A0000020087194F8BC03012804BF0220D0BD88
:1049B000012084F8BC03206800F025FB002084F867
:1049C000BC03D0BDD0B502AF044601F00F0009060C
:1049D00009D4C0EBC00104EB8101002281F8FD2164
:1049E00001F5FE7107E0C0EBC00104EB810101227B
:1049F00081F83D203C31087094F8BC03012804BFC5
:104A00000220D0BD012084F8BC03206800F044FBE4
:104A1000002084F8BC03D0BD80B56F4601F00F0CB8
:104A2000CCEBCC0100EB810E0021CEE98431CEF835
:104A300008228EF8FD118EF8FCC10EF5FE71036997
:104A4000012B08BFCEF80C220068DAB2BCF1000FCF
:104A500003D000F060FB002080BD00F035FC00209A
:104A600080BDD0B502AF01F00F0CCCEBCC0100EB58
:104A7000810E714601F83CCF0024C1E90534CA60BB
:104A800001234B700369012B08BFCEF84C2000684E
:104A9000DAB2BCF1000F03D000F03DFB0020D0BD26
:104AA00000F012FC0020D0BDB0B502AF044601F00A
:104AB0000F054068854284BF0120B0BD080609D4B7
:104AC000C1EBC10004EB8000002180F8FD1100F56E
:104AD000FE7108E0C5EBC50004EB8000012180F801
:104AE0003D1000F13C010D700120887094F8BC234A
:104AF000012A04BF0220B0BD84F8BC03206800F086
:104B000072FC2DB9217C206804F5717200F017FD4C
:104B1000002084F8BC03B0BDB0B502AF044601F07C
:104B20000F006268904282BF01252846B0BD090689
:104B300009D4C0EBC00104EB8101002281F8FD2102
:104B400001F5FE7107E0C0EBC00104EB8101012219
:104B500081F83D203C31087000258D7094F8BC032D
:104B6000012802BF02252846B0BD012084F8BC03FD
:104B7000206800F057FC84F8BC532846B0BD80B5CF
:104B80006F46D0F800C0DCF82400D1B1DCF8283042
:104B900000EB1343B1F1010E0BD0002000210CEB10
:104BA0008000D0F8040103EB10430131C8B2864500
:104BB000F5D80CEB8E0043EA0241C0F80411002046
:104BC00080BD40EA0240CCF82800002080BD00688B
:104BD0004162002070470121C0F8FC13002180F8D9
:104BE000F4130068816941F000618161416D41F019
:104BF000805141F003014165002070477047F0B5D6
:104C000003AF4DF804BD04463869BD6801281BD1C7
:104C1000F86AA16B21F48031A163E1684FF6BF729D
:104C2000CFF6BD721140E160E16821F44011E1600E
:104C3000012802BFE06840F48010E060204600F0E8
:104C400020F8012D12D019E03E6AE06840F04000E3
:104C5000E060204600F015F8A16B002E14BF21F48F
:104C6000803141F48031A163012D07D1A16841F069
:104C70000801A160A16841F02001A1605DF804BBBA
:104C8000F0BD40F64151C0F203010A46013A10D08E
:104C90000369B3F1FF3FF9DC026942F001020261EE
:104CA000013906D00269D20704BF002070470139DC
:104CB000F8D103207047022A5CD145F24032CFF68A
:104CC00027720A4443F20053C0F20C039A4202D204
:104CD0004FF4705150E041F64062CFF61B720A4427
:104CE00044F24023C0F20F039A4202D24FF46051C3
:104CF00042E0A1F57402A2F5105244F68073C0F2AE
:104D000012039A4202D24FF4505135E0A1F183725E
:104D1000A2F5E7424DF22063C0F213039A4202D299
:104D20004FF4405128E04BF26062CFF6E5620A444E
:104D30004EF26033C0F216039A4202D24FF4305161
:104D40001AE04DF20032CFF6CE620A4447F24073C9
:104D5000C0F21B039A4202D24FF420510CE045F6F8
:104D6000C032CFF6B3620A4449F2C013C0F2210345
:104D70009A420AD24FF41051C26822F47052C260B3
:104D8000C2681143C16000207047A1F1B772A2F55B
:104D9000585247F22053C0F238039A4202D24FF4DD
:104DA0000051E9E745F2E042CFF659620A4449F67C
:104DB000E043C0F241034FF4C0519A4238BF4FF470
:104DC000E051D9E7816841F001018160002070471E
:104DD000816821F0010181600020704780B56F4635
:104DE000C26822F0C042C260012906D000291CBF5F
:104DF000012080BD4FF0804101E04FF00051C268BA
:104E00001143C1603220FFF7CFF8002080BDF0B51C
:104E100003AF2DE9000F81B0884604464121D7F841
:104E200024A03869002244F8212001315029FAD108
:104E3000214651F8382FBAF1000F02D042F4001287
:104E40000AE022F40011A163216841F040012160D1
:104E5000216841F0800221460A604FF00009C4F841
:104E6000009ED4F80018C4F80018002B18BF0123C6
:104E7000012818BF03232046194600F08EF820466B
:104E8000102100F091F88346204600F09EF8C4F807
:104E90001098C4F81498C4F81C9850EA0B0018BF76
:104EA0000120B8F1000F30D004F510614FF67F32C9
:104EB0000023002B4FF0904608BF4FF000660D68AE
:104EC00006EAE5760E60C1F810908A602031013361
:104ED0009845EED1B8F1000F17D004F530614FF0CE
:104EE000000C4FF67F330026002E4FF0904508BF90
:104EF0004FF000650A6805EAE2720A60C1F810C066
:104F00008B6020310136B045EED1D4F8101821F471
:104F10008071C4F81018BA68012A16D140F2001145
:104F2000C0F28001C4F83018D4F8301841F4803150
:104F300041F00301C4F83018002144F8181F6FF045
:104F4000804144F8041C7B690DE0002144F8181FDF
:104F50006FF0804144F8041C002A7B6902BF21687D
:104F600041F010012160216843F60002C8F23C02C2
:104F700011432160002B1EBF216841F00801216010
:104F8000BAF1010F01BF216841F0804141F00401F5
:104F9000216001B0BDE8000FF0BDD0F8002811433A
:104FA000C0F800180020704789012031016140F6E7
:104FB0004151C0F20301013904BF03207047026967
:104FC00092065CBF00207047F5E71021016140F6B2
:104FD0004151C0F20301013904BF03207047026947
:104FE000D2065CBF00207047F5E7D0F8080810F043
:104FF000060004BF0020704740F004010F2006297E
:1050000008BF0220704780B56F4691F800C091F844
:1050100001E00CF00F03012202FA03F3BEF1010FCD
:105020001DD1D0F81C281A43C0F81C284FEA4C1395
:1050300000F51060C25812042CD491F803E089687E
:105040001A586FF3DF2141EA8C51114341EA8E4136
:1050500041F0805141F400411950002080BDD0F84A
:105060001C2842EA0342C0F81C284FEA4C1200F503
:10507000306083581B040DD491F803C0896813581D
:105080006FF3DF21194341EA8C4141F0805141F433
:1050900000411150002080BD80B56F4691F800E0BE
:1050A0004A780EF00F0101238B4047F6000CCEF634
:1050B000334C012A13D1D0F83C189943C0F83C185E
:1050C0000021CFF6FF7161EA0301D0F81C281140DE
:1050D000C0F81C1800EB4E1000F5106015E0D0F879
:1050E0003C2822EA0342C0F83C284FF4803202FAFE
:1050F00001F1D0F81C2822EA0101C0F81C1800EBCD
:105100004E1000F530600CF1707C016801EA0C0172
:105110000160002080BDB0B502AF82B091F800C040
:105120004B78012B30D100EB4C1404F51063D1F80F
:1051300014E0D4F81049BEF1000F4DD06FF3120403
:105140001C611C696FF3DC441C618C680EEB040568
:10515000013DB5FBF4F40025C1F6F87505EAC44439
:105160001D692C431C611C6975466FF3DF452C4398
:105170001C61CC78012C3AD11C6924F0C0441C611C
:105180001C6944F0005431E000EB4C13D3F8105B81
:105190006FF31205C3F8105BD3F8105B6FF3DC45B7
:1051A000C3F8105B03F53063D1F808C04C69E4B371
:1051B00004EB0C05013DB5FBFCF50024C1F6F874C9
:1051C00004EAC54E1C6944EA0E041C61ADB205FB3D
:1051D0000CFC6FF3DF4C30E06FF3DC441C611C69A6
:1051E00044F400241C611C696FF312041C61012A41
:1051F00001D10A6928E01C6844F004441C60CC78A2
:10520000012C39D1D0F80848E4054FF0805458BF3C
:105210004FF000541D682C431C60C96800921FFAAF
:105220008EF3624600F036F823E01D696FF3DF4C21
:1052300045EA0C051D614FF4002C1D6945EA0C057B
:105240001D61012A03D1CA68002A18BF5A61C978B2
:1052500001290AD1D0F80808C0054FF0805058BF86
:105260004FF00050196808431860186840F0044077
:105270001860002002B0B0BDBEF1000FF9D00CF0F4
:105280000F01012202FA01F1D0F834281143C0F8CD
:105290003418EEE7DDF800C0BCF1000F12D103F1C5
:1052A000030C0023B3EB9C0F0CD04FEA9C03043992
:1052B0004FEA023C00F5805051F8042F4CF80020D2
:1052C000013BF9D100207047F0B503AF4DF804BDA4
:1052D00091F800C04B78012B23D100EB4C1606F55A
:1052E00010634C69D6F810694FF6FF7ECEF2070EB8
:1052F0000025CFF6F875E4B335401D611D6905EA58
:105300000E051D618D68AC4288BF4D611C6944F477
:1053100000241C614C690EF1005626401D692E4385
:1053200030E000EB4C10D0F8103B6FF31203C0F8E4
:10533000103BD0F8103B6FF3DC43C0F8103B00F596
:1053400030634E694FF6FF70CEF20700002E1CBF8F
:105350008E684E611E6946F400261E618E6800F15B
:10536000005030401E6930431861012A11D1C868CD
:105370000CE006EA0E061E611E6946F400261E6158
:105380001E692E401E61012A0CD10869002818BF31
:1053900058614FF0044118680843186000205DF818
:1053A00004BBF0BD1A6842F004421A604969002942
:1053B000F4D00CF00F01012202FA01F100F63403DF
:1053C000E9E703320023B3EB920F0AD092080439C5
:1053D0004FF4805C50F80C3041F8043F013AF9D1A9
:1053E0000431084670470A784978012907D100EB53
:1053F000421101F51060D1F800193AB90CE000EB48
:10540000421101F53060D1F8001B2AB100295EBFBE
:10541000016821F080410160016841F400110160E0
:10542000002070470A784B785201012B14BF00F519
:10543000306000F51060835823F400138350C9785E
:1054400001F0FE01022902BF115841F080511150B4
:1054500000207047D0F8002822F4FE62C0F800282F
:10546000D0F8002801F07F0142EA0111C0F80018CD
:105470000020704780B56F46D0F8041821F0020173
:10548000C0F804180320FEF78FFD002080BD80B512
:105490006F46D0F8041841F00201C0F80418032048
:1054A000FEF782FD002080BD416980690840704799
:1054B000D0F81818D0F81C080840000C7047D0F835
:1054C0001818D0F81C08084080B2704700EB411152
:1054D000D1F8081BD0F8140808407047D0F810C85D
:1054E000D0F8343801F00F0223FA02F2D201D2B21E
:1054F00042EA0C0200EB4110D0F808091040704756
:10550000406900F001007047D0F8001940F2FF72C6
:105510009143C0F80019D0F8081801F006010429D9
:1055200002BFD0F8001941F00301C0F80019D0F80B
:10553000041841F48071C0F8041800207047D0F8B6
:1055400040C043F20B03C4F654739C4503D3D0F818
:10555000003B002B1ED40023C0F8103BD0F8103BBA
:1055600043F40023C0F8103BD0F8103B43F018037D
:10557000C0F8103BD0F8103B43F0C043C0F8103BDC
:10558000012901BFC0F8142BD0F8001B41F0802185
:10559000C0F8001B0020704744F60C00C5F602005E
:1055A000016841F080710160704780B56F4682B03C
:1055B000002001904FF4C840009002F01EFF4FF40D
:1055C000FA7001F0F0F941F6A450C2F20000694609
:1055D000082203F0FDF90120FBF7B1FB4FF4FA704C
:1055E00001F0E1F90120FBF79BFB4FF4FA7001F0A9
:1055F000DAF90A2001F0D1F90A2001F0CEF90120F0
:10560000FBF79DFB4FF4FA7001F0CDF9E3E7B0B57D
:1056100002AF8446101D20F0070EAEF144006FF07B
:1056200047024BF6EF64CDF6AD640EEB02056C60FD
:105630000432151DF9D100224FF080744EE9081292
:105640004EE90622AEF1100181E80C104EF8044C30
:105650004EF8442CB0BDD0B502AF044641F27430D0
:10566000C2F20000016829B104F12800884700282F
:1056700008BFD0BD616C49F61040C0F6000000F0D4
:10568000B0FBA16A49F61D40C0F6000000F0A9FB7E
:10569000E16A49F62A40C0F6000000F0A2FB216B47
:1056A00049F63740C0F6000000F09BFB616B49F6FD
:1056B0004440C0F6000000F094FBA16849F6514058
:1056C000C0F6000000F08DFBE16849F65E40C0F6D0
:1056D000000000F086FB216949F66B40C0F600002F
:1056E00000F07FFB616949F67840C0F6000000F0E9
:1056F00078FBA16949F68540C0F6000000F071FB17
:10570000E16949F69240C0F6000000F06AFB216AA8
:1057100049F69F40C0F6000000F063FB616A49F65D
:10572000AC40C0F6000000F05CFBA16B49F6B9404C
:10573000C0F6000000F055FBE16B49F6C640C0F62C
:10574000000000F04EFB216C49F6D340C0F600008B
:1057500000F047FB2078400706D449F6FD40C0F62C
:10576000000000F03EFB0AE001F04AF8014649F66D
:10577000E040C0F6000000F034FB01F054FA20785D
:10578000C00605D449F61750C0F6000000F029FB0A
:1057900000F001F8FEE7D0B502AF4EF62C54CEF281
:1057A00000042068800705D549F63250C0F6000095
:1057B00000F017FB2068400011D514F8030C0028F6
:1057C00018BF00F019F814F8040C002818BF00F0F6
:1057D0006AF834F8020C002818BF00F0B1F820680D
:1057E000B0F1FF3FC8BFD0BD49F64750C0F600003A
:1057F000BDE8D04000F0F5BAD0B502AF49F654503C
:10580000C0F6000000F0EDFA4EF62954CEF2000486
:10581000217849F66050C0F6000000F0E2FA2078E6
:10582000C00705D049F67650C0F6000000F0D9FA5E
:105830002078800705D549F68150C0F6000000F0B9
:10584000D0FA2078400705D549F67F50C0F6000011
:1058500000F0C7FA2078000705D549F6DA50C0F6FF
:10586000000000F0BEFA2078C00605D549F6E550E4
:10587000C0F6000000F0B5FA94F90000B0F1FF3F67
:1058800007DD49F61550C0F60000BDE8D04000F035
:10589000A8BAD4F80F1049F68C50C0F60000BDE845
:1058A000D04000F09EBAD0B502AF49F69C50C0F689
:1058B000000000F096FA4EF62854CEF2000421784B
:1058C00049F6AF50C0F6000000F08BFA2078C00710
:1058D00005D049F6C550C0F6000000F082FA2078E5
:1058E000800705D549F6CF50C0F6000000F079FAE0
:1058F0002078000705D549F6D950C0F6000000F021
:1059000070FA2078C00605D549F6E450C0F60000CC
:1059100000F067FA94F90000B0F1FF3F07DD49F6A7
:105920001550C0F60000BDE8D04000F05ABAE1685A
:1059300049F6ED50C0F60000BDE8D04000F051BA85
:10594000D0B502AF49F6FD50C0F6000000F049FAAC
:105950004EF62A54CEF20004218849F60B60C0F6B8
:10596000000000F03EFA2088C00705D049F621600B
:10597000C0F6000000F035FA2088800705D549F60A
:105980002D60C0F6000000F02CFA2088400705D5F5
:1059900049F63760C0F6000000F023FA20880007BF
:1059A00005D549F63E60C0F6000000F01AFA2088DE
:1059B000C00505D549F64460C0F6000000F011FAB4
:1059C0002088800505D549F64F60C0F6000000F03C
:1059D00008FA49F61550C0F60000BDE8D04000F0C6
:1059E00000BA41F27830C2F200000068704780B51A
:1059F0006F4641F27830C2F2000001680131016067
:105A000000F0FEFE016C0139016403D0BDE8804066
:105A100001F09EB8C16B016400F02EFFBDE880402C
:105A200001F096B8002844BF4FF0FF30704744F6AD
:105A3000D35CC1F2620CA0FB0C239A094FF47A7379
:105A400002FB03F102FB1300584300F2E730A0FB16
:105A50000C0201EB92107047002070470020704745
:105A60000020704700207047B0B502AF49F694247B
:105A7000C0F6000449F69020C0F60000A04228BFFE
:105A8000B0BD49F69025C0F6000555F8040B8047D7
:105A9000A542FAD3B0BDB0B502AF49F69C24C0F61A
:105AA000000449F69420C0F60000A04228BFB0BD13
:105AB00049F69425C0F6000555F8040B8047A54229
:105AC000FAD3B0BD80B56F4600F002F8002080BD6B
:105AD00080B56F46FAF704FCFBF7BEFE00F05BF9F9
